:020000040800F2
:10000000382A002041030008AF3C00084D360008A4
:10001000AD3C0008150A00089943000800000000E4
:100020000000000000000000000000008102000845
:10003000A70B000800000000DD020008B13C00082A
:100040005B0300085B0300085B0300085B03000818
:100050005B0300085B0300085B0300085B03000808
:100060005B0300085B0300085B030008BD0A00088F
:10007000C90A0008D50A0008E10A0008ED0A0008CC
:10008000F90A00085B0300085B0300085B03000833
:100090005B0300085B0300085B0300085B030008C8
:1000A0005B0300085B0300085B0300085B030008B8
:1000B0005B0300085B0300085B0300085B030008A8
:1000C0005B0300085B0300085B0300085B03000898
:1000D0005B0300088D4300085B0300085B03000816
:1000E0005B0300085B0300085B0300085B03000878
:1000F0005B0300085B0300085B0300085B03000868
:100100005B0300085B0300085B0300085B03000857
:100110005B0300085B0300085B0300085B03000847
:100120005B0300085B0300085B0300085B03000837
:100130005B0300085B0300085B0300085B03000827
:100140005B0300085B0300085B0300085B03000817
:100150005B0300085B0300085B0300085B03000807
:100160005B0300085B0300085B0300085B030008F7
:100170005B0300085B0300085B0300085B030008E7
:100180005B0300085B0300085B0300085B030008D7
:100190005B030008000000005B0300085B0300082D
:1001A0005B0300085B0300085B0300085B030008B7
:1001B0005B0300085B0300085B0300085B030008A7
:1001C0005B0300085B0300085B0300085B03000897
:1001D0005B0300085B03000800F002F800F040F841
:1001E0000AA090E8000C82448344AAF10107DA4592
:1001F00001D100F035F8AFF2090EBAE80F0013F0A4
:10020000010F18BFFB1A43F001031847A45D00005B
:10021000C45D0000103A24BF78C878C1FAD85207EC
:1002200024BF30C830C144BF04680C607047000070
:100230000023002400250026103A28BF78C1FBD8EF
:10024000520728BF30C148BF0B6070471FB505F08B
:1002500041FE9DE8030000F0F3F91FBD10B510BD8D
:1002600000F09EFA1146FFF7F1FF04F0F5F800F0F8
:10027000BCFA03B4FFF7F2FF03BC00F0EDFA000094
:100280002C4B19680868B0E8F04F80F30988BFF379
:100290006F8F4FF0000080F311887047000000005E
:1002A00008480068006880F308884FF0000080F379
:1002B000148862B661B6BFF34F8FBFF36F8F00DF54
:1002C00000BF00BF08ED00E0DFF80C00016841F45A
:1002D00070010160704700BF88ED00E0EFF3098016
:1002E000BFF36F8F134B1A681EF0100F08BF20ED7D
:1002F000108A20E9F04F106009B44FF0500080F3ED
:100300001188BFF34F8FBFF36F8F05F0B5F84FF033
:10031000000080F3118809BC19680868B0E8F04F44
:100320001EF0100F08BFB0EC108A80F30988BFF3ED
:100330006F8F704738000020EFF305807047000092
:100340000948804709480047FEE7FEE7FEE7FEE769
:10035000FEE7FEE7FEE7FEE7FEE7FEE704480549A5
:10036000054A064B70470000353D0008D9010008DA
:1003700038240020382A0020382600203826002083
:1003800070B5064600F040F9056806F10B0020F054
:100390000704B4429CBF002070BD2B466A68BAB106
:1003A0001068A04210D304F1080188423CBF506895
:1003B000586007D35168101941601168091B01602A
:1003C00058601460101D70BD13465268002AE7D1B2
:1003D0002146284600F020F90028DED170BD70B516
:1003E0000446051F00F010F90068002C14BF446893
:1003F00070BD002C18BFAC423CBF20466468F8D3E7
:1004000001680A18AA4218BF456003D12A68054648
:100410001144016028684119A1421CBF6C6070BD85
:100420006168696021680844286070BD53EA020C65
:1004300000F069802DE9F04B4FF00006002B1FBF44
:10044000B3FA83F503FA05F424FA05F65E4012BF09
:100450001643B2FA82F502FA05F4C5F120051EBF73
:1004600022FA05FC44EA0C04203556EA044C4FEA13
:10047000144418BF641C4FF000084FF0000990426C
:1004800071EB030C39D3002919BFB1FA81F701FAD6
:1004900007F6B0FA80F700FA07F6C7F120071EBF8B
:1004A00020FA07FC46EA0C062037B6FBF4FCA7EB63
:1004B0000507103F07F01F0BCBF120060CFA0BFBD2
:1004C0002CFA06F644BFB3460026202FA4BF5E4692
:1004D0004FF0000B5BEA060C08BF4FF0010B19EB65
:1004E0000B09ABFB027C48EB0608C01B06FB02CCE9
:1004F0000BFB03CC71EB0C01C1E70B4602464146F6
:100500004846BDE8F08B13B54FF000004FF00001F6
:10051000AFF30080BDE81C407047032A40F23080F2
:1005200010F0030C00F0158011F8013BBCF1020F34
:10053000624498BF11F801CB00F8013B38BF11F8B5
:10054000013BA2F1040298BF00F801CB38BF00F8CC
:10055000013B11F0030300F0A980083AC0F00880C5
:1005600051F8043B083A51F804CBA0E80810F5E72D
:10057000121D5CBF51F8043B40F8043BAFF3008010
:10058000D20724BF11F8013B11F801CB48BF11F885
:10059000012B24BF00F8013B00F801CB48BF00F855
:1005A000012B704702F0FF0343EA032242EA0242B2
:1005B00000F0B0B84FF0000200B5134694469646DE
:1005C000203922BFA0E80C50A0E80C50B1F1200166
:1005D000BFF4F7AF090728BFA0E80C5048BF0CC014
:1005E0005DF804EB890028BF40F8042B08BF704772
:1005F00048BF20F8022B11F0804F18BF00F8012BE4
:10060000704770477047704700487047DC230020F0
:10061000704770477047704738B504460A46002057
:100620006946AFF30080002808BF38BD0246009934
:10063000204600F093F8012038BD012000F0A8B852
:10064000F8B5AFF30080054600200C46102000BF2F
:100650000646A819A0420DD9324669460020AFF3DC
:100660000080070008BF00F093F80098A04218BF70
:100670000546C419FFF7C8FF05600746F01D20F0C6
:1006800007004619284600F00AF8B44208BFF8BD32
:10069000A21B31463868BDE8F84000F05FB8002181
:1006A0000160C0E9011070471020704710B5203A72
:1006B000C0F00B80B1E81850203AA0E81850B1E81B
:1006C0001850A0E81850BFF4F5AF5FEA027C24BFD1
:1006D000B1E81850A0E8185044BF18C918C0BDE8C8
:1006E00010405FEA827C24BF51F8043B40F8043B91
:1006F00008BF7047D20728BF31F8023B48BF11F846
:10070000012B28BF20F8023B48BF00F8012B70479F
:100710004FF000020429C0F0128010F0030C3FF4E7
:100720004BAFCCF1040CBCF1020F18BF00F8012B49
:10073000A8BF20F8022BA1EB0C01FFF73DBF5FEA39
:10074000C17C24BF00F8012B00F8012B48BF00F842
:10075000012B704700487047D423002003464068AF
:100760008C46002818BF88423CBF03464068F8D337
:1007700018681844884207D00CF1030020F00700E5
:10078000001D411A521A0146081D0A60FFF727BED4
:1007900010B500F039F8BDE8104000F02FB87047F0
:1007A0007546FFF7D7FFAE4605006946534620F071
:1007B0000700854618B020B5FFF7D0FDBDE8204002
:1007C0004FF000064FF000074FF000084FF0000B0D
:1007D00021F00701AC46ACE8C009ACE8C009ACE8C0
:1007E000C009ACE8C0098D46704710B50446AFF3A8
:1007F00000802046BDE81040FFF73BBD002801D037
:1008000000F02AB87047000010B5012805D000217B
:1008100003A000F027F8012010BD09A1F8E70000AF
:1008200053494752544D454D3A204F7574206F66D9
:100830002068656170206D656D6F72790000000041
:100840003A2048656170206D656D6F727920636F25
:10085000727275707465640001491820ABBEFEE7C2
:100860002600020070B505460C460A2000E06D1C0B
:1008700000F011F835B128780028F8D102E0641CA6
:1008800000F009F814B120780028F8D1BDE87040D4
:100890000A20AFF3008008B569468DF800000320F8
:1008A000ABBE08BD10B5846AE16D11F0500F06D0E3
:1008B000E16DC90625D5204600F09BFC10BDE06D1A
:1008C00040F40070E06520680168090716D502F061
:1008D000D0FE78B12068C068800400280ADBE06D93
:1008E00020F48070E065E06DC00403D4E06D40F05A
:1008F0000100E065204600F03FFC10BDC0688007A5
:10090000EBE7616D496BBDE81040084710B5806AA0
:10091000C16D41F04001C165016E41F00401016605
:1009200000F067FC10BD10B5806A00F061FC10BDDE
:10093000F8B50446002000902068816811F0010F8E
:100940004AD18168254A114237D18168D54329406F
:10095000491C81602068B0F1A04F02D02049884234
:1009600001D1204800E02048806800F0E0700002DB
:100970000DD51E481E490068B0FBF1F0401C00EB8D
:100980004000800000E0401E00900028FBD101F0F4
:1009900093FA06461BE0816811F0010F03D18168CC
:1009A0002940491C816001F087FA801B02280ED97A
:1009B00020680068C043C00709D0E06D40F0100017
:1009C000E065206E40F0010020660120F8BD20683F
:1009D0000168C943C907DED10020F8BD3F0000808F
:1009E00000010050000300500007005034000020B8
:1009F000400D0300054C064803F0E0FC611C044870
:100A000004F024FB012003F081FDF4E798050020A9
:100A100098040020FEE7000030B5002308E000BF86
:100A200001EB8304056824684FEA34442C605B1CA6
:100A3000B3EB520FF4D3D20703D0026831F823107E
:100A400011800068006830BD70B500230DE000BF64
:100A500001EB83042588A6786DBA2D04E47845EA75
:100A600006252543046825605B1CB3EB920FEFD38A
:100A700094071BD002F00304012C03D1066811F87F
:100A800023503570022C05D101EB830405682488BE
:100A900064BA2C80D243920708D101EB8302036829
:100AA000118849BA1980917802681170006800684D
:100AB00070BD012003F02AFDFBE70000014800F0B3
:100AC000CEBF0000A00A0020014800F0C8BF00000F
:100AD000C0080020014800F0C2BF0000200900202B
:100AE000014800F0BCBF000080090020014800F070
:100AF000B6BF0000E0090020014800F0B0BF0000D0
:100B0000400A00200D4902688A4201D20C4901E0E6
:100B10000B492031D2B21423083AB2FBF3F2436CF2
:100B200002F01F0223F00303194481640449803159
:100B3000C164012191400165704700000804024032
:100B4000000802400179074A02EB81024265054A2A
:100B50004432491E826501F01F0201219140C165A6
:100B600070470000FC08024030B5D0E913456560CD
:100B7000446D14B1D0E91645656090F8444004F026
:100B80001F050124AC40056C6C60046863608368D9
:100B9000102B036803D099600068C26030BD9A6072
:100BA0000068C16030BD704772B6FEE72DE9F04FB6
:100BB000044690F858009BB00F464FF0000B0128F8
:100BC00012D0012084F85800002617961896206845
:100BD0004FF0A048DFF81C91DFF81CA1474D4045BD
:100BE00006D12846009508E002201BB0BDE8F08F32
:100BF00048450AD15046CDF800A002F036FD0090DD
:100C0000206802F032FD40B109E0E06D40F02000C4
:100C1000E06584F858600120E7E7009850B1E06D86
:100C200040F02000E0654FF0010B00BF84F85860F1
:100C30005846DAE720684146884201D0A84201D1EF
:100C40002F4800E02F48D7F800C02F4B40F61F7206
:100C5000BCF1000F2DD0D0F808C094F838802CF4E7
:100C6000604C4CEA483CD7F804804CEA080CC0F8C9
:100C700008C0D4F800C08C4501D0AC4504D18968C7
:100C8000AB6801F0010109E0D9F80810DAF8085062
:100C900001F0010105F001059B68294303F0010300
:100CA0001943C3D1BB683968194383689343194317
:100CB0001DE0876827F46047876027688F4201D06E
:100CC000AF4204D18968AB6801F0010109E0D9F8AD
:100CD0000810DAF8085001F0010105F001059B68E1
:100CE000294303F001031943A0D181689143816036
:100CF0009CE7000000040050000500500001005077
:100D00000003005000070050000600502DE9F84F86
:100D100000270446009790F85800DFF81C840D4621
:100D2000B946012811D0012684F85860206802F0E5
:100D300098FC60B1E06D40F02000E0655FF00107D5
:100D400084F858903846BDE8F88F0220FBE7D5E9D3
:100D500000210C23206803EA91131844036B01F06F
:100D60001F014FF01F0C0CFA01FCC2F3846223EA4E
:100D70000C038A4013430363206802F072FC82462E
:100D8000206802F06AFC5AEA00003CD1AA6829688F
:100D90002068B2F1004F37D002F073FC206841693F
:100DA00021F00041416120686969C268C2F3C10253
:100DB000520091402A69042A31D000EB82002B684E
:100DC000026EDFF878C303F0F84302EA0C020B432B
:100DD0001A4342F00041016622682869A96902EBC2
:100DE0008000026E22F080720A430266297F226828
:100DF0002869012910D0002102EB8000026E22F048
:100E000000720A4302667DE0002202F03AFC20688C
:100E1000416941F00041C5E74FF00071ECE7002166
:100E200002F015FC400320684FF0000172D002F080
:100E30000EFC90FAA0F0B0FA80F1286842036ED060
:100E400090FAA0F0B0FA80F0814204D1002211465D
:100E5000206802F025FC0121206802F0F8FB400325
:100E600020684FF001015DD002F0F1FB90FAA0F094
:100E7000B0FA80F12868420359D090FAA0F0B0FA95
:100E800080F0814204D100220121206802F008FC98
:100E90000221206802F0DBFB400320684FF00201D2
:100EA00048D002F0D4FB90FAA0F0B0FA80F12868A4
:100EB000420344D090FAA0F0B0FA80F0814204D10D
:100EC00000220221206802F0EBFB0321206802F0DF
:100ED000BEFB400320684FF0030133D002F0B7FBA4
:100EE00090FAA0F0B0FA80F1286842032FD090FA6F
:100EF000A0F0B0FA80F0814204D1002203212068E2
:100F000002F0CEFB2068816811F0010F22D0ACE026
:100F100000E004E002F09BFBC0F384618DE7C0F3C6
:100F2000846091E702F093FBC0F38461A2E7C0F311
:100F30008460A6E702F08BFBC0F38461B7E7C0F3DF
:100F40008460BBE702F083FBC0F38461CCE7C0F3AD
:100F50008460D0E72A7B296850F8B03FC1F3120CB7
:100F600023EA0C0302F0180C754A22FA0CF20A402C
:100F700013430360E968414577D1286841031CD0D9
:100F800090FAA0F1B1FA81F1491C01F01F01092981
:100F90004FEA403132D8002912D000BF90FAA0F1B8
:100FA000B1FA81F101F1010101F01F0106FA01F628
:100FB00009D100BFC0F3846109E0C0F38461E3E7B5
:100FC000C0F38461EEE790FAA0F1B1FA81F101F18A
:100FD000010101F01F0146EA816102D1C0F3846082
:100FE00003E090FAA0F0B0FA80F000F1010000F008
:100FF0001F0000EB400041EA005132E000290ED012
:1010000090FAA0F1B1FA81F101F1010101F01F01A3
:1010100006FA01F606D100BFC0F3846106E0C0F312
:101020008461F1E790FAA0F1B1FA81F101F10101D7
:1010300001F01F0146EA816102D1C0F3846003E040
:1010400090FAA0F0B0FA80F000F1010000F01F006B
:101050003C4A00EB400002EB005041EA000141F045
:101060000071AA68206802F00CFB37482B68034225
:101070003FF466AE21684FF0A04C3448344E354DF5
:10108000614501D0A94201D1024600E03246926892
:10109000DFF8C48002F0E072434503D0DFF8BC8083
:1010A000434521D15FEA02281ED4614506D02C4B6E
:1010B00099427FF445AEA94200D0304642F4000187
:1010C000826822F0E0720A4382602648264900685E
:1010D000B0FBF1F0401C00EB4000800000E0401E3F
:1010E00000900028FBD12BE6DFF8808043450FD12C
:1010F0005FEAC2180CD4A94202D11D4B9942F2D02A
:10110000614502D0A94200D0304642F080710CE027
:10111000DFF860804345E6D15302E4D4A942E2D02F
:10112000614500D0304642F48001826822F0E072CE
:101130000A43826004E6000000007F4000F0FF03E5
:10114000FFFF0700000020FE0000088000030050A1
:101150000007005000010050000021C31000C090A3
:101160000006005034000020400D0300000052C76C
:1011700000050050000084CB01681748B1F1A04F72
:101180000AD0164A91420ED115490A8802804A882F
:10119000C2808988818070471149091F0A8882812D
:1011A0004988418070470F4A914204D10C4918394F
:1011B0000988C18170470C4A914204D10849163907
:1011C000098801817047094A9142FBD104491439C9
:1011D0000988418170470000880400200001005008
:1011E00018000020000400500005005000060050C8
:1011F00070477047F8B54FF0000504002E46009583
:1012000002D0E06D10B107E00120F8BD204600F0EB
:1012100009F9266684F8586020688168C1F3407136
:1012200019B18168734A1140816020688168C1F3F7
:10123000007189B98168704A114041F08051816024
:101240006E486F490068B0FBF1F04000801C00E080
:10125000401E00900028FBD120688168C1F3007116
:1012600041B9E16D41F01001E165216E41F00101EC
:101270002166012502F0F5F9E16DC90600D430B10F
:10128000E06D40F01000E06501252846F8BDE06DF6
:1012900020F4807040F00200E0652068816811F061
:1012A000010F27D14FF0A043564A984201D09042F7
:1012B00004D19968966801F001010AE052498968F1
:1012C000524E01F00101B66806F001063143504E5E
:1012D000B66806F0010631430CD1984201D0904225
:1012E00001D14C4800E04C486168826822F47C12CD
:1012F0000A438260E168E06B627F0843A16841EACB
:101300004231084394F8241040EA0140012904D1F5
:10131000218D424A02EB41410843E16A29B101F4BF
:101320007871226B014342EA01002268D1683C4B8C
:1013300019400143D16020680169626B21F040616E
:1013400011430161206802F088F970BB207F94F896
:1013500038102268800340EA4100D16844F2020359
:1013600099430143D16020690028206801690AD0AF
:1013700041F480310161206850F8C01F22696FF389
:101380000D01114307E021F480310161206850F81C
:10139000C01F6FF30D01016094F8400001280CD0CC
:1013A0002068016921F0010101616069012820685C
:1013B000016B21F00F0111D013E0D4E911010843B2
:1013C000D4E913121143084321680A6940F2FC73FF
:1013D0009A43104340F001000861E6E7226A521E7A
:1013E00011430163E06D20F0020040F00100E06570
:1013F0004BE70000C0FFFF5FC0FFFF7F340000200D
:10140000400D030000010050000400500005005092
:101410000006005000030050000700500000FEFFCF
:101420000740F0FF2DE9F04F9BB00746142115A8A7
:10143000FFF7C0F854216846FFF7BCF84FF40041AD
:10144000386800258A03A64EA64C4FF003084FF0DB
:10145000800B4FF480794FF4005AB0F1A04F10D0B8
:10146000A14B98427ED168461192009100F0BEFFD8
:1014700008B1FFF799FB3068401C306001283AD072
:1014800041E068461192009100F0B0FF08B1FFF70B
:101490008BFB3068401C3060012807D1E06C40F4C1
:1014A0000050E064E06C00F400501A90E06C40F0F2
:1014B0000100E064E06C179500F001001A900C2028
:1014C000CDE9150815A94FF0904000F0CBFB884CF2
:1014D000864820600520C4E901054FF48060C4E916
:1014E00005902020C4E9070A2046EEE07C65A7624B
:1014F0001BB0BDE8F08FE06C40F40050E064E06C9D
:1015000000F400501A90E06C40F00100E064E06CE0
:1015100000F001001A90E06C40F00200E064E06C22
:10152000CDF8548000F00200CDE916851A904446AB
:1015300015A94FF0904000F095FB15A94FF40060FD
:1015400081E831006B4800F08DFB68486A4C14302C
:1015500020602420C4E901054FF48060C4E90590AF
:10156000202000E003E0C4E9070A2046ADE0634B19
:101570009901CA03984235D168461292009100F051
:1015800035FF08B1FFF710FB7068401C7060012840
:1015900007D1E06C40F48040E064E06C00F48040EF
:1015A0001A90E06C40F00200E064E06CCDF854A0CA
:1015B00000F00200CDE916851A90564615A94D484F
:1015C00000F050FB49484E4C283020602520C4E9EB
:1015D00001054FF48060C4E905902020C4E90706A6
:1015E000204672E0474B984235D1684612920091EE
:1015F00000F0FCFE08B1FFF7D7FA7068401C70607D
:10160000012807D1E06C40F48040E064E06C00F415
:1016100080401A90E06C40F00200E064E06C1795A6
:1016200000F002001A904FF48050CDE9150815A97A
:10163000304800F017FB2D48334C3C30206026200A
:10164000C4E901054FF48060C4E905902020C4E995
:10165000070A204639E02D4B98427FF449AF68468F
:101660001292009100F0C2FE08B1FFF79DFA706877
:10167000401C7060012807D1E06C40F48040E064B9
:10168000E06C00F480401A90E06C40F00100E064EF
:10169000E06CCDF8549000F00100CDE916851A9069
:1016A0004E4615A94FF0904000F0DCFA0F48184C58
:1016B000503020602720C4E901054FF48060C4E960
:1016C00005602020C4E9070A2046C4E9035B00F056
:1016D00023FA00283FF40AAFFFF766FA06E7000096
:1016E0002000002000100240000100501C000240B9
:1016F000C008002000040048200900200004005019
:101700008009002000050050E0090020000600507C
:10171000400A00202DE9F047044600684FF0A04839
:101720003D4F91468A46404501D0B84201D13B49E0
:1017300000E03B49896801F01F0501F092FF002895
:1017400068D194F85800012864D0012084F858002A
:1017500034492068884201D1012000E00020401E69
:1017600028424FF0000605D0052D03D0092D01D0E9
:10177000012003E02046FFF7DBF818B184F8586039
:10178000BDE8F087E06D40F60161884340F4807069
:10179000E0652068B84201D1414605E0224988420F
:1017A00001D1224900E00146814200D01DB9E06D1F
:1017B00020F48010E065E06DC00404D5206E20F0B8
:1017C0000600206600E02666616D1948C862616DFA
:1017D00018480863616D1848486321681C20086038
:1017E00084F858602068416841F010014160206829
:1017F000C16841F00101C16021684B465246403149
:10180000606D00F0E9F921688A680C4B1A40121DDE
:101810008A60B5E70220B3E70001005000030050E2
:101820000007005000060050000500500004005062
:10183000A5080008270900080D090008C0FFFF7F60
:10184000F0B504460020CB0711D01E235FF001063F
:1018500003F01F0706FA07F50D4201D15B1EF7D210
:101860007AB1082A0BD0102A06D0182A01D00120FC
:10187000F0BD072BFBD204E0082BF8D201E0102BBF
:10188000F5D22368596121688B6823F0180313434C
:101890008B60F0BD70B50446002002236377236897
:1018A0009D6845F001059D60236A012B0ED0022B37
:1018B00010D0032B11D104E0256851F820302B60A3
:1018C000401C9042F8D32068006806E02046FFF7ED
:1018D000BBF802E02046FFF79FF80121617770BD59
:1018E00010B5040010D0607F20B90020207720467A
:1018F00000F030F802206077207938B1D4E9021284
:101900002046FFF79DFF48B1012010BD2168104817
:1019100048612068816821F0180181606079A0B178
:1019200020692168086120688168626921F060018E
:101930001143816020688168A26921F08001114310
:10194000816001206077002010BD4FF0FF30E8E794
:10195000B71DC10408B500680649884208D1064889
:10196000816C41F480518164806C00F4805000905F
:1019700008BD0000003002400010024010B590F891
:10198000253000210122022B03D00421C163012153
:1019900022E003681C6824F00E041C60836C1C6841
:1019A00024F480741C6003681C6824F001041C602B
:1019B00090F84430046C03F01F0302FA03F36360F1
:1019C000D0E913345C60436D33B11C6824F4807437
:1019D0001C60D0E916345C6080F82520002280F875
:1019E0002420084610BD70B590F825200024012160
:1019F0002346022A07D00422C26380F8251080F80B
:101A00002430012429E00268156825F00E051560D0
:101A10000268156825F001051560826C156825F4CB
:101A20008075156090F84420056C02F01F0201FAE1
:101A300002F26A60D0E913255560426D32B1156833
:101A400025F480751560D0E91625556080F82510BD
:101A500080F82430816B01B18847204670BDF0B416
:101A6000016C0C6801680D6890F8442002F01F06B4
:101A7000042202FA06F3234211D06B070FD50B683C
:101A80009B0603D40B6823F004030B6090F844100A
:101A900001F01F018A40016C4A60016B1DE00223C6
:101AA00003FA06F727424FF0000C4FF0010218D05E
:101AB000AF0716D50C68A40605D40C6824F00A04F8
:101AC0000C6080F8252090F8441001F01F018B4035
:101AD000016C4B6080F824C0C16A00291AD0F0BCA8
:101AE00008470823B340234214D02B0712D50B68B4
:101AF00023F00E030B6090F84410036C01F01F01FB
:101B000002FA01F15960C26380F8252080F824C0F0
:101B1000416BE2E7F0BC704770B504000CD02B4A73
:101B200021681420914209D2294A0A44B2FBF0F0FC
:101B30008000606427480AE0012070BD234A5242B9
:101B40000A44B2FBF0F0800060642048083820644A
:101B5000022084F825000A6847F6F0708243D4E931
:101B600002031843D4E904352B431843A3691843EF
:101B7000E3691843236A1843104308602046FEF7C0
:101B8000C1FFA0680025B0F5804F00D16560A16C51
:101B900020790860D4E9130141606068401E032881
:101BA00008D82046FEF7CEFF606D0560D4E9160127
:101BB000416002E06565A565E565E563012084F89F
:101BC000250084F82450002070BD00000804024065
:101BD000F8FFFDBF0000024070B5044690F82400F5
:101BE000002501280CD0012084F8240094F82560F9
:101BF0000020012E06D084F824000225284670BD5E
:101C0000022070BD022684F82560E0632068066823
:101C100026F0010606602046FEF7A6FF206B00288E
:101C20002068016802D041F00E0106E021F00401B5
:101C300001602068016841F00A010160A06C016840
:101C4000C90303D5016841F480710160606D18B16A
:101C5000016841F4807101602068016841F0010170
:101C60000160CBE72DE9F04FDFF820920023012639
:101C70000324A9F1040B85B00F2709F1040AABF185
:101C8000040EFAE006FA03F52A407CD091F804C06D
:101C90000CF0030CBCF1010F02D0BCF1020F26D1F5
:101CA000D0F808C0CDF800C04FEA430C04FA0CF895
:101CB000CDF810C0DDF800C02CEA080CCDF800C04B
:101CC000D1F80C80DDF810C008FA0CF8DDF800C07F
:101CD00048EA0C08C0F80880D0F804C02CEA050CCB
:101CE0000D79C5F300159D4045EA0C0545600D7959
:101CF000ED43AD070ED0C5684FEA430804FA08FC6F
:101D000025EA0C05D1F808C00CFA08FC4CEA050CD1
:101D1000C0F80CC00D7905F00305022D16D1DD08C1
:101D200000EB850CCDF808C0DCF820805D074FEA99
:101D3000D56C07FA0CF528EA05080D6905FA0CF5CB
:101D4000DDF808C045EA0805CCF8205005684FEAE0
:101D5000430CCDF808C004FA0CFC25EA0C0591F8F8
:101D600004C00CF00308DDF808C008FA0CF848EAD3
:101D70000508C0F800804D6815F4403F7CD0444D04
:101D8000D5F860C000E077E04CF0010CC5F860C009
:101D90002D6E23F0030C05F0010500953D4D6544C3
:101DA0000295AD684FEA837C4FEA1C7807FA08FC7D
:101DB00025EA0C05B0F1904F06D0DFF8DCC0604595
:101DC00005D14FF0010C20E04FF0000C1DE0DFF8D2
:101DD000CCC0604502D14FF0020C16E0DFF8C0C065
:101DE000604502D14FF0030C0FE0DFF8B8C060454A
:101DF00002D14FF0040C08E0DFF8ACC0604502D11E
:101E00004FF0050C01E04FF0060C0CFA08FC4CEA10
:101E1000050C029DC5F808C0D9F80050CC46D1F891
:101E2000048095435FEAC82800D51543CCF80050DC
:101E3000DAF80050D446D1F8048095435FEA882848
:101E400000D51543CCF80050DBF80050DC46D1F843
:101E5000048095435FEA883800D51543CCF80050DC
:101E6000DEF80050F446D1F8048095435FEAC838A4
:101E700000D51543CCF800505B1C0A6832FA03F514
:101E80007FF400AF05B0BDE8F08F0000080401400A
:101E90000010024000000140000400480008004813
:101EA000000C004800100048001400480AB181618D
:101EB00070478162704700000148806870470000E9
:101EC0002800002010B590F8DC20012A21D0012242
:101ED00080F8DC20022380F8DD304B1C1BD0036827
:101EE000D3F8CC4344F00204C3F8CC430368D3F8DE
:101EF000CC4324F00C040C43C3F8CC430168D1F864
:101F0000CC3343F00103C1F8CC3380F8DD2000204E
:101F100010BD022010BD0168D1F8CC3323F00203BC
:101F2000C1F8CC33EAE7000038B5040056D00220EF
:101F300084F8DD000025C4F8E050C4F8E450C4F88B
:101F4000E850C4F8EC50C4F8F050C4F8F450C4F8A9
:101F5000F850207AC0071BD021492068884208D158
:101F60002048016E41F080610166006E00F08060E3
:101F700000902168086820F44042208A00F4404024
:101F8000104320F44052A08A00F4405010430860EF
:101F9000204600F029F8207A800708D521680868D3
:101FA00020F44072A08900F44070104308600120C2
:101FB00084F8DD0084F8DC505FF00001C1EBC10063
:101FC00004EB8000491C8561C5610562456285623C
:101FD000C9B205630629F1D9002038BD012038BDFA
:101FE000006801400010024008B5006806498842B8
:101FF00008D10648016E41F080610166006E00F074
:102000008060009008BD00000068014000100240A0
:1020100070B50D460446FFF74FFF064607E0681C03
:1020200005D0FFF749FF801BA8420DD865B1206895
:10203000D0F88803C043C003F1D4012084F8DD0048
:10204000002084F8DC0070BD072084F8DD00032048
:1020500070BD70B590F8DD30022B23D0022380F8DC
:10206000DD30062920D08023046803EBC1156359B5
:1020700023F007069368334323F01806D3683343ED
:1020800063519425046805EBC115136863519824C6
:10209000036804EBC11152685A50012180F8DD1029
:1020A000002070BD022070BD0368196821F007048C
:1020B0009168214321F01804D16821431960036815
:1020C00011685961516802689161E6E72DE9F041B4
:1020D000044690F8DD0015460E46022826D094F8F6
:1020E000DC00012821D0012784F8DC70022084F86C
:1020F000DD00062E1CD0204601F0DAF9C6EBC60042
:1021000004EB80002968016269684162A968816204
:10211000E968C162296901633146204601F04AF944
:10212000062E15D0E86A40B112E00220BDE8F08129
:102130001146204601F072F9E0E78021206801EBAA
:10214000C6114258EB6D22F4007242EA432242501B
:1021500084F8DD70002084F8DC00E7E72DE9F04129
:10216000044690F8DD00022824D094F8DC00012811
:102170001FD0012584F8DC50022084F8DD00EC201B
:10218000266800EBC113F058176820F0100040EAF1
:10219000071020F480175068384320F48037D06847
:1021A000384320F40037906838439769012F03D0F3
:1021B0000CE00220BDE8F08120F0040710693843EC
:1021C00020F002075069384340F00100F0502046EB
:1021D00001F0F0F884F8DD50002084F8DC00E9E735
:1021E00002488168426811448160704728000020DD
:1021F00010B50024032000F081F80F2000F008F84B
:1022000008B1012401E000F025F8204610BD0000CF
:1022100070B50E4E05460024706898B14FF47A717F
:10222000B1FBF0F00A490968B1FBF0F000F0D6FD0F
:1022300040B9102D06D200222946501E00F03EF86B
:10224000356000E00124204670BD00002800002019
:1022500034000020114808B5016E41F0010101660B
:10226000016E01F001010091816D41F080518165A5
:10227000806D002200F0805000900F21901E00F031
:102280001DF8002000F0A0FD00F07CFD002000F013
:1022900091FDBDE8084000F0A1B800000010024028
:1022A000002809DB00F01F02012191404009800055
:1022B00000F1E020C0F8001170470000F0B40E4BB0
:1022C0001B680C46C3F30223C3F10705042D00D994
:1022D0000425191D072901D2002300E0DB1E012679
:1022E00006FA05F1491E214099409E40761E16408F
:1022F0003143F0BC02F051B80CED00E0064900F0AB
:10230000070208684FF6FF03184040EA0220034A1C
:1023100010430860704700000CED00E00000FA0573
:102320002B492C4B0A6832214A432B4940B1B0F566
:10233000007F086829D020F4C06040F480602CE061
:102340000868C0F34120022804D051F8800F20F41F
:10235000807022E0D1F8800020F48070C1F8800005
:10236000086820F4C06040F400700860B2FBF3F02D
:10237000401C00E0401E4A69520501D50028F9D1F1
:10238000486940050AD503207047C0F34120022860
:1023900006D051F8800F40F480700860002070472C
:1023A000D1F8800040F48070C1F88000086820F403
:1023B000C06040F400700860B2FBF3F0401C00E025
:1023C000401E4A695205DBD50028F9D1D8E7000044
:1023D0003400002040420F00007000400248816835
:1023E00041F4804181607047007000402DE9F8435E
:1023F000044600680026BB4D00035ED5A86D00278B
:10240000C00008D4A86D40F08050A865A86D0127D1
:1024100000F080500090DFF8D092D9F8001041F41D
:102420008071C9F80010FFF747FD804606E000BF45
:10243000FFF742FDA0EB080002282BD8D9F80000D6
:10244000C005F5D5D5F8900010F4407014D0216D7A
:10245000814211D0D5F89000D5F8901020F440704A
:1024600041F48031C5F89010D5F8901021F48031F6
:10247000C5F89010C5F89000C00711D0FFF71CFDFB
:10248000804641F2883907E0FFF716FDA0EB08010E
:10249000494501D903260BE0D5F890008007F3D514
:1024A000D5F89000216D20F440700843C5F89000E5
:1024B0001FB1A86D20F08050A8652078C00707D014
:1024C000D5F88800616820F003000843C5F888004B
:1024D0002078800707D5D5F88800A16820F00C0087
:1024E0000843C5F888002078400707D5D5F888004C
:1024F000E16820F030000843C5F888002078000724
:1025000007D5D5F88800216920F0C0000843C5F838
:1025100088002078C00607D5D5F88800616920F4C6
:1025200040700843C5F888002078800607D5D5F8A4
:102530008800A16920F440600843C5F8880020782D
:10254000400607D5D5F88800E16920F440500843DB
:10255000C5F888002078000607D5D5F88800216ADC
:1025600020F440400843C5F888002088C00507D5FE
:10257000D5F88800616A20F440300843C5F8880027
:102580002068800307D5D5F89C00A16A20F00300DD
:102590000843C5F89C002088800507D5D5F8880039
:1025A000E16A20F440200843C5F8880020884005EF
:1025B0000FD5D5F88800216B20F440100843C5F8EA
:1025C0008800206BB0F5801F03D1E86840F48010CC
:1025D000E860208800050FD5D5F88800616B20F4ED
:1025E00040000843C5F88800606BB0F5800F03D148
:1025F000E86840F48010E8602088C0040FD5D5F862
:102600008800A16B20F040700843C5F88800A06BDB
:10261000B0F1807F03D1E86840F48010E860208842
:102620004FF0006180040ED5D5F88800E26B20F0F1
:1026300040601043C5F88800E06B884203D1E86829
:1026400040F48010E860208840040ED5D5F888005A
:10265000226C20F040601043C5F88800206C88424E
:1026600003D1E86840F48010E860208800040FD5AA
:10267000D5F88800616C20F040500843C5F8880008
:10268000606CB0F1805F03D1E86840F48030E860AE
:102690002068C0030FD5D5F88800A16C20F0404019
:1026A0000843C5F88800A06CB0F1804F03D1E868FA
:1026B00040F48030E860206840030FD5D5F89C00D6
:1026C000E16C20F440100843C5F89C00E06CB0F5C4
:1026D000001F03D1E86840F48010E8603046BDE890
:1026E000F883000000100240007000402DE9F04720
:1026F0000E4605004FF0000725D0DFF8AC81D8F872
:10270000000000F00F00B0420CD2D8F8001021F009
:102710000F013143C8F80010D8F8000000F00F0096
:10272000B04210D12968614CC80741F2883A5AD0AA
:102730006868DFF87C91032808D0022820682DD033
:10274000400500282CDB0120BDE8F08720688001CF
:10275000F9D5E06800F00302E068C0F30310401C04
:10276000032A19D0534A00BFB2FBF0F0E268C2F36B
:1027700006225043E268C2F34162521C5200B0FB91
:10278000F2F0484517D9A06810F0F00F0CD0880778
:1027900011D5A86840B10EE0474AE5E78003D0E7CD
:1027A00000F0B6F8484506D9A06820F0F00040F0E7
:1027B0008000A0608027A068696820F003000843BB
:1027C000A060FFF779FB814606E000BFFFF774FBCE
:1027D000A0EB090151453AD8A068696800F00C00E7
:1027E000B0EB810FF2D12868810714D5400703D5DB
:1027F000A06840F4E060A0602878000705D5A068D4
:1028000020F4605040F4E060A060A068A96820F067
:10281000F000084304E0802F03D1A06820F0F0000E
:10282000A060D8F80010404601F00F01B14216D95F
:10283000016821F00F0131430160FFF73DFB0746BE
:1028400007E000BFFFF738FBC11B514501D903204A
:102850007AE7D8F8000000F00F00B042F2D12878F3
:10286000400705D5A068E96820F4E0600843A0604F
:102870002878000706D5A068296920F4605040EA4E
:10288000C100A06000F044F8A1680C4AC1F3031134
:10289000515C01F01F01C8400949086009480068FF
:1028A000BDE8F047FFF7B4BC002002400010024032
:1028B00000B4C4040024F400006CDC02745F00085F
:1028C0003400002028000020054806490068896877
:1028D000054AC1F30221515C01F01F01C840704755
:1028E0003400002000100240845F000805480649BB
:1028F00000688968054AC1F3C221515C01F01F01DB
:10290000C84070473400002000100240845F000877
:10291000184910B58868C0F381021748012A0BD006
:102920008A68164BC2F38102022A06D08A68C2F373
:102930008102032A03D0002010BD184610BDCA68CA
:1029400002F00304CA68C2F30312521C032C02D023
:10295000B0FBF2F001E0B3FBF2F0CA68C968C2F361
:1029600006225043C1F34161491C4900B0FBF1F01C
:1029700010BD0000001002400024F400006CDC02D6
:102980002DE9F84304007AD02078F84DC00747D0ED
:10299000A868E96800F00C0001F003010C2802D0DF
:1029A000082817D001E0032914D06068B0F5803FF3
:1029B00017D0B0F5A02F286817D020F480302860F9
:1029C000286820F4802028606068E0B1FFF774FA7E
:1029D000064614E02868800322D560680028D2D01B
:1029E0001EE0286840F48030EDE740F48020286045
:1029F000F7E700BFFFF760FA801B642870D82868EB
:102A00008003F7D50CE0FFF757FA064605E000BF54
:102A1000FFF752FA801B6428F0D828688003F7D4A7
:102A2000207880074CD5A868E96800F00C0001F018
:102A300003010C2802D004280DD001E002290AD09D
:102A4000E068002828682BD040F480702860FFF7E9
:102A500033FA064619E02868400502D5E0680028E8
:102A600091D06868217C20F0FE4040EA01606860F7
:102A7000BF480068FFF7CCFB002800D120E072E1DE
:102A8000FFF71AFA801B0228B8D828684005F7D546
:102A90006868217C20F0FE4040EA016068600FE039
:102AA00020F480702860FFF707FA064605E000BFB3
:102AB000FFF702FA801B0228A0D828684005F7D447
:102AC0002078000729D560690028D5F8940013D034
:102AD00040F00100C5F89400FFF7EEF9064606E065
:102AE00090E000BFFFF7E8F9801B022886D8D5F8F0
:102AF00094008007F6D510E020F00100C5F894009E
:102B0000FFF7DAF9064604E0FFF7D6F9801B022842
:102B100078D8D5F894008007F6D42078400761D59E
:102B2000A86D0026C00008D4A86D40F08050A865AC
:102B3000A86D012600F0805000908E480168C905FC
:102B400011D40168804641F480710160FFF7B4F947
:102B5000074604E0FFF7B0F9C01B022852D8D8F8A6
:102B60000000C005F6D5A068012815D00528D5F8C5
:102B7000900016D020F00100C5F89000D5F8900024
:102B800020F00400C5F89000A06841F28838B8B180
:102B9000FFF792F907460EE0D5F8900040F00100EB
:102BA000F0E740F00400C5F89000F5E7FFF784F97E
:102BB000C11B414526D8D5F890008007F6D50CE01A
:102BC000FFF77AF9074604E0FFF776F9C11B4145A4
:102BD00018D8D5F890008007F6D41EB1A86D20F063
:102BE0008050A8652078800629D5A0690028D5F8EE
:102BF000980013D040F00100C5F89800FFF75CF989
:102C0000064606E075E000BFFFF756F9801B022874
:102C10006FD8D5F898008007F6D510E020F00100B5
:102C2000C5F89800FFF748F9064604E0FFF744F9B5
:102C3000801B02285DD8D5F898008007F6D4E0699B
:102C4000F0B3A968C1F3810103295DD00228286887
:102C500020F08070286003D0FFF72EF904464BE087
:102C6000FFF72AF9064604E0FFF726F9801B022841
:102C70003FD828688001F7D4F4E908016FF00F020B
:102C800002EB01110843218A5204490802EB415129
:102C9000A26841EA02210843217D4FF07E424908A3
:102CA00002EB41610843217B40EAC160E968324A96
:102CB00011400843E860286840F08070286000E018
:102CC0005EE0E86840F08070E860FFF7F5F80446E1
:102CD00005E000BFFFF7F0F8001B022809D82868BC
:102CE0008001F7D54CE000BFFFF7E6F8001B022893
:102CF00002D90320BDE8F88328688001F4D4E8688D
:102D00001E490840E8603BE00128F3D0E868226AE9
:102D100000F00301914226D1616A00F0F00209013E
:102D2000103991421FD1A26A00F4FE41B1EB022F8B
:102D300019D194F82C2000F07841B1EBC26F12D178
:102D4000218E00F4C00249084905A1F50011914205
:102D500009D194F8341000F0C06049084906A1F187
:102D6000007181420CD00120C4E700000010024035
:102D700028000020007000400C809F01FCFFEEFE48
:102D80000020B7E770B50A4D286B40F001002863BA
:102D9000FFF792F8044606E0FFF78EF8001B0A28BA
:102DA00001D9032070BD286B0007F5D5002070BD48
:102DB0000000014003490A6B22F0020202430A6349
:102DC000704700000000014003490A6B22F0300206
:102DD00002430A63704700000000014010B5401E26
:102DE000B0F1807F01D3012010BD4FF0E02460617D
:102DF0000F21601701F0D1FA0020A06107202061A7
:102E0000002010BD90F88410012918D0012180F80D
:102E100084102421C0F8881001680A680B6823F028
:102E200001030B6022F00051002242660368196022
:102E30002021C0F8881080F88420104670470220B6
:102E400070477047704770B5044690F884000128B9
:102E50001DD0012084F884002420C4F88800206854
:102E60000568026822F0010202602068826822F090
:102E700060620A438260204600F064FF20680560BB
:102E80002020C4F88800002084F8840070BD02204F
:102E900070BD70B5044690F8840001281DD0012053
:102EA00084F884002420C4F888002068056802683B
:102EB00022F0010202602068826822F060420A4328
:102EC0008260204600F03EFF206805602020C4F8A4
:102ED0008800002084F8840070BD022070BD704717
:102EE000704770472DE9F04103680446D8691968B6
:102EF0009A6840F60F0528424FF000054FF0020691
:102F00000AD187067ED501F0200702F0805C57EADF
:102F10000C0777D0616F3AE1B24FDFF8CCC21740AF
:102F200001EA0C0C57EA0C0C6CD05FEAC07C0CD0A8
:102F30005FEAC15C09D54FF0010CC3F820C0D4F89A
:102F4000903043F00103C4F89030830709D5D307CC
:102F500007D023681E62D4F8903043F00403C4F80D
:102F6000903043070AD5D30708D02668042333627C
:102F7000D4F8903043F00203C4F8903003070CD526
:102F800001F020033B4308D0266808233362D4F8BD
:102F9000903043F00803C4F8903003050BD54B0183
:102FA00009D526684FF400633362D4F8903043F0BB
:102FB0002003C4F89030D4F89030002B3DD0800628
:102FC00009D501F0200002F08051084303D0616F61
:102FD00009B120468847D4F89000216889684906DD
:102FE00002D410F0280F2AD0204600F0DFFF20681E
:102FF000806840061ED52068083050E8001F21F088
:10300000400100E021E040E80012002AF3D1D4F8AA
:10301000800078B175498163D4F88000FEF7E3FC45
:1030200000280AD0D4F88000816B00E02046BDE87B
:10303000F04108472046FFF754FFBDE8F0812046E5
:10304000FFF74FFFC4F89050F7E7D4F86CC0202783
:10305000BCF1010F7ED15FEAC06C7BD55FEAC16C29
:1030600078D51020186220688068400645D5D4F8CD
:103070008010086840680004000CDED0B4F85C20C2
:103080008242DAD9A4F85E000868006880062CD471
:10309000216851E8000F20F4807041E80002002A06
:1030A000F6D12068083050E8001F21F0010140E807
:1030B0000012002AF5D12068083050E8001F21F0E6
:1030C000400140E80012002AF5D1C4F88C70E56692
:1030D000206850E8001F21F0100140E80012002A8B
:1030E000F6D1D4F88000FEF749FC2667B4F85C00FE
:1030F000B4F85E10401A81B230E0B4F85C00B4F865
:103100005E10401A81B2B4F85E00002895D0002904
:1031100093D0226852E8000F20F4907042E8000338
:10312000002BF6D12F4BDB432068083050E8002FEE
:103130001A4040E8002CBCF1000FF5D1C4F88C70A7
:10314000E5666567226852E8000F20F0100042E84B
:10315000000300E006E0002BF4D126672046FFF7CD
:1031600070FE6AE7C60209D5560207D54FF48010F3
:1031700018622046BDE8F041FFF7B2BE03060AD54B
:1031800001F0800302F40002134304D0A16F002970
:103190007FF44CAF51E7420611D54A060FD52046C1
:1031A000026852E8001F21F0400142E80013002BA2
:1031B000F6D1C0F88870856700F0FAF83DE70202A2
:1031C00006D54A0004D52046BDE8F041FFF787BE8A
:1031D000C001C6D50029C4DA2046BDE8F041FFF79A
:1031E00031BE00000100001020010004FD3E000877
:1031F00010B5040003D0D4F8880010B107E0012016
:1032000010BD002084F88400204600F027F8242018
:10321000C4F888002068016821F001010160A06AFB
:1032200010B1204600F0B0FD204600F001FF01285B
:10323000E6D02068416821F49041416020688168AF
:1032400021F02A0181602068016841F001010160DC
:103250002046BDE8104000F0FBBD000070B59CB0FA
:103260000646142115A8FDF7A5F954216846FDF777
:10327000A1F927493068884248D101200025CDE9CD
:1032800000056846FFF7B2F808B1FDF78DFC21494B
:10329000086E40F480400866086E00F480401A9082
:1032A000C86C40F00100C864C86C15A900F00100AA
:1032B0001A904FF4F05015900220CDE91605072022
:1032C000CDE918504FF09040FEF7CCFC134C12485B
:1032D0002060192060601020C4E902058020C4E944
:1032E00004052020C4E90650C00120622046FEF7F4
:1032F00013FC08B1FDF758FCF467002205212520D6
:10330000A662FEF7DBFF2520FEF7CAFF1CB070BDEA
:10331000003801400010024008000240A00A0020CE
:1033200070B50446D0F88800202801D0022070BD76
:1033300039B332B32165A4F85420A4F856200021F3
:10334000C4F890102120C4F88800E06FD8B1154B64
:10335000C362E36F14481863E36F14485863E06F67
:10336000134681632068E56F00F128022846216D2D
:10337000FEF732FC38B11020C4F890002020C4F8C9
:103380008800012070BD2168402008622068083054
:1033900050E8001F41F0800140E80012002AF5D1FA
:1033A000002070BD613F0008A33F0008113F0008E6
:1033B00070477047072930D2DFE801F00A10161C69
:1033C000222804000068D0F8841341F0010122E0B3
:1033D0000068D0F8841341F002011CE00068D0F8C6
:1033E000841341F0040116E00068D0F8841341F022
:1033F000080110E00068D0F8841341F010010AE0E1
:103400000068D0F8841341F0200104E00068D0F88F
:10341000841341F04001C0F88413704770B503680D
:103420001A68D3F8A0534C6922F0200226461443B0
:1034300024F0C002202E2BD08C69022C28D0032C23
:103440002BD0042C2ED022F0E00200BF22F4006426
:10345000CA69224322F480640A6A224322F0C064CB
:103460004A6A224322F000648A6A2243CC6A22F02C
:10347000404242EA840222F000544A6B096B224324
:1034800025F4803421431A600068C0F8A01370BD91
:1034900022F0C00242F02002D8E722F0800242F07F
:1034A0004002D3E722F0400242F08002CEE7000063
:1034B0002DE9F04F8024036804EBC117DC5924F098
:1034C0007044DC510568EC59E82303EBC1139E46B8
:1034D00055F803C0E42303EBC1139B4655F803A042
:1034E000D5F8A033566924F020043443202E24D08C
:1034F0009669022E21D0032E24D0042E27D024F446
:10350000D07400BF24F40066D469344324F4806688
:10351000146A344324F0C066546A344324F00066CD
:10352000946A344324F07046D46A3443566B24F4CE
:103530000034B6F1005F0FD010E024F4C07444F002
:103540002004DFE724F4807444F08004DAE724F0F8
:10355000800444F48074D5E744F4003424F0400837
:10356000946B2CF03F0C264644EA080424F480288F
:10357000946D44EA0804DFF8D08004EA0804D2F825
:10358000508048EA040992F83C40D2F8408004F0A8
:103590003F0444EA0C0424F0004448EA0408546C54
:1035A0002AF4807C44EA0C04D2F848C0BCF5606F71
:1035B00002D0BCF5F05F01D1402E03D124F4F054C9
:1035C0004CEA040424F48046D46C3443566D062936
:1035D00027D2DFE801F003090F151B21126B23F43A
:1035E000003343EA42031CE0126B23F4802343EAD6
:1035F000820316E0126B23F4002343EAC20310E0B7
:10360000126B23F4801343EA02130AE0126B23F4D3
:10361000001343EA421304E0126B23F4800343EAED
:10362000821345F80790056845F80E80056845F84F
:103630000B40D424026804EBC11156500068C0F856
:10364000A033BDE8F08F0000FFFF06FEFEE700EBB1
:103650008100006E00F0F84070478068C0F3C00041
:1036600070478068C0F3800070478068C0F38000B6
:103670007047C06810F4406F01D0002070470120EF
:103680007047042303EAD15310B518444369C1F3CA
:10369000045107248C40A3438A401343436110BD67
:1036A00000EB8100016E21F000411143016670477B
:1036B00030B58BB0002408940994202168460A9400
:1036C000FCF778FF22484FF0A041042501604FF439
:1036D0000031C0E9011485610121C460C0E90441E1
:1036E000047744770222026280F82440C4620463B3
:1036F00080F83810C46380F84040FDF77BFD08B1C6
:1037000072B6FEE708A912480894FDF74FFA08B10F
:1037100072B6FEE70F4800900620CDE901047F2035
:103720000594CDE9030569460948FDF7EFFA08B1AC
:1037300072B6FEE7084800900C20019069460448E4
:10374000FDF7E4FA002801D072B6FEE70BB030BDF9
:10375000B80000200800900C1000C01030B589B0EF
:1037600020216846FCF726FF2448234900240160F5
:103770004902C0E90114042585610121C460C0E942
:103780000441047744770322026280F82440C46233
:10379000046380F83810C46380F84040FDF72AFDC8
:1037A00008B172B6FEE7164800900620CDE9010484
:1037B0007F200594CDE9030569461048FDF7A6FA78
:1037C00008B172B6FEE70F4800900C2001906946E0
:1037D0000A48FDF79BFA08B172B6FEE70A48009066
:1037E0001220019069460548FDF790FA002801D0A3
:1037F00072B6FEE709B030BD000100502401002080
:1038000002003004040060080040C03A30B58BB0BC
:10381000002408940994202168460A94FCF7CAFE03
:103820001C481B4904250160C901C0E90114C4609A
:103830000461C0E90545047744770121016280F8FD
:103840002440C462046380F83810C46380F84040A8
:10385000FDF7D0FC08B172B6FEE708A90D48089440
:10386000FDF7A4F908B172B6FEE70B4800900620F8
:10387000CDE901047F200594CDE90305694605489B
:10388000FDF744FA002801D072B6FEE70BB030BD58
:1038900000040050900100202000F01430B589B0E1
:1038A00020216846FCF786FE19481849002401606B
:1038B0004FF40031C0E90114C46004250461C0E97B
:1038C0000545047744770121016280F82440C462F1
:1038D000046380F83810C46380F84040FDF78AFC28
:1038E00008B172B6FEE70B4800900620CDE901044E
:1038F0007F200594CDE9030569460548FDF706FAE2
:10390000002801D072B6FEE709B030BD00050050B6
:10391000FC0100200800900C30B589B020216846D9
:10392000FCF748FE19481849002401604FF40031A3
:10393000C0E90114C46004250461C0E905450477A9
:1039400044770121016280F82440C462046380F856
:103950003810C46380F84040FDF74CFC08B172B6E3
:10396000FEE70B4800900620CDE901047F20059476
:10397000CDE9030569460548FDF7C8F9002801D0DF
:1039800072B6FEE709B030BD0006005068020020A4
:1039900002003004214808B5816C41F004018164C3
:1039A000816C01F004010091816C41F0010181649E
:1039B000806C002200F00100009005210B20FEF732
:1039C0007DFC0B20FEF76CFC002205210C20FEF78D
:1039D00075FC0C20FEF764FC002205210D20FEF78B
:1039E0006DFC0D20FEF75CFC002205210E20FEF789
:1039F00065FC0E20FEF754FC002205210F20FEF787
:103A00005DFC0F20FEF74CFC002205211020FEF784
:103A100055FCBDE808401020FEF742BC00100240F3
:103A20002DE9F04F87B014216846FCF7C3FD4448E8
:103A3000C16C41F00401C164C16C01F00401059145
:103A4000C16C41F02001C164C16C01F020010591FD
:103A5000C16C41F00101C164C16C01F0010105912B
:103A6000C16C41F00201C164C16C01F00201059119
:103A7000C16C41F00801C164C06CDFF8C89000F06F
:103A800008000590002243F6FF714846FEF70EFA43
:103A900048F2F0074FF0904A002239465046FEF7B0
:103AA00005FADFF8A4B04CF2FF6800224146584600
:103AB000FEF7FCF9002204212448FEF7F7F94FF441
:103AC0000050009001250024CDE901546946484684
:103AD0000394FEF7C7F841F6FF700326CDE9000511
:103AE000CDE9024669464846FEF7BCF800970396C2
:103AF000CDE9015469465046FEF7B4F8CDF8008090
:103B00000396CDE9015469465846FEF7ABF8042008
:103B1000CDE90005CDE9024669460C48FEF7A2F85A
:103B20000B48416841F480314160416841F4003103
:103B30004160416841F40021416007B0BDE8F08F69
:103B4000001002400008004800040048000C004833
:103B50000000014010B5A4B00024189419941A94E0
:103B6000602168461B94FCF725FD1C211CA8FCF76E
:103B700021FD34483249C0E900148460FEF7D4F9CD
:103B800008B172B6FEE70C212E48FEF79BF908B18A
:103B900072B6FEE70A212B48FEF73AFA08B172B670
:103BA000FEE74FF6DF70CDE918040820CDE91A4092
:103BB00018AA06212348FEF74CFA08B172B6FEE7B0
:103BC0000094019401200294CDE9034008940594E7
:103BD000069407940D9409940A940B940C946A46E5
:103BE000062118481794FEF771FA08B172B6FEE77D
:103BF00018AA00211348FEF72CFA08B172B6FEE7A6
:103C00001C941CAA00210F482294FEF7A7FA08B1C1
:103C100072B6FEE7009401940F94109411940E94E0
:103C20001294149415946A46002106481694FEF7DF
:103C30004DFA002801D072B6FEE724B010BD000096
:103C400000680140F8020020174810B515490160CE
:103C50004FF4E1314160002181600C22C160C0E974
:103C600004129201C0E90621016241628162FFF7FC
:103C7000BFFA08B172B6FEE700210B48FFF709F959
:103C800008B172B6FEE700210748FFF7DCF808B17B
:103C900072B6FEE70448FFF7B5F8002801D072B607
:103CA000FEE710BD00380140F4030020FEE7FEE708
:103CB00010B5FEF795FA01F057FF012803D0BDE8D3
:103CC000104001F085BC10BD10B594B03821684695
:103CD000FCF770FC14210EA8FCF76CFC4FF400708C
:103CE000FEF71EFB01200090000401900220032437
:103CF000CDE907040D21CDE90A100C900D9009942F
:103D00006846FEF73DFE08B172B6FEE70F20CDE92A
:103D10000E040020109011904FF480601290032147
:103D20000EA8FEF7E3FC002801D072B6FEE714B03F
:103D300010BD00000248016841F470010160704745
:103D400088ED00E030B5416EB9B1026891689268C3
:103D5000C1F342610B4B520F9C5CE50003F1080478
:103D6000A25CB5FBF2F2A0F86A205A5C615CD2005A
:103D7000B2FBF1F1A0F8681030BD0121A0F86A1083
:103D8000F8E70000645F000890F82810090706D5DE
:103D900001684A68836B22F400421A434A6090F833
:103DA0002810C90706D001684A68C36A22F40032A5
:103DB0001A434A6090F82810890706D501684A68B6
:103DC000036B22F480321A434A6090F828104907A6
:103DD00006D501684A68436B22F480221A434A6080
:103DE00090F82810C90606D501688A68C36B22F4CA
:103DF00080521A438A6090F82810890606D5016817
:103E00008A68036C22F400521A438A6090F82810E2
:103E1000490611D501684A68436C22F480121A439E
:103E20004A60416CB1F5801F06D101684A68836C15
:103E300022F4C0021A434A6090F82810090606D5F9
:103E400001684A68C06C22F4002202434A6070474D
:103E50002DE9F84300260446C0F89060FEF72CF8E0
:103E60008046206800684FF0200500076FF07E470D
:103E700013D54346002229042046009700F024FA77
:103E800058B1216851E8000F20F0800041E800029D
:103E9000002AF6D1C4F8885021E020680068400765
:103EA00022D5434600224FF480012046009700F0BF
:103EB0000BFAC8B1216851E8000F20F4907041E876
:103EC0000002002AF6D12068083050E8001F21F0D7
:103ED000010140E80012002AF5D1C4F88C5084F8A2
:103EE00084600320BDE8F883C4F88850C4F88C507F
:103EF00044F86C6F666026760020F3E710B5806AA0
:103F00000021A0F85E10A0F85610FEF7EAFF10BDE1
:103F100070B5846AD4F88800D4F88C502168896818
:103F20004FF00006090606D5212804D1A4F85660F2
:103F3000204600F065F820688068400606D5222DEE
:103F400004D1A4F85E60204600F030F8D4F8900068
:103F500040F01000C4F890002046FEF7C2FF70BD8C
:103F600010B50146806A09680968890616D40021DF
:103F7000A0F856100168083151E8002F22F08002A5
:103F800041E80023002BF5D1026852E8001F41F000
:103F9000400142E80013002BF6D110BDFFF708FAEC
:103FA00010BD10B5806AFFF704FA10BD10B50268A5
:103FB00052E8001F21F4907142E80013002BF6D163
:103FC0000E4B0268083252E8001F194042E8001404
:103FD000002CF6D1C16E012908D1016851E8002FEB
:103FE00022F0100241E80023002BF6D12021C0F876
:103FF0008C100021C166416710BD0000FEFFFFEF7D
:10400000026852E8001F21F0C00142E80013002BB3
:10401000F6D10168083151E8002F22F4000241E88E
:104020000023002BF5D12021C0F888107047000034
:104030002DE9F0410446016880682269E369104374
:10404000626900251A431043DFF84CC20A68934B9B
:104050001A4002430A6020684168E26821F4405136
:10406000114341602168A069614501D0226A104373
:104070008A688B4B1A4002438A602068C16A626A70
:1040800021F00F011143C1628649236886488B42A3
:104090000DD1D0F8880010F0030006D0012867D0B9
:1040A000022854D0032851D164E001204FE07F4919
:1040B0008B420BD1D0F8880010F00C0047D00428B8
:1040C00045D0082852D00C2840D153E078498B4283
:1040D0000BD1D0F8880010F0300038D0102847D02D
:1040E000202843D0302831D144E072498B420BD193
:1040F000D0F8880010F0C00029D0402838D080289F
:1041000034D0C02822D135E06B498B420ED1D0F893
:10411000880010F440701AD0B0F5807F28D0B0F538
:10412000007F23D0B0F5407F10D123E063450DD14F
:10413000D0F8880010F4406009D0B0F5806F17D037
:10414000B0F5006F12D0B0F5406F13D010205B4A6D
:104150005B4F00264FF40041634539D160B102281E
:104160000DD004280DD0082831D10EE00220EEE752
:104170000420ECE70820EAE7FEF7A6FB03E011467F
:1041800003E0FEF7C5FB01007BD0606A37F8102022
:104190006768B1FBF2F007EB4703834269D8B0EBE5
:1041A000073F66D8002308461946FCF73FF9090285
:1041B00041EA106102027808101871413A46002362
:1041C000FCF734F93F4AA0F54071914257D950E0CD
:1041D000E3694FF6EF788B422BD1092849D2DFE80B
:1041E00000F005080D48254848480E00FEF76CFB16
:1041F00001E0FEF77BFB010001D142E01146606A5D
:1042000037F81000B1FBF0F04100606801EB50019D
:10421000B1FBF0F1A1F1100040452AD84FF6F07241
:1042200001EA0200C1F34201084328E0FEF770FBF7
:10423000E1E709281DD2DFE800F005080D1C1E1C6F
:104240001C1C0E00FEF740FB01E0FEF74FFB0100D7
:1042500001D116E01146606A37F81000B1FBF0F1A9
:10426000606801EB5001B1FBF0F0A0F11001414595
:1042700004D9012505E0FEF74BFBE8E780B2216891
:10428000C8600120A4F86A0024F8680F2846E66098
:104290002661BDE8F081000000800040F369FFCF97
:1042A000FFF4FF11003801400010024000440040BC
:1042B00000480040004C0040005000400024F40042
:1042C0004C5F0008FFFC0F002DE9F04799461746A8
:1042D0000D4604464FF00008089E33E0701C31D0B4
:1042E000FDF7EAFDA0EB0900B04218D8BEB1206886
:1042F0000168490726D5802D24D0402D22D0C169E0
:10430000C94309070DD4082505622046FFF74EFE74
:10431000C4F8905084F884800120BDE8F087032021
:10432000FBE7C069C04300050CD421684FF400606E
:1043300008622046FFF73AFE2020C4F8900084F877
:104340008480ECE72068C06935EA000004D00020D2
:10435000B842C3D00020E0E70120F9E740F20115A0
:10436000094C2E1D08492A46A1F53170FDF792FA35
:104370000549C4F801013246A1F5D270FEF7D0FF1D
:10438000012000F0C3F8EDE7980500200148FEF792
:10439000A9BD0000F4030020FEE70907090E00286C
:1043A00004DB00F1E02080F80014704700F00F00FB
:1043B00000F1E02080F8141D7047000070B506463B
:1043C000002400252146284600F082FD6D1CEDB238
:1043D000082DF7D302221C491C48FDF79BF91A4906
:1043E0001A480322091D6C30FDF794F91649174845
:1043F00001221439D830FDF78DF913490122123901
:104400001348FDF787F910491148012210396C3023
:10441000FDF780F90F4A002002F5487104EB001502
:1044200032F8103026F8153001EB450532F810301F
:10443000EB8221F81030401CC0B20828EED3641C77
:10444000E4B2102CBDD370BD14000020B8000020D1
:10445000FC01002088040020FDF7CAFEFFF734FCB1
:10446000FFF7DEFAFFF796FAFFF722F9FFF776F982
:10447000FFF7CCF9FFF712FAFFF74EFA1B481A497B
:10448000002401600471447144610121846101626E
:10449000FDF726FA08B172B6FEE7FFF7D5FBFFF786
:1044A00059FB1349DD20087012485621017080F82D
:1044B000014100F039F8104A0021104800F062F87C
:1044C0000F4C0D4A0021A06024320E4800F05AF82B
:1044D000094AE060483200210B4800F053F820619F
:1044E00000F034F8FEE7000000300240D402002063
:1044F00098050020A0060020E05E00085D4300084B
:1045000000000020F5090008B30A000810B5EFF319
:10451000058111B16FF0050403E0002408B100F03B
:10452000F7FE204610BD0000EFF3058010B16FF0DC
:10453000050070470448016811B14FF0FF30704723
:1045400001210160002070478800002010B5EFF3C2
:10455000058010B16FF0050010BD08480168012901
:1045600002D04FF0FF3010BD054A002182F8141D23
:104570000221016000F034FF002010BD88000020FF
:104580000BE000E02DE9FF414FEA01034FF0000589
:10459000EFF30581039549BB40B380271821002420
:1045A0004AB3166806B1344696691EB13146761E86
:1045B000382E02D21679F60703D0002004B0BDE8E9
:1045C000F081566906B1B708D2F808C0BCF1000FF7
:1045D0000DD0D5685C2D18D312693AB136B18DE88B
:1045E00006103A46214601F094FA03900DE0D66891
:1045F0005EB912694AB903AACDE90012BAB22146DE
:1046000001F05AFA012800D003950398D6E700007C
:104610002DE9F041134C0F460546E6682068001D61
:1046200000F042FD681C07D137B12168BDE8F041B8
:104630000D48091D00F088BD20683544B54245602D
:10464000216805D2A06BBDE8F041091D00F064BDF2
:10465000606B091D00F060FDA06A854200D2A56272
:10466000BDE8F08138000020F00F00202DE9F04176
:10467000054600F075FD2D4CA068401CA060206828
:104680002B4F10B1606930B32BE02560A068012882
:1046900027D1002606EB860007EB800000F02EFDF8
:1046A000761C382EF6D3234800F028FD214814301C
:1046B00000F024FD1F48283000F020FD1D483C304C
:1046C00000F01CFD1B48503000F018FD19486063D5
:1046D0001430A06305E02068E96AC06A884200D807
:1046E0002560606A401C60626864E86A21698842EB
:1046F00000D9206100EB800007EB8000291D00F04D
:1047000023FD00F04DFD606900280CD02068E96AA7
:10471000C06A884207D208494FF080500860BFF352
:104720004F8FBFF36F8FBDE8F0810000380000208D
:10473000400B0020A00F002004ED00E038B500F091
:104740000FFD104C2068C8B90F4800F0D7FC0E4888
:10475000143000F0D3FC0C48E060143020610A4BA8
:104760000020F03B009003F1500210210A2000F0DD
:1047700045FF206010B105A100F094FDBDE8384070
:1047800000F00EBD74000020F4100020546D725132
:104790000000000030B4026C0B46002A0BD0C16848
:1047A0001144C1608468A14201D30168C16030BC7A
:1047B0001846FBF7B2BE30BC70472DE9F041856B5F
:1047C000174604460026026C82B1C7B1E068FBF7C9
:1047D000A4FEE168206C091AE1602268914202D2CD
:1047E000A168081AE060022F16D017E02068A8B967
:1047F000A06801F031FA06460020A0600EE0606873
:10480000FBF78BFE216C606808446060A1688842F9
:1048100004D32068606001E005B16D1E6D1CA563C6
:104820003046BDE8F08110B5044690F8590058B103
:1048300001280CD002280FD0502080F31188BFF33C
:104840004F8FBFF36F8FFEE7206B00F0BDFC20465B
:10485000BDE8104000F0B8BC10BD000010484FF497
:104860004061420706D0C01D0D4920F00700411AE3
:10487000C1F540610B4A00230144C2E90003083935
:10488000183A21F0070111604B600B600B1AC0E968
:10489000001393604FF00040536050617047000078
:1048A000D4170020A4000020144E154CA6F29C47FB
:1048B0004FF08058DFF84C9012E000BF00F050FC41
:1048C000F068C568281D00F0EFFBA068401EA060DE
:1048D0006068401E606000F063FC2846FFF7A3FF9D
:1048E00060680028EAD138680128F9D9C9F8008041
:1048F000BFF34F8FBFF36F8FF2E70000DC0F002094
:104900003800002004ED00E070B51D46049C51B154
:10491000C4F80020C4E90F010121204600F0A2FEE6
:1049200084F84C5070BD2460F4E700002DE9F05F7E
:104930008846DDE90B941546834691009A460A9E07
:10494000A522206BFBF72EFE6FF00301206B01EB1D
:104950008501084420F00707780707D0502080F32E
:104960001188BFF34F8FBFF36F8FFEE70025B8F1BB
:10497000000F0FD05FF00000221818F8001082F826
:10498000341018F8001011B1401C1028F4D384F82A
:10499000435001E084F83450382E00D33726E662C5
:1049A000C4E91365201D00F0B4FB04F1180000F009
:1049B000B0FB2461C6F138006462A061656584F8CB
:1049C000585052465946384600F05AFA2060B9F11C
:1049D000000F01D0C9F80040BDE8F09F30B5114983
:1049E00000E011460A688242FBD34B685C1884429F
:1049F00003D1406818444860084643681C18944234
:104A000009D1084C183C2468A24209D052681A44C3
:104A100042600A6812680260814200D0086030BDBE
:104A20000460F9E7A400002070B5002441600B4D3C
:104A30000061914206D8D11A8269914206D2011DC5
:104A4000286907E09A4203D2994201D3012403E086
:104A5000011DE86800F060FB204670BD7400002076
:104A600010B5044600F07CFBA06B28B15FF0000499
:104A700000F096FB204610BD0124F9E730B589B05F
:104A80003C4D6EE00498002806DADDE90601059A3F
:104A900090470498002864DB069C606910B1201DD3
:104AA00000F002FB03A800F0D7F8024604980A2899
:104AB00057D2DFE800F00505052D334A05052D33F3
:104AC00094F8280040F0010084F828000599A069B6
:104AD000059B01442046FFF7A7FF68B3216A2046E3
:104AE000884794F8280040073BD50020009005989F
:104AF000A169002342181946204601F0B7F9D8B938
:104B0000502080F31188BFF34F8FBFF36F8FFEE704
:104B100014F8280F20F00100207022E094F82800FB
:104B200040F0010084F828000598A06128B18118A0
:104B300013462046FFF778FF13E0502080F31188DA
:104B4000BFF34F8FBFF36F8FFEE794F82800810704
:104B500003D4204600F038FB03E020F0010084F885
:104B60002800002204A9286800F0D0FE002889D17E
:104B700009B030BD740000202DE9FC410F46054608
:104B800000F072FC01A800F067F80446019818B123
:104B900001F0DAF8BDE8FC81254EAFB1306900685C
:104BA000D0B30027291B3A46306800F08FFB01F094
:104BB000CBF80028EED11F494FF080500860BFF3BA
:104BC0004F8FBFF36F8FE5E7A542EBD801F0BCF83C
:104BD000F0682746C068C468201D00F065FA94F8A4
:104BE0002800410719D5A0692B4641193A462046AD
:104BF000FFF71AFFA8B100200346014600902A469D
:104C0000204601F033F960B9502080F31188BFF3DA
:104C10004F8FBFF36F8FFEE707E020F0010084F8AD
:104C20002800216A20468847B4E70127BAE7000038
:104C30007400002004ED00E00648416B096829B1CA
:104C4000416BC968C9684968816270474FF0FF319C
:104C5000FAE700003800002070B5054600F092FF2A
:104C6000064E0446B068844203D200F009F80120E1
:104C700000E0002028602046B46070BD7400002071
:104C8000F8B5194D20E0C068C4680668201D00F022
:104C90000BFA216A2046884794F82800400713D56C
:104CA000A0693044B04206D924616060211DE868E3
:104CB00000F032FA08E00020034601460090324638
:104CC000204601F0D3F838B1E86801680029DAD14C
:104CD0002969C5E90310F8BD502080F31188BFF39E
:104CE0004F8FBFF36F8FFEE77400002008484068C5
:104CF000401C4FF0500080F3118804D0BFF34F8F59
:104D0000BFF36F8FFEE7BFF34F8FBFF36F8FFEE7E9
:104D1000AC000020074CE068016841B1C068002188
:104D2000D0F80000FFF728FFFFF7A8FEF3E7012106
:104D30000020F7E7740000202DE9F041044600F060
:104D40000FFA94F9455004F1240609E0606A48B16D
:104D5000304600F0C1FF08B100F008FB6D1E6DB2D7
:104D6000002DF3DC4FF0FF3684F8456000F018FAB0
:104D700000F0F6F994F9445004F1100709E02069B5
:104D800048B1384600F0A8FF08B100F0EFFA6D1EF8
:104D90006DB2002DF3DC84F84460BDE8F04100F012
:104DA000FFB900002DE9F0410546002700F05CFB4B
:104DB000324E306808B9FFF751FD706905424ED197
:104DC000C5B3083568070ED005F00700C0F108002C
:104DD0000544680707D0502080F31188BFF34F8F38
:104DE000BFF36F8FFEE72DB37068854237D8234835
:104DF000183001460C6801E020460C466168A94263
:104E000002D221680029F7D131688C4227D0076887
:104E10002168016060680837411B10290FD96019AB
:104E2000420708D0502080F31188BFF34F8FBFF3A3
:104E30006F8FFEE713E041606560FFF7CFFD6168AB
:104E40007068401A7060B268904200D2B0607069B9
:104E500001430020C4E90001F068401CF06000F04C
:104E600073FF780707D0502080F31188BFF34F8F6E
:104E7000BFF36F8FFEE73846BDE8F0818C0000205D
:104E800010B5031F4FF080741C601B1F21F001013F
:104E90001960191F044B0B6014390A60091F6FF069
:104EA000020244380A6010BDED4C000810B50446FB
:104EB0000420FBF765FA04F001010170C4F340011E
:104EC0004170C4F380018170C4F3C001C17010BD92
:104ED0002DE9F04707460846FFF7E8FF0446584D1E
:104EE000584E4FF090404FF400494FF480684FF413
:104EF000007A082F2CD2DFE807F0041630425467FE
:104F00007B8F227804212846FCF7D0FF62780821A5
:104F10002846FCF7CBFFA27801212846FCF7C6FF04
:104F2000E278022189E0227880218046FCF7BEFFEA
:104F3000627840214046FCF7B9FFA2782021404624
:104F4000FCF7B4FFE27810214FEA0800FCF7AEFF4F
:104F50002046BDE8F047FBF742BA227840213046B0
:104F6000FCF7A4FF627880213046FCF79FFFA2780F
:104F700010213046FCF79AFFE27820214AE022789F
:104F800001213046FCF792FF627802213046FCF79F
:104F90008DFFA27810212846FCF788FFE2782021B7
:104FA0004BE0227880212846FCF780FF6278402180
:104FB0002846FCF77BFFA27849463046FCF776FF8F
:104FC000E2784FF4804125E0227804211E48FCF766
:104FD0006DFF627808213046FCF768FFA2784FF435
:104FE00080512846FCF762FFE2784FF4006124E02C
:104FF00022784FF400512846FCF758FF62780421CC
:105000003046FCF753FFA27841463046FCF74EFF8E
:10501000E2785146304699E722784946FCF746FF48
:10502000627841462846FCF741FFA2784FF4807130
:105030002846FCF73BFFE2785146284686E7000009
:105040000008004800040048000C004870B50D46F8
:1050500006460024204600F00CF806EB441105EB50
:1050600040102022FBF759FA641CE4B2082CF1D35B
:1050700070BD082815D2DFE800F00406080A0C0EFF
:105080001012072070470620704701207047052046
:1050900070470420704702207047002070470320AB
:1050A00070474FF0FF307047D0E9013201699A60D4
:1050B000D0E901235A604A68824201D182684A607D
:1050C000002202610868401E0860086870470000FE
:1050D000034B036003F15C000860802010607047A0
:1050E0001C110020044B036003F15C0008604FF4C6
:1050F00080701060704700007813002000F10801F4
:105100004FF0FF32C0E90112C1600161002101606E
:10511000704700210161704730B50B685A1C02D0FE
:1051200000F1080202E0026904E0224654682568A2
:105130009D42FAD953684B6099608A60516008615A
:105140000168491C016030BD42684A6093688B6009
:1051500093685960916008610168491C016070475B
:10516000502080F31188BFF34F8FBFF36F8F0A4930
:105170004868401C486001280CD10848006810F0BD
:10518000FF0F07D0502080F31188BFF34F8FBFF37C
:105190006F8FFEE770470000AC00002004ED00E0D8
:1051A0000849486828B1401E486001D180F3118841
:1051B0007047502080F31188BFF34F8FBFF36F8F7C
:1051C000FEE70000AC00002070B500282AD0164D84
:1051D000A0F1080460686969084207D1502080F393
:1051E0001188BFF34F8FBFF36F8FFEE722683AB18C
:1051F000502080F31188BFF34F8FBFF36F8FFEE70E
:105200008843606000F030F960686968084468604D
:105210002046FFF7E3FB2869401C2861BDE8704089
:1052200000F092BD70BD00008C0000204FF0E02027
:1052300000210161816105494FF47A720968B1FB6F
:10524000F2F1491E416107210161704734000020DD
:1052500010B5FBF771F8114910280ED300F1E020CA
:1052600090F8F0030A78904207D2502080F311881A
:10527000BFF34F8FBFF36F8FFEE70948006889685F
:1052800000F4E060884207D9502080F31188BFF312
:105290004F8FBFF36F8FFEE710BD0000AC00002002
:1052A0000CED00E010B5084B002200BF53F832406F
:1052B0001CB1521C082AF9D310BD43F8321003EB7D
:1052C000C201486010BD0000000B002070B51546FB
:1052D0000E460446FFF744FF94F944100020491C91
:1052E00001D184F8440094F94510491C01D184F897
:1052F0004500FFF755FFA06B28B92A46314604F157
:10530000240000F051F82046BDE87040FFF714BDBE
:1053100010B5020014D00F48006B38B1502080F354
:105320001188BFF34F8FBFF36F8FFEE700F09CF83B
:1053300000211046FFF76CF900F006FD002807D1A8
:1053400005494FF080500860BFF34F8FBFF36F8F58
:1053500010BD00003800002004ED00E002490A6A98
:105360000260C9684160704738000020014901208F
:10537000C86170473800002010B50C4650B109498B
:1053800009681831FFF7C8FE2046BDE8104001212A
:10539000FFF73EB9502080F31188BFF34F8FBFF362
:1053A0006F8FFEE73800002070B514460D4668B1D7
:1053B0000A4909681831FFF7C7FE0CB14FF0FF35F5
:1053C00021462846BDE87040FFF722B9502080F3FF
:1053D0001188BFF34F8FBFF36F8FFEE738000020B7
:1053E00030B587B00024039405AA04A903A8049447
:1053F000FFF76EFEDDE903010094CDE90110002303
:1054000015A11748059A00F084FB164D0028E862A4
:105410001FD000F0FBFC012809D0401C19D15020FE
:1054200080F31188BFF34F8FBFF36F8FFEE75020DB
:1054300080F31188BFF34F8FBFF36F8F4FF0FF30B2
:10544000A86201206861EC6007B0BDE8304000F060
:1054500045B807B030BD000049444C45000000008D
:10546000A9480008380000200248016B491C01636C
:105470007047000038000020164810B5016B11B1CC
:105480000121C16110BD0021C1610169124A01E021
:10549000B9B1491E01EB810352F82330002BF7D03C
:1054A00001EB810302EB830202F1080453685B689D
:1054B0005360A34201D15B685360DA680260016106
:1054C00010BD502080F31188BFF34F8FBFF36F8F53
:1054D000FEE7000038000020400B00201CB53748D4
:1054E0000168374A914207D1502080F31188BFF3F9
:1054F0004F8FBFF36F8FFEE700683149491E884226
:1055000007D1502080F31188BFF34F8FBFF36F8F07
:10551000FEE72C4908780190FF20087008788DF884
:1055200000009DF800009DF8002000F0F00090427F
:1055300007D0502080F31188BFF34F8FBFF36F8FD8
:10554000FEE79DF80000204C00F05000207007207E
:10555000A06005E09DF8002052008DF80020401E5C
:105560009DF800201206F5D4A060032807D0502033
:1055700080F31188BFF34F8FBFF36F8FFEE74FF4B7
:105580004070A060019808700C482030016841F418
:1055900070010160016841F070410160FFF746FE53
:1055A00000206060FAF790FE0848016841F0404131
:1055B0000160FAF775FE00201CBD000000ED00E060
:1055C00071C20F4100E400E0AC00002034EF00E0C5
:1055D00010B5502080F31188BFF34F8FBFF36F8F4A
:1055E00000F0D6FA18B104494FF08050086000204E
:1055F00080F3118810BD000004ED00E038B5049D73
:1056000018B153B1CAB181B120E0502080F31188A4
:10561000BFF34F8FBFF36F8FFEE7502080F31188E9
:10562000BFF34F8FBFF36F8FFEE7502080F31188D9
:10563000BFF34F8FBFF36F8FFEE739B1502080F378
:105640001188BFF34F8FBFF36F8FFEE750241C46C6
:10565000012384F846302B460094FFF755F9204685
:1056600038BD000070B50D46040025D0FFF778FD69
:10567000D4E90F20216802FB0011A1600021A16381
:10568000216861600A46D4E90F01401E00FB012138
:10569000E16021464FF0FF3001F8440F487004F1FB
:1056A00010008DB1FFF72AFD04F12400FFF726FD5D
:1056B000FFF776FD012070BD502080F31188BFF305
:1056C0004F8FBFF36F8FFEE721690029F0D000F004
:1056D00003FB0028ECD004494FF080500860BFF372
:1056E0004F8FBFF36F8FE3E704ED00E02DE9FF4735
:1056F00082B01D468A464FF00008040003D0BAF17C
:10570000000F08D011E0502080F31188BFF34F8FB5
:10571000BFF36F8FFEE7206C38B1502080F3118803
:10572000BFF34F8FBFF36F8FFEE7022D0AD1E06BFF
:10573000012807D0502080F31188BFF34F8FBFF3AB
:105740006F8FFEE700F010FA3F4F4FF000094FF067
:10575000805648B9049838B1502080F31188BFF3BF
:105760004F8FBFF36F8FFEE7FFF7FAFCA06BE16B83
:10577000884207D3022D05D00498D0B1B8F1000FAC
:105780001AD01EE02A4651462046FFF716F8616AF5
:1057900019B104F1240000F09FFA20B13E60BFF37C
:1057A0004F8FBFF36F8FFFF7FBFC012006B0BDE802
:1057B000F087FFF7F5FC22E06846FFF7CFFD4FF0DA
:1057C0000108FFF7EDFCFFF74FFEFFF7C9FC94F966
:1057D0004400401C01D184F8449094F94500401CD9
:1057E00001D184F84590FFF7DBFC04A9684600F07E
:1057F00029F930B12046FFF79FFA00F0A5FA002002
:10580000D4E7FFF7ADFCA06BE16B884213D1FFF743
:10581000C7FC04F110000499FFF7AEFD2046FFF726
:105820008BFA00F091FA00289ED13E60BFF34F8FB3
:10583000BFF36F8F98E7FFF7B3FC2046FFF77CFAC2
:1058400000F082FA90E7000004ED00E02DE9F04757
:105850001F4690468946040003D0B9F1000F08D0D6
:1058600011E0502080F31188BFF34F8FBFF36F8F8B
:10587000FEE7206C38B1502080F31188BFF34F8FC2
:10588000BFF36F8FFEE7022F0AD1E06B012807D02C
:10589000502080F31188BFF34F8FBFF36F8FFEE767
:1058A000FFF7D6FC5020EFF3118680F31188BFF389
:1058B0004F8FBFF36F8FA06BE16B884206D3022F2F
:1058C00004D0002086F31188BDE8F08794F9455094
:1058D000A06B3A4649462046FEF76FFF681C04D08D
:1058E0006D1C84F845500120ECE7606A0028FAD06E
:1058F00004F1240000F0F0F90028F4D0B8F1000F12
:10590000F1D00121C8F80010EDE700002DE9F747BC
:10591000002683B08A46040003D0BAF1000F08D0F5
:1059200011E0502080F31188BFF34F8FBFF36F8FCA
:10593000FEE7206C38B1502080F31188BFF34F8F01
:10594000BFF36F8FFEE700F00FF9DFF8F4804FF040
:1059500000094FF0805748B9059838B1502080F3BE
:105960001188BFF34F8FBFF36F8FFEE7FFF7F8FB90
:10597000A56BC5B151462046FEF70CFF6D1EA56311
:10598000206950B104F1100000F0A6F928B1C8F860
:105990000070BFF34F8FBFF36F8FFFF701FC012043
:1059A00006B0BDE8F087059808B11EB106E0FFF724
:1059B000F7FB27E06846FFF7D1FC0126FFF7F0FB75
:1059C000FFF752FDFFF7CCFB94F94400401C01D1D6
:1059D00084F8449094F94500401C01D184F8459026
:1059E000FFF7DEFB05A9684600F02CF800282046EA
:1059F0000AD0FFF7A1F900F0A7F92046FFF730F829
:105A00000028B3D00020CBE7FFF72AF890B104F1CB
:105A100024000599FFF7B0FC2046FFF78DF900F050
:105A200093F90028A2D1C8F80070BFF34F8FBFF3DD
:105A30006F8F9BE72046FFF77FF900F085F995E728
:105A400004ED00E02DE9F0410C46050011D0C4B191
:105A5000FFF786FB174BDA686E682068911B471CBE
:105A600017D02F681B6A9F4219D0964217D801247D
:105A700010E0502080F31188BFF34F8FBFF36F8F7A
:105A8000FEE7502080F31188BFF34F8FBFF36F8F75
:105A9000FEE70024FFF784FB2046BDE8F081884242
:105AA00005D9401A20602846FFF758FCF1E700208E
:105AB0002060DCE7380000202DE9FF5F8346DDE948
:105AC0000E87994616468A469000FFF76BF9050047
:105AD0001CD05C20FFF766F9040014D00020256379
