:020000040800F2
:10000000707D002081020008334A00081542000874
:10001000314A00082D090008315300080000000093
:10002000000000000000000000000000EB4A000893
:10003000390C000800000000354A0008ED4A0008AD
:100040009B0200089B0200089B0200089B0200081C
:100050009B0200089B0200089B0200089B0200080C
:100060009B0200089B0200089B020008CD090008C3
:10007000D9090008E5090008F1090008FD09000890
:10008000090A00089B0200089B0200089B02000866
:100090009B0200089B0200089B0200089B020008CC
:1000A0009B020008714B00089B0200089B0200089D
:1000B0009B0200089B0200089B0200089B020008AC
:1000C0009B0200089B0200089B0200089B0200089C
:1000D0009B020008255300089B0200089B020008B1
:1000E0009B0200089B0200089B0200089B0200087C
:1000F0009B0200089B0200089B0200089B0200086C
:100100009B0200089B0200089B0200089B0200085B
:100110009B0200089B0200089B0200089B0200084B
:100120009B0200089B0200089B0200089B0200083B
:100130009B0200089B0200089B0200089B0200082B
:100140009B0200089B0200089B020008253C000857
:10015000313C0008513C0008753C00089B02000837
:100160009B020008193C00089B0200089B02000843
:100170009B0200089B0200089B0200089B020008EB
:100180009B0200089B0200089B0200089B020008DB
:100190009B020008000000009B0200089B02000870
:1001A0009B0200089B0200089B0200089B020008BB
:1001B0009B0200089B0200089B0200089B020008AB
:1001C0009B0200089B0200089B0200089B0200089B
:1001D0009B0200089B02000800F002F800F040F8C3
:1001E0000AA090E8000C82448344AAF10107DA4592
:1001F00001D100F035F8AFF2090EBAE80F0013F0A4
:10020000010F18BFFB1A43F001031847F09B0100D0
:10021000109C0100103A24BF78C878C1FAD8520760
:1002200024BF30C830C144BF04680C607047000070
:100230000023002400250026103A28BF78C1FBD8EF
:10024000520728BF30C148BF0B6070471FB506F08A
:1002500043FB9DE8030000F0BDF91FBD10B510BDC4
:1002600000F024FA1146FFF7F1FF06F037F900F02D
:1002700042FA03B4FFF7F2FF03BC00F073FA000088
:100280000948804709480047FEE7FEE7FEE7FEE72A
:10029000FEE7FEE7FEE7FEE7FEE7FEE70448054966
:1002A000054A064B70470000614B0008D901000861
:1002B00070770020707D0020707900207079002018
:1002C00070B5064600F06AF9056806F10B0020F0EB
:1002D0000704B4429CBF002070BD2B466A68BAB1C7
:1002E0001068A04210D304F1080188423CBF506856
:1002F000586007D35168101941601168091B0160EB
:1003000058601460101D70BD13465268002AE7D172
:100310002146284600F04AF90028DED170BD70B5AC
:100320000446051F00F03AF90068002C14BF446829
:1003300070BD002C18BFAC423CBF20466468F8D3A7
:1003400001680A18AA4218BF456003D12A68054609
:100350001144016028684119A1421CBF6C6070BD46
:100360006168696021680844286070BD53EA020C26
:1003700000F069802DE9F04B4FF00006002B1FBF05
:10038000B3FA83F503FA05F424FA05F65E4012BFCA
:100390001643B2FA82F502FA05F4C5F120051EBF34
:1003A00022FA05FC44EA0C04203556EA044C4FEAD4
:1003B000144418BF641C4FF000084FF0000990422D
:1003C00071EB030C39D3002919BFB1FA81F701FA97
:1003D00007F6B0FA80F700FA07F6C7F120071EBF4C
:1003E00020FA07FC46EA0C062037B6FBF4FCA7EB24
:1003F0000507103F07F01F0BCBF120060CFA0BFB93
:100400002CFA06F644BFB3460026202FA4BF5E4652
:100410004FF0000B5BEA060C08BF4FF0010B19EB25
:100420000B09ABFB027C48EB0608C01B06FB02CCA9
:100430000BFB03CC71EB0C01C1E70B4602464146B6
:100440004846BDE8F08B13B54FF000004FF00001B7
:10045000AFF30080BDE81C407047032A40F23080B3
:1004600010F0030C00F0158011F8013BBCF1020FF5
:10047000624498BF11F801CB00F8013B38BF11F876
:10048000013BA2F1040298BF00F801CB38BF00F88D
:10049000013B11F0030300F02580083AC0F008800A
:1004A00051F8043B083A51F804CBA0E80810F5E7EE
:1004B000121D5CBF51F8043B40F8043BAFF30080D1
:1004C000D20724BF11F8013B11F801CB48BF11F846
:1004D000012B24BF00F8013B00F801CB48BF00F816
:1004E000012B704710B5203AC0F00B80B1E81850CE
:1004F000203AA0E81850B1E81850A0E81850BFF40E
:10050000F5AF5FEA027C24BFB1E81850A0E81850AC
:1005100044BF18C918C0BDE810405FEA827C24BF00
:1005200051F8043B40F8043B08BF7047D20728BF8E
:1005300031F8023B48BF11F8012B28BF20F8023BDD
:1005400048BF00F8012B70474FF0000200B513467A
:1005500094469646203922BFA0E80C50A0E80C50E3
:10056000B1F12001BFF4F7AF090728BFA0E80C5094
:1005700048BF0CC05DF804EB890028BF40F8042B8D
:1005800008BF704748BF20F8022B11F0804F18BFFA
:1005900000F8012B7047704770477047004870475C
:1005A00018770020704770477047704738B5044689
:1005B0000A4600206946AFF30080002808BF38BD16
:1005C00002460099204600F04FF8012038BD012076
:1005D00000F064B8F8B5AFF30080054600200C4683
:1005E000102000BF0646A819A0420DD93246694620
:1005F0000020AFF30080070008BF00F04FF800981C
:10060000A04218BF0546C419FFF7C8FF056007469A
:10061000F01D20F007004619284600F00AF8B44201
:1006200008BFF8BDA21B31463868BDE8F84000F0AD
:100630001BB800210160C0E901107047102070470D
:1006400010B500F00DF8006810BD10B5044600F0BC
:1006500007F8046010BD00000048704710770020C4
:100660000048704710770020034640688C460028F9
:1006700018BF88423CBF03464068F8D31868184446
:10068000884207D00CF1030020F00700001D411A3A
:10069000521A0146081D0A60FFF741BE10B500F06E
:1006A00039F8BDE8104000F02FB870477546FFF7E5
:1006B000D3FFAE4605006946534620F00700854645
:1006C00018B020B5FFF7EAFDBDE820404FF0000666
:1006D0004FF000074FF000084FF0000B21F007012A
:1006E000AC46ACE8C009ACE8C009ACE8C009ACE86D
:1006F000C0098D46704710B50446AFF30080204610
:10070000BDE81040FFF7B5BD002801D000F02AB8C1
:100710007047000010B5012805D0002103A000F0AB
:1007200027F8012010BD09A1F8E7000053494752FE
:10073000544D454D3A204F7574206F6620686561B1
:1007400070206D656D6F7279000000003A20486579
:100750006170206D656D6F727920636F7272757054
:100760007465640001491820ABBEFEE72600020054
:1007700070B505460C460A2000E06D1C00F011F82B
:1007800035B128780028F8D102E0641C00F009F89F
:1007900014B120780028F8D1BDE870400A20AFF3EA
:1007A000008008B569468DF800000320ABBE08BD87
:1007B00010B5846AE16D11F0500F06D0E16DC906E5
:1007C00025D5204600F06DFD10BDE06D40F40070B1
:1007D000E06520680168090716D503F02EFD78B1A1
:1007E0002068C068800400280ADBE06D20F4807077
:1007F000E065E06DC00403D4E06D40F00100E06509
:10080000204600F003FD10BDC0688007EBE7616D76
:10081000496BBDE81040084710B5806AC16D41F0D2
:100820004001C165016E41F00401016600F039FD2F
:1008300010BD10B5806A00F033FD10BDF8B5044658
:10084000002000902068816811F0010F4AD1816872
:10085000254A114237D18168D5432940491C81601E
:100860002068B0F1A04F02D02049884201D1204831
:1008700000E02048806800F0E07000020DD51E48BE
:100880001E490068B0FBF1F0401C00EB4000800006
:1008900000E0401E00900028FBD101F06DFB0646F1
:1008A0001BE0816811F0010F03D181682940491CC8
:1008B000816001F061FB801B02280ED9206800686E
:1008C000C043C00709D0E06D40F01000E065206E25
:1008D00040F0010020660120F8BD20680168C9438E
:1008E000C907DED10020F8BD3F00008000010050A4
:1008F000000300500007005050000020400D03008E
:10090000074910B5C868421C01D0401CC8600548A2
:1009100005F070FCBDE810400349024805F096BFA1
:100920000000002064000020C26B0020FEE70000F1
:1009300030B5002308E000BF01EB8304056824689C
:100940004FEA34442C605B1CB3EB520FF4D3D20754
:1009500003D0026831F8231011800068006830BDB0
:1009600070B500230DE000BF01EB83042588A67855
:100970006DBA2D04E47845EA062525430468256010
:100980005B1CB3EB920FEFD394071BD002F0030470
:10099000012C03D1066811F823503570022C05D1C3
:1009A00001EB83040568248864BA2C80D243920743
:1009B00008D101EB83020368118849BA1980917844
:1009C000026811700068006870BD0000014801F005
:1009D000A2B80000B0760020014801F09CB80000E9
:1009E000D0740020014801F096B800003075002056
:1009F000014801F090B8000090750020014801F016
:100A00008AB80000F0750020014801F084B80000A9
:100A1000507600200D4902688A4201D20C4901E05B
:100A20000B492031D2B21423083AB2FBF3F2436CE3
:100A300002F01F0223F0030319448164044980314A
:100A4000C164012191400165704700000804024023
:100A5000000802400179074A02EB81024265054A1B
:100A60004432491E826501F01F0201219140C16597
:100A700070470000FC08024030B5D0E913456560BE
:100A8000446D14B1D0E91645656090F8444004F017
:100A90001F050124AC40056C6C60046863608368CA
:100AA000102B036803D099600068C26030BD9A6063
:100AB0000068C16030BD0000094900B50020888091
:100AC000084BC870024600BF02EBC20000EB4000BA
:100AD00003EB800005F0FCFC521C802AF4DB00BD17
:100AE00016000020640100202DE9F041234B002274
:100AF0004FF4806130F8124000EE104A03EB82049C
:100B0000521CB8EE400A92B28A4284ED000AF1D338
:100B10001A48183805F02AFB194918B100208870C6
:100B2000BDE8F0810120887014490023154AA1F125
:100B3000180005F065FA134D002405F580564FF4B2
:100B4000007700BF05EBC40090ED000AD0ED010A6C
:100B500020EE000A00EEA00A04F0FBFB06EB840086
:100B6000641CA4B280ED000ABC42EBD3BDE8F041A6
:100B70004FF4006204490548FFF76FBC7C3F00203A
:100B8000160000207C4F00207C5F0020C86C0020F5
:100B900070B524480025202105700C01224B4FF62A
:100BA000FF70322601EBC10202EB420253F8222011
:100BB000B2FBF6F292B2824202D2A24200D91046B1
:100BC000491C3029EEDB502101EBC10202EB42024D
:100BD00053F82220B2FBF6F292B2824202D2502A9D
:100BE00000D91046491C5F29EEDB104CB0F5606F50
:100BF00009D22078FF2806D1A680252020700C4835
:100C00000C4905F0DDFAA088B0F5806F09D301200A
:100C10006070FF202070A580BDE870400548FFF798
:100C200063BF70BD1F00002064010020160000207B
:100C30000011002064370020704772B6FEE7000004
:100C40002DE9F04F044690F858009BB00F464FF046
:100C5000000B012812D0012084F8580000261796B6
:100C6000189620684FF0A048DFF81C91DFF81CA10F
:100C7000474D404506D12846009508E002201BB0AC
:100C8000BDE8F08F48450AD15046CDF800A003F0EA
:100C9000D0FA0090206803F0CCFA40B109E0E06D92
:100CA00040F02000E06584F858600120E7E70098F4
:100CB00050B1E06D40F02000E0654FF0010B00BF47
:100CC00084F858605846DAE720684146884201D0E7
:100CD000A84201D12F4800E02F48D7F800C02F4B81
:100CE00040F61F72BCF1000F2DD0D0F808C094F868
:100CF00038802CF4604C4CEA483CD7F804804CEA2D
:100D0000080CC0F808C0D4F800C08C4501D0AC4530
:100D100004D18968AB6801F0010109E0D9F8081035
:100D2000DAF8085001F0010105F001059B6829433C
:100D300003F001031943C3D1BB68396819438368C1
:100D4000934319431DE0876827F46047876027684D
:100D50008F4201D0AF4204D18968AB6801F0010134
:100D600009E0D9F80810DAF8085001F0010105F09F
:100D700001059B68294303F001031943A0D1816851
:100D8000914381609CE70000000400500005005082
:100D90000001005000030050000700500006005002
:100DA0002DE9F84F00270446009790F85800DFF827
:100DB0001C840D46B946012811D0012684F85860DC
:100DC000206803F032FA60B1E06D40F02000E06589
:100DD0005FF0010784F858903846BDE8F88F02208C
:100DE000FBE7D5E900210C23206803EA911318449E
:100DF000036B01F01F014FF01F0C0CFA01FCC2F352
:100E0000846223EA0C038A4013430363206803F0DF
:100E10000CFA8246206803F004FA5AEA00003CD13A
:100E2000AA6829682068B2F1004F37D003F00DFAA4
:100E30002068416921F00041416120686969C26808
:100E4000C2F3C102520091402A69042A31D000EB5A
:100E500082002B68026EDFF878C303F0F84302EAE1
:100E60000C020B431A4342F00041016622682869D4
:100E7000A96902EB8000026E22F080720A430266CA
:100E8000297F22682869012910D0002102EB800007
:100E9000026E22F000720A4302667DE0002203F037
:100EA000D4F92068416941F00041C5E74FF0007175
:100EB000ECE7002103F0AFF9400320684FF0000198
:100EC00072D003F0A8F990FAA0F0B0FA80F1286887
:100ED00042036ED090FAA0F0B0FA80F0814204D1C3
:100EE00000221146206803F0BFF90121206803F0B9
:100EF00092F9400320684FF001015DD003F08BF9B7
:100F000090FAA0F0B0FA80F12868420359D090FA24
:100F1000A0F0B0FA80F0814204D1002201212068C3
:100F200003F0A2F90221206803F075F9400320685C
:100F30004FF0020148D003F06EF990FAA0F0B0FA39
:100F400080F12868420344D090FAA0F0B0FA80F013
:100F5000814204D100220221206803F085F9032197
:100F6000206803F058F9400320684FF0030133D0A4
:100F700003F051F990FAA0F0B0FA80F1286842032A
:100F80002FD090FAA0F0B0FA80F0814204D1002274
:100F90000321206803F068F92068816811F0010FCF
:100FA00022D0ACE000E004E003F035F9C0F3846146
:100FB0008DE7C0F3846091E703F02DF9C0F38461FD
:100FC000A2E7C0F38460A6E703F025F9C0F38461CB
:100FD000B7E7C0F38460BBE703F01DF9C0F3846199
:100FE000CCE7C0F38460D0E72A7B296850F8B03F93
:100FF000C1F3120C23EA0C0302F0180C754A22FA12
:101000000CF20A4013430360E968414577D1286830
:1010100041031CD090FAA0F1B1FA81F1491C01F012
:101020001F0109294FEA403132D8002912D000BFF0
:1010300090FAA0F1B1FA81F101F1010101F01F0173
:1010400006FA01F609D100BFC0F3846109E0C0F3DC
:101050008461E3E7C0F38461EEE790FAA0F1B1FAAE
:1010600081F101F1010101F01F0146EA816102D124
:10107000C0F3846003E090FAA0F0B0FA80F000F1D1
:10108000010000F01F0000EB400041EA005132E097
:1010900000290ED090FAA0F1B1FA81F101F101011D
:1010A00001F01F0106FA01F606D100BFC0F384610A
:1010B00006E0C0F38461F1E790FAA0F1B1FA81F1A2
:1010C00001F1010101F01F0146EA816102D1C0F383
:1010D000846003E090FAA0F0B0FA80F000F1010023
:1010E00000F01F003C4A00EB400002EB005041EAD8
:1010F000000141F00071AA68206803F0A6F83748A3
:101100002B6803423FF466AE21684FF0A04C344890
:10111000344E354D614501D0A94201D1024600E06F
:1011200032469268DFF8C48002F0E072434503D093
:10113000DFF8BC80434521D15FEA02281ED4614517
:1011400006D02C4B99427FF445AEA94200D03046E0
:1011500042F40001826822F0E0720A43826026486D
:1011600026490068B0FBF1F0401C00EB4000800015
:1011700000E0401E00900028FBD12BE6DFF88080C5
:1011800043450FD15FEAC2180CD4A94202D11D4BCE
:101190009942F2D0614502D0A94200D0304642F0D7
:1011A00080710CE0DFF860804345E6D15302E4D45F
:1011B000A942E2D0614500D0304642F48001826805
:1011C00022F0E0720A43826004E6000000007F40E3
:1011D00000F0FF03FFFF0700000020FE0000088072
:1011E000000300500007005000010050000021C320
:1011F0001000C0900006005050000020400D030079
:10120000000052C700050050000084CB10B50368F1
:101210001E481D49B3F1A04F02780ED01C4CA342CA
:1012200014D100F110031C880C805C88CC809B8852
:101230008B8042F00201017010BD144B08331C88F2
:101240008C815B884B8042F00101F4E7114CA34292
:1012500006D10E4B9B1C1B88CB8142F00401EAE7B0
:101260000D4CA34206D1094B1B1D1B880B8142F07C
:101270000801E0E7094A9342DED1044A921D128830
:101280004A810121417010BD54000020000000205F
:1012900000010050000400500005005000060050FE
:1012A00070477047F8B54FF0000504002E460095D2
:1012B00002D0E06D10B107E00120F8BD204600F03B
:1012C00009F9266684F8586020688168C1F3407186
:1012D00019B18168734A1140816020688168C1F347
:1012E000007189B98168704A114041F08051816074
:1012F0006E486F490068B0FBF1F04000801C00E0D0
:10130000401E00900028FBD120688168C1F3007165
:1013100041B9E16D41F01001E165216E41F001013B
:101320002166012502F081FFE16DC90600D430B1CC
:10133000E06D40F01000E06501252846F8BDE06D45
:1013400020F4807040F00200E0652068816811F0B0
:10135000010F27D14FF0A043564A984201D0904246
:1013600004D19968966801F001010AE05249896840
:10137000524E01F00101B66806F001063143504EAD
:10138000B66806F0010631430CD1984201D0904274
:1013900001D14C4800E04C486168826822F47C121C
:1013A0000A438260E168E06B627F0843A16841EA1A
:1013B0004231084394F8241040EA0140012904D145
:1013C000218D424A02EB41410843E16A29B101F40F
:1013D0007871226B014342EA01002268D1683C4BDC
:1013E00019400143D16020680169626B21F04061BE
:1013F00011430161206802F014FF70BB207F94F854
:1014000038102268800340EA4100D16844F20203A8
:1014100099430143D16020690028206801690AD0FE
:1014200041F480310161206850F8C01F22696FF3D8
:101430000D01114307E021F480310161206850F86B
:10144000C01F6FF30D01016094F8400001280CD01B
:101450002068016921F001010161606901282068AB
:10146000016B21F00F0111D013E0D4E91101084301
:10147000D4E913121143084321680A6940F2FC734E
:101480009A43104340F001000861E6E7226A521EC9
:1014900011430163E06D20F0020040F00100E065BF
:1014A0004BE70000C0FFFF5FC0FFFF7F5000002040
:1014B000400D0300000100500004005000050050E2
:1014C0000006005000030050000700500000FEFF1F
:1014D0000740F0FF2DE9F04F9BB00746142115A8F7
:1014E000FFF732F854216846FFF72EF84FF4004119
:1014F000386800258A03A84EA84C4FF003084FF027
:10150000800A4FF480794FF4806BB0F1A04F10D077
:10151000A34B98427DD168461192009101F04EF89C
:1015200008B1FFF78AFB3068401C306001283BD0CF
:1015300042E068461192009101F040F808B1FFF7CF
:101540007CFB3068401C3060012807D1E06C40F41F
:101550000050E064E06C00F400501A90E06C40F041
:101560000100E064E06C179500F001001A900C2077
:10157000CDE9150815A94FF0904000F0CFFB8A4C3B
:10158000884820600520C4E901052020C4F8149093
:10159000C4E906B04FF4405020622046F1E07C657B
:1015A000A7621BB0BDE8F08FE06C40F40050E0642F
:1015B000E06C00F400501A90E06C40F00100E06430
:1015C000E06C00F001001A90E06C40F00200E06472
:1015D000E06CCDF8548000F00200CDE916851A9039
:1015E000444615A94FF0904000F098FB15A94FF420
:1015F000006081E831006D4800F090FB69486C4C58
:10160000143020602420C4E901052020C4F814907F
:1016100000E006E0C4E906B04FF4405020622046E6
:10162000AFE0644B9901CA03984236D168461292E2
:10163000009100F0C3FF08B1FFF7FFFA7068401C8B
:101640007060012807D1E06C40F48040E064E06CF9
:1016500000F480401A90E06C40F00200E064E06C1E
:10166000179500F002001A904FF40050CDE91508CC
:1016700015A94E4800F052FB4A484F4C28302060D4
:101680002520C4E901052020C4F81490C4E906B05F
:101690004FF440502062204673E0484B984236D1C8
:1016A00068461292009100F089FF08B1FFF7C5FA71
:1016B0007068401C7060012807D1E06C40F48040E5
:1016C000E064E06C00F480401A90E06C40F00200AE
:1016D000E064E06C179500F002001A904FF480501F
:1016E000CDE9150815A9314800F018FB2D48344CF8
:1016F0003C3020602620C4E901052020C4F8149065
:10170000C4E906B04FF440502062204639E02D4B2A
:1017100098427FF446AF68461292009100F04EFF67
:1017200008B1FFF78AFA7068401C7060012807D181
:10173000E06C40F48040E064E06C00F480401A907B
:10174000E06C40F00100E064E06CCDF8549000F0F3
:101750000100CDE916851A904E4615A94FF090402C
:1017600000F0DCFA0F48184C503020602720C4E904
:10177000010520206661C4E906B04FF440502062A4
:101780002046C4E9035A00F023FA00283FF407AFCB
:10179000FFF753FA03E7000020000020001002408A
:1017A000000100501C000240D074002000040048DA
:1017B0003075002000040050907500200005005096
:1017C000F075002000060050507600202DE9F0470B
:1017D000044600684FF0A0483D4F91468A46404578
:1017E00001D0B84201D13B4900E03B49896801F092
:1017F0001F0502F01AFD002868D194F8580001284E
:1018000064D0012084F8580034492068884201D10E
:10181000012000E00020401E28424FF0000605D0C5
:10182000052D03D0092D01D0012003E02046FFF74C
:1018300005F818B184F85860BDE8F087E06D40F60F
:101840000161884340F48070E0652068B84201D1AE
:10185000414605E02249884201D1224900E0014683
:10186000814200D01DB9E06D20F48010E065E06D8C
:10187000C00404D5206E20F00600206600E0266635
:10188000616D1948C862616D18480863616D184838
:10189000486321681C20086084F85860206841680B
:1018A00041F0100141602068C16841F00101C16050
:1018B00021684B4652464031606D00F0E9F92168DD
:1018C0008A680C4B1A40121D8A60B5E70220B3E704
:1018D00000010050000300500007005000060050B7
:1018E0000005005000040050B1070008330800084C
:1018F00019080008C0FFFF7FF0B504460020CB07A1
:1019000011D01E235FF0010603F01F0706FA07F54A
:101910000D4201D15B1EF7D27AB1082A0BD0102AF2
:1019200006D0182A01D00120F0BD072BFBD204E01D
:10193000082BF8D201E0102BF5D2236859612168F9
:101940008B6823F0180313438B60F0BD70B5044619
:1019500000200223637723689D6845F001059D60A0
:10196000236A012B0ED0022B10D0032B11D104E0DF
:10197000256851F820302B60401C9042F8D3206835
:10198000006806E02046FEF7EBFF02E02046FEF787
:10199000CFFF0121617770BD10B5040010D0607FCA
:1019A00020B900202077204600F030F80220607730
:1019B000207938B1D4E902122046FFF79DFF48B1E3
:1019C000012010BD2168104848612068816821F01D
:1019D000180181606079A0B12069216808612068E0
:1019E0008168626921F0600111438160206881682B
:1019F000A26921F0800111438160012060770020FD
:101A000010BD4FF0FF30E8E7B71DC10408B500680E
:101A10000649884208D10648816C41F480518164AE
:101A2000806C00F48050009008BD0000003002403F
:101A30000010024010B590F8253000210122022B41
:101A400003D00421C163012122E003681C6824F053
:101A50000E041C60836C1C6824F480741C60036892
:101A60001C6824F001041C6090F84430046C03F0FE
:101A70001F0302FA03F36360D0E913345C60436D23
:101A800033B11C6824F480741C60D0E916345C60A7
:101A900080F82520002280F82420084610BD70B56B
:101AA00090F82520002401212346022A07D0042291
:101AB000C26380F8251080F82430012429E00268F0
:101AC000156825F00E0515600268156825F00105FA
:101AD0001560826C156825F48075156090F84420B7
:101AE000056C02F01F0201FA02F26A60D0E91325C8
:101AF0005560426D32B1156825F480751560D0E9E6
:101B00001625556080F8251080F82430816B01B1CE
:101B10008847204670BDF0B4016C0C6801680D6800
:101B200090F8442002F01F06042202FA06F3234232
:101B300011D06B070FD50B689B0603D40B6823F0FD
:101B400004030B6090F8441001F01F018A40016CFF
:101B50004A60016B1DE0022303FA06F727424FF0AB
:101B6000000C4FF0010218D0AF0716D50C68A40680
:101B700005D40C6824F00A040C6080F8252090F845
:101B8000441001F01F018B40016C4B6080F824C0B1
:101B9000C16A00291AD0F0BC08470823B340234289
:101BA00014D02B0712D50B6823F00E030B6090F8AE
:101BB0004410036C01F01F0102FA01F15960C26385
:101BC00080F8252080F824C0416BE2E7F0BC704724
:101BD00070B504000CD02B4A21681420914209D220
:101BE000294A0A44B2FBF0F08000606427480AE00A
:101BF000012070BD234A52420A44B2FBF0F080003B
:101C00006064204808382064022084F825000A68AF
:101C100047F6F0708243D4E902031843D4E904354F
:101C20002B431843A3691843E3691843236A1843F5
:101C3000104308602046FEF7EDFEA0680025B0F5D1
:101C4000804F00D16560A16C20790860D4E9130150
:101C500041606068401E032808D82046FEF7FAFE5F
:101C6000606D0560D4E91601416002E06565A56517
:101C7000E565E563012084F8250084F82450002000
:101C800070BD000008040240F8FFFDBF00000240E4
:101C900070B5044690F82400002501280CD00120DE
:101CA00084F8240094F825600020012E06D084F8E2
:101CB00024000225284670BD022070BD022684F84B
:101CC0002560E0632068066826F00106066020466D
:101CD000FEF7D2FE206B00282068016802D041F098
:101CE0000E0106E021F0040101602068016841F066
:101CF0000A010160A06C0168C90303D5016841F4C1
:101D000080710160606D18B1016841F480710160FB
:101D10002068016841F001010160CBE72DE9F04F37
:101D2000DFF82092002301260324A9F1040B85B0DB
:101D30000F2709F1040AABF1040EFAE006FA03F5E5
:101D40002A407CD091F804C00CF0030CBCF1010FC8
:101D500002D0BCF1020F26D1D0F808C0CDF800C0E7
:101D60004FEA430C04FA0CF8CDF810C0DDF800C0BF
:101D70002CEA080CCDF800C0D1F80C80DDF810C0BA
:101D800008FA0CF8DDF800C048EA0C08C0F8088032
:101D9000D0F804C02CEA050C0D79C5F300159D4060
:101DA00045EA0C0545600D79ED43AD070ED0C568D9
:101DB0004FEA430804FA08FC25EA0C05D1F808C0EC
:101DC0000CFA08FC4CEA050CC0F80CC00D7905F0C3
:101DD0000305022D16D1DD0800EB850CCDF808C0F7
:101DE000DCF820805D074FEAD56C07FA0CF528EA8D
:101DF00005080D6905FA0CF5DDF808C045EA080587
:101E0000CCF8205005684FEA430CCDF808C004FA1E
:101E10000CFC25EA0C0591F804C00CF00308DDF871
:101E200008C008FA0CF848EA0508C0F800804D68B8
:101E300015F4403F7CD0444DD5F860C000E077E019
:101E40004CF0010CC5F860C02D6E23F0030C05F0BA
:101E5000010500953D4D65440295AD684FEA837CD0
:101E60004FEA1C7807FA08FC25EA0C05B0F1904F00
:101E700006D0DFF8DCC0604505D14FF0010C20E052
:101E80004FF0000C1DE0DFF8CCC0604502D14FF0F0
:101E9000020C16E0DFF8C0C0604502D14FF0030C21
:101EA0000FE0DFF8B8C0604502D14FF0040C08E045
:101EB000DFF8ACC0604502D14FF0050C01E04FF0F7
:101EC000060C0CFA08FC4CEA050C029DC5F808C08B
:101ED000D9F80050CC46D1F8048095435FEAC82871
:101EE00000D51543CCF80050DAF80050D446D1F8AC
:101EF000048095435FEA882800D51543CCF800504C
:101F0000DBF80050DC46D1F8048095435FEA88385E
:101F100000D51543CCF80050DEF80050F446D1F857
:101F2000048095435FEAC83800D51543CCF80050CB
:101F30005B1C0A6832FA03F57FF400AF05B0BDE818
:101F4000F08F000008040140001002400000014032
:101F50000004004800080048000C00480010004839
:101F6000001400480069084000D0012070470AB101
:101F70008161704781627047014880687047000046
:101F800028000020704770477047704770477047BF
:101F900070477047704710B590F8DC20012A21D0B7
:101FA000012280F8DC20022380F8DD304B1C1BD09E
:101FB0000368D3F8CC4344F00204C3F8CC4303686D
:101FC000D3F8CC4324F00C040C43C3F8CC43016891
:101FD000D1F8CC3343F00103C1F8CC3380F8DD20D5
:101FE000002010BD022010BD0168D1F8CC3323F0D1
:101FF0000203C1F8CC33EAE7704770477047704777
:10200000704770477047FF2903D0062903D001F0BD
:1020100080BF01F069BE01F004BF000038B50400C4
:1020200056D0022084F8DD000025C4F8E050C4F842
:10203000E450C4F8E850C4F8EC50C4F8F050C4F8C8
:10204000F450C4F8F850207AC0071BD0214920680A
:10205000884208D12048016E41F080610166006E1F
:1020600000F0806000902168086820F44042208AD7
:1020700000F44040104320F44052A08A00F4405045
:1020800010430860204600F029F8207A800708D520
:102090002168086820F44072A08900F44070104361
:1020A0000860012084F8DD0084F8DC505FF0000156
:1020B000C1EBC10004EB8000491C8561C56105626C
:1020C00045628562C9B205630629F1D9002038BD91
:1020D000012038BD006801400010024008B50068CA
:1020E0001B49884232D11B48016E41F08061016674
:1020F000006E002200F0806000900521432000F077
:10210000C5F9432000F0B4F900220521442000F075
:10211000BDF9442000F0ACF900221146452000F042
:10212000B5F9452000F0A4F900221146462000F040
:10213000ADF9462000F09CF900220521492000F06D
:10214000A5F9BDE80840492000F092B908BD00009B
:1021500000680140001002407047704770477047A8
:1021600070B50D460446FFF707FF064607E0681CFA
:1021700005D0FFF701FF801BA8420DD865B120688C
:10218000D0F88803C043C003F1D4012084F8DD00F7
:10219000002084F8DC0070BD072084F8DD000320F7
:1021A00070BD704770477047704770B590F8DD306C
:1021B000022B23D0022380F8DD30062920D0802393
:1021C000046803EBC115635923F007069368334392
:1021D00023F01806D368334363519425046805EB54
:1021E000C115136863519824036804EBC111526848
:1021F0005A50012180F8DD10002070BD022070BD12
:102200000368196821F007049168214321F018043C
:10221000D1682143196003681168596151680268E7
:102220009161E6E7F0B590F8DC20012A38D001246E
:1022300080F8DC40022280F8DD200268D2F890337A
:1022400045682B43C2F89033CA0305D50268D368AA
:10225000D0F8C8502B43D3600022DFF848C08C254B
:102260005CF822300B420CD0066805EBC213F7581D
:10227000C2EBC20E00EB8E0EDEF820E047EA0E073E
:10228000F750521CD2B2062AEAD3026813680B43F5
:10229000136080F8DD40002180F8DC100846F0BDB6
:1022A0000220F0BD340000202DE9F041044690F8F2
:1022B000DD0015460E46022826D094F8DC000128E1
:1022C00021D0012784F8DC70022084F8DD00062E7E
:1022D0001CD0204601F0D0FEC6EBC60004EB800007
:1022E0002968016269684162A9688162E968C1621E
:1022F000296901633146204601F0C2FC062E15D043
:10230000E86A40B112E00220BDE8F08111462046A3
:1023100001F03EFDE0E78021206801EBC611425844
:10232000EB6D22F4007242EA4322425084F8DD70E1
:10233000002084F8DC00E7E72DE9F041044690F83E
:10234000DD00022824D094F8DC0001281FD00125EC
:1023500084F8DC50022084F8DD00EC20266800EBD5
:10236000C113F058176820F0100040EA071020F45D
:1023700080175068384320F48037D068384320F401
:102380000037906838439769012F03D00CE0022092
:10239000BDE8F08120F004071069384320F00207FF
:1023A0005069384340F00100F050204601F068FCCD
:1023B00084F8DD50002084F8DC00E9E702488168F9
:1023C00042681144816070472800002010B5002445
:1023D000032000F07BF80F2000F008F808B101247A
:1023E00001E000F025F8204610BD000070B50E4E4B
:1023F00005460024706898B14FF47A71B1FBF0F093
:102400000A490968B1FBF0F000F01AFF40B9102D3D
:1024100006D200222946501E00F038F8356000E050
:102420000124204670BD000028000020500000203C
:102430000E4808B5016E41F001010166016E01F020
:1024400001010091816D41F080518165806D00F046
:1024500080500090002000F0E9FE00F0C5FE002052
:1024600000F0DAFEBDE8084000F0A0B8001002401D
:10247000002809DB00F01F02012191404009800083
:1024800000F1E020C0F8001170470000F0B40E4BDE
:102490001B680C46C3F30223C3F10705042D00D9C2
:1024A0000425191D072901D2002300E0DB1E0126A7
:1024B00006FA05F1491E214099409E40761E1640BD
:1024C0003143F0BC02F035BF0CED00E0064900F0EE
:1024D000070208684FF6FF03184040EA0220034A4B
:1024E00010430860704700000CED00E00000FA05A2
:1024F0002B492C4B0A6832214A432B4940B1B0F595
:10250000007F086829D020F4C06040F480602CE08F
:102510000868C0F34120022804D051F8800F20F44D
:10252000807022E0D1F8800020F48070C1F8800033
:10253000086820F4C06040F400700860B2FBF3F05B
:10254000401C00E0401E4A69520501D50028F9D11F
:10255000486940050AD503207047C0F3412002288E
:1025600006D051F8800F40F480700860002070475A
:10257000D1F8800040F48070C1F88000086820F431
:10258000C06040F400700860B2FBF3F0401C00E053
:10259000401E4A695205DBD50028F9D1D8E7000072
:1025A0005000002040420F00007000400248816847
:1025B00041F4804181607047007000402DE9F8438C
:1025C000044600680026BB4D00035ED5A86D0027B9
:1025D000C00008D4A86D40F08050A865A86D012700
:1025E00000F080500090DFF8D092D9F8001041F44C
:1025F0008071C9F80010FFF7BFFC804606E000BFFD
:10260000FFF7BAFCA0EB080002282BD8D9F800008D
:10261000C005F5D5D5F8900010F4407014D0216DA8
:10262000814211D0D5F89000D5F8901020F4407078
:1026300041F48031C5F89010D5F8901021F4803124
:10264000C5F89010C5F89000C00711D0FFF794FCB2
:10265000804641F2883907E0FFF78EFCA0EB0801C5
:10266000494501D903260BE0D5F890008007F3D542
:10267000D5F89000216D20F440700843C5F8900013
:102680001FB1A86D20F08050A8652078C00707D042
:10269000D5F88800616820F003000843C5F8880079
:1026A0002078800707D5D5F88800A16820F00C00B5
:1026B0000843C5F888002078400707D5D5F888007A
:1026C000E16820F030000843C5F888002078000752
:1026D00007D5D5F88800216920F0C0000843C5F867
:1026E00088002078C00607D5D5F88800616920F4F5
:1026F00040700843C5F888002078800607D5D5F8D3
:102700008800A16920F440600843C5F8880020785B
:10271000400607D5D5F88800E16920F44050084309
:10272000C5F888002078000607D5D5F88800216A0A
:1027300020F440400843C5F888002088C00507D52C
:10274000D5F88800616A20F440300843C5F8880055
:102750002068800307D5D5F89C00A16A20F003000B
:102760000843C5F89C002088800507D5D5F8880067
:10277000E16A20F440200843C5F88800208840051D
:102780000FD5D5F88800216B20F440100843C5F818
:102790008800206BB0F5801F03D1E86840F48010FA
:1027A000E860208800050FD5D5F88800616B20F41B
:1027B00040000843C5F88800606BB0F5800F03D176
:1027C000E86840F48010E8602088C0040FD5D5F890
:1027D0008800A16B20F040700843C5F88800A06B0A
:1027E000B0F1807F03D1E86840F48010E860208871
:1027F0004FF0006180040ED5D5F88800E26B20F020
:1028000040601043C5F88800E06B884203D1E86857
:1028100040F48010E860208840040ED5D5F8880088
:10282000226C20F040601043C5F88800206C88427C
:1028300003D1E86840F48010E860208800040FD5D8
:10284000D5F88800616C20F040500843C5F8880036
:10285000606CB0F1805F03D1E86840F48030E860DC
:102860002068C0030FD5D5F88800A16C20F0404047
:102870000843C5F88800A06CB0F1804F03D1E86828
:1028800040F48030E860206840030FD5D5F89C0004
:10289000E16C20F440100843C5F89C00E06CB0F5F2
:1028A000001F03D1E86840F48010E8603046BDE8BE
:1028B000F883000000100240007000402DE9F0474E
:1028C0000E4605004FF0000725D0DFF8AC81D8F8A0
:1028D000000000F00F00B0420CD2D8F8001021F038
:1028E0000F013143C8F80010D8F8000000F00F00C5
:1028F000B04210D12968614CC80741F2883A5AD0D9
:102900006868DFF87C91032808D0022820682DD061
:10291000400500282CDB0120BDE8F08720688001FD
:10292000F9D5E06800F00302E068C0F30310401C32
:10293000032A19D0534A00BFB2FBF0F0E268C2F399
:1029400006225043E268C2F34162521C5200B0FBBF
:10295000F2F0484517D9A06810F0F00F0CD08807A6
:1029600011D5A86840B10EE0474AE5E78003D0E7FB
:1029700000F0B6F8484506D9A06820F0F00040F015
:102980008000A0608027A068696820F003000843E9
:10299000A060FFF7F1FA814606E000BFFFF7ECFA0E
:1029A000A0EB090151453AD8A068696800F00C0015
:1029B000B0EB810FF2D12868810714D5400703D509
:1029C000A06840F4E060A0602878000705D5A06802
:1029D00020F4605040F4E060A060A068A96820F096
:1029E000F000084304E0802F03D1A06820F0F0003D
:1029F000A060D8F80010404601F00F01B14216D98E
:102A0000016821F00F0131430160FFF7B5FA074675
:102A100007E000BFFFF7B0FAC11B514501D9032001
:102A20007AE7D8F8000000F00F00B042F2D1287821
:102A3000400705D5A068E96820F4E0600843A0607D
:102A40002878000706D5A068296920F4605040EA7C
:102A5000C100A06000F044F8A1680C4AC1F3031162
:102A6000515C01F01F01C84009490860094800682D
:102A7000BDE8F047FFF7BABC00200240001002405A
:102A800000B4C4040024F40000127A00E49D01089C
:102A90005000002028000020054806490068896889
:102AA000054AC1F30221515C01F01F01C840704783
:102AB0005000002000100240F49D0108054806491E
:102AC00000688968054AC1F3C221515C01F01F0109
:102AD000C84070475000002000100240F49D0108DB
:102AE000184910B58868C0F381021748012A0BD035
:102AF0008A684310C2F38102022A06D08A68C2F3B0
:102B00008102032A03D0002010BD184610BDCA68F8
:102B100002F00304CA68C2F30312521C032C02D051
:102B2000B0FBF2F001E0B3FBF2F0CA68C968C2F38F
:102B300006225043C1F34161491C4900B0FBF1F04A
:102B400010BD0000001002400024F4002DE9F843FD
:102B500004007AD02078F84DC00747D0A868E9680B
:102B600000F00C0001F003010C2802D0082817D057
:102B700001E0032914D06068B0F5803F17D0B0F5AC
:102B8000A02F286817D020F480302860286820F40F
:102B9000802028606068E0B1FFF7EEF9064614E097
:102BA0002868800322D560680028D2D01EE02868FB
:102BB00040F48030EDE740F480202860F7E700BF64
:102BC000FFF7DAF9801B642870D828688003F7D5EE
:102BD0000CE0FFF7D1F9064605E000BFFFF7CCF99E
:102BE000801B6428F0D828688003F7D420788007F9
:102BF0004CD5A868E96800F00C0001F003010C282E
:102C000002D004280DD001E002290AD0E068002893
:102C100028682BD040F480702860FFF7ADF9064695
:102C200019E02868400502D5E068002891D068685E
:102C3000217C20F0FE4040EA01606860BF480068E7
:102C4000FFF7D4FB002800D120E072E1FFF794F9F0
:102C5000801B0228B8D828684005F7D56868217C11
:102C600020F0FE4040EA016068600FE020F48070D0
:102C70002860FFF781F9064605E000BFFFF77CF901
:102C8000801B0228A0D828684005F7D420780007C8
:102C900029D560690028D5F8940013D040F00100D0
:102CA000C5F89400FFF768F9064606E090E000BF1B
:102CB000FFF762F9801B022886D8D5F894008007B8
:102CC000F6D510E020F00100C5F89400FFF754F9A4
:102CD000064604E0FFF750F9801B022878D8D5F8A3
:102CE00094008007F6D42078400761D5A86D0026AF
:102CF000C00008D4A86D40F08050A865A86D0126DA
:102D000000F0805000908E480168C90511D4016818
:102D1000804641F480710160FFF72EF9074604E018
:102D2000FFF72AF9C01B022852D8D8F80000C005C6
:102D3000F6D5A068012815D00528D5F8900016D042
:102D400020F00100C5F89000D5F8900020F00400B4
:102D5000C5F89000A06841F28838B8B1FFF70CF9C7
:102D600007460EE0D5F8900040F00100F0E740F093
:102D70000400C5F89000F5E7FFF7FEF8C11B4145D8
:102D800026D8D5F890008007F6D50CE0FFF7F4F8C8
:102D9000074604E0FFF7F0F8C11B414518D8D5F805
:102DA00090008007F6D41EB1A86D20F08050A86571
:102DB0002078800629D5A0690028D5F8980013D07E
:102DC00040F00100C5F89800FFF7D6F8064606E087
:102DD00075E000BFFFF7D0F8801B02286FD8D5F848
:102DE00098008007F6D510E020F00100C5F89800A3
:102DF000FFF7C2F8064604E0FFF7BEF8801B022882
:102E00005DD8D5F898008007F6D4E069F0B3A968DA
:102E1000C1F3810103295DD00228286820F0807069
:102E2000286003D0FFF7A8F804464BE0FFF7A4F8AA
:102E3000064604E0FFF7A0F8801B02283FD8286868
:102E40008001F7D4F4E908016FF00F0202EB0111E1
:102E50000843218A5204490802EB4151A26841EA21
:102E600002210843217D4FF07E42490802EB416177
:102E70000843217B40EAC160E968324A11400843B7
:102E8000E860286840F08070286000E05EE0E86854
:102E900040F08070E860FFF76FF8044605E000BF7F
:102EA000FFF76AF8001B022809D828688001F7D5C7
:102EB0004CE000BFFFF760F8001B022802D9032096
:102EC000BDE8F88328688001F4D4E8681E4908400A
:102ED000E8603BE00128F3D0E868226A00F00301D3
:102EE000914226D1616A00F0F00209011039914245
:102EF0001FD1A26A00F4FE41B1EB022F19D194F860
:102F00002C2000F07841B1EBC26F12D1218E00F479
:102F1000C00249084905A1F50011914209D194F870
:102F2000341000F0C06049084906A1F100718142E7
:102F30000CD00120C4E7000000100240280000204F
:102F4000007000400C809F01FCFFEEFE0020B7E700
:102F500070B504004FF0010040D094F8250028B966
:102F6000002084F82400204600F040F8022084F875
:102F700025002068C168C943C90630D5CA2141620D
:102F8000216853204862204601F062FD10BB206892
:102F90008169154A11408161216888696268A36965
:102FA000104322691A43104388612189E06840EA8E
:102FB000014021680861204601F06FFD50B9D4E955
:102FC0000721114322686369956925F060452B4309
:102FD000194391612268FF21516208B170BD002040
:102FE000012184F8251070BDBFFF8FFB10B596B08E
:102FF000044654216846FDF7A7FA10492068884224
:1030000019D14FF400200090801214906846FFF709
:10301000D5FA08B1FDF711FE094850F8901F41F4A8
:10302000004140F83819016841F48061016000688E
:1030300000F48060159016B010BD0000002800401C
:103040000010024070B5044690F824000B46012899
:103050001BD0012684F82460022084F82500B2B138
:103060009878D97840EA014558781978000240EA02
:10307000413005432168CA204862216853204862D4
:10308000204601F0E5FCD0B120E0022070BD587868
:10309000C10603D500F0EF000A305870D87801F06F
:1030A000CAFC0504587801F0C6FC45EA002598786A
:1030B00001F0C1FC0543187845EA4035DAE70848D5
:1030C000054020684560204601F0E7FC2268FF21AA
:1030D000516208B984F82560002184F8241070BD7D
:1030E0003FFFFF002DE9F041044690F82400904690
:1030F0000D46012811D0012784F82470022084F89D
:1031000025002168CA204862216853204862204671
:1031100001F09EFC002618B129E00220BDE8F081F4
:103120002068B8F1000F80694FEA406024D0002881
:1031300000DBEE70A8782978EA7840EA01406978E7
:10314000090241EA82510843184908402168086091
:103150002068816921F480218161D5E90301084358
:1031600021688A6910438861204601F096FC226834
:10317000FF215162A0B115E0002800DBEE70287835
:1031800001F059FC0304687801F055FC43EA002380
:10319000A87801F050FC0343E87843EA8050D3E775
:1031A00084F8257084F82460B8E700007F7F7F00F2
:1031B00070B504460B482168C860FEF7DDFE054681
:1031C0004FF47A7607E000BFFEF7D6FE401BB04210
:1031D00001D9032070BD2068C0688006F4D50020A6
:1031E00070BD00005F00010070B50A4D286B40F013
:1031F00001002863FEF7C0FE044606E0FEF7BCFEB1
:10320000001B0A2801D9032070BD286B0007F5D5E3
:10321000002070BD0000014003490A6B22F0020249
:1032200002430A63704700000000014003490A6B33
:1032300022F0300202430A637047000000000140A0
:1032400010B5401EB0F1807F01D3012010BD4FF0BA
:10325000E02460610F21601702F06BF80020A0618C
:1032600007202061002010BD7047704770477047ED
:1032700070477047F0B590F83C20012A43D00125F3
:1032800080F83C50022280F83D2003685A689C6810
:103290001E4E1F4FDFF87CC0B34203D0BB4201D0AB
:1032A000634504D122F4700E4A6842EA0E02DFF848
:1032B00068E002EA0E02D1F800E04EEA020EC3F81E
:1032C00004E00268B24212D0B2F1804F0FD0134B2B
:1032D0009A420CD0124B9A4209D0124B9A4206D015
:1032E000BA4204D0104B9A4201D0624504D1896899
:1032F00024F080031943916080F83D50002180F84C
:103300003C100846F0BD0220F0BD0000002C01403A
:1033100000340140005001408FFFFFFD00040040D9
:1033200000080040000C004000400140704710B50C
:10333000040003D094F83D0010B107E0012010BD57
:10334000002084F83C00204600F022F8022084F897
:103350003D00211D206801F011FC012084F8480087
:1033600084F83E0084F83F0084F8400084F841006F
:1033700084F8420084F8430084F8440084F845004F
:1033800084F8460084F8470084F83D00002010BD12
:1033900008B500680B49884212D10B48016E41F410
:1033A00000610166006E002200F4006000900521BB
:1033B0001920FFF76BF8BDE808401920FFF758B84F
:1033C00008BD0000002C01400010024070B504460A
:1033D00090F83C00002501281CD0012684F83C60B0
:1033E000022084F83D0022689068334B184020F496
:1033F0007F4090600868B0F5005F2ED016DC402852
:1034000049D009DCD0B1102818D0202816D0302897
:1034100049D113E0022070BD50282AD0602830D056
:1034200070280FD0B0F5805F3DD13DE010F00F0F58
:1034300039D10111A1F58031072934D8226801461C
:10344000104625E0CB68D1E90121206801F008FC95
:103450002068816841F0770109E0CB68D1E901215A
:10346000206801F0FDFB2068816841F480418160A3
:103470001AE0CA684968206801F006FC50212068FB
:1034800006E0CA684968206801F00FFC60212068E6
:1034900001F0F0FB08E0CA684968206801F0F4FB1D
:1034A00040212068F4E7012584F83D60002084F87D
:1034B0003C00284670BD000088FFCEFF70472DE914
:1034C000F04104460068C66805694FF00007A90787
:1034D00013D5B10711D5F91E0161012020772068AD
:1034E00080698007204602D0FFF7E8FF04E000F083
:1034F000B7F8204600F0B5F82777680716D57007AB
:1035000014D521686FF0040008610220207720683C
:10351000806910F4407F204602D0FFF7CFFF04E01F
:1035200000F09EF8204600F09CF82777280715D574
:10353000300713D521686FF0080008610420207758
:103540002068C0698007204602D0FFF7B7FF04E07B
:1035500000F086F8204600F084F82777E80616D5B4
:10356000F00614D521686FF010000861082020775C
:103570002068C06910F4407F204602D0FFF79EFF0C
:1035800004E000F06DF8204600F06BF82777E807BC
:1035900008D0F00706D021686FF0010008612046CE
:1035A00000F060F8280601D4A80408D5300606D536
:1035B00021686FF4025008612046FFF756FEE805C7
:1035C00008D5300606D521686FF480700861204662
:1035D000FFF74AFE680608D5700606D521686FF029
:1035E00040000861204600F03EF8A80608D5B00665
:1035F00006D521686FF0200008612046FFF736FEEF
:10360000E80208D5F00206D521686FF48010086141
:103610002046FFF72DFEA80208D5B00206D5216886
:103620006FF4001008612046FFF721FE680208D5FC
:10363000700206D521686FF4800008612046FFF70C
:1036400018FE28020AD5300208D521686FF4000060
:1036500008612046BDE8F041FFF768BEBDE8F08193
:10366000704770477047704790F88410012918D050
:10367000012180F884102421C0F8881001680A68AC
:103680000B6823F001030B6022F000510022426618
:10369000036819602021C0F8881080F88420104643
:1036A0007047022070477047704770B5044690F825
:1036B000840001281DD0012084F884002420C4F84F
:1036C000880020680568026822F001020260206814
:1036D000826822F060620A438260204601F0F8FAB4
:1036E000206805602020C4F88800002084F8840049
:1036F00070BD022070BD70B5044690F884000128AA
:103700001DD0012084F884002420C4F8880020689B
:103710000568026822F0010202602068826822F0D7
:1037200060420A438260204601F0D2FA20680560B8
:103730002020C4F88800002084F8840070BD022096
:1037400070BD7047704770472DE9F041036804462B
:10375000D86919689A6840F60F0528424FF00005AD
:103760004FF002060AD187067ED501F0200702F04D
:10377000805C57EA0C0777D0616F3AE1B24FDFF80F
:10378000CCC2174001EA0C0C57EA0C0C6CD05FEA73
:10379000C07C0CD05FEAC15C09D54FF0010CC3F8C6
:1037A00020C0D4F8903043F00103C4F89030830770
:1037B00009D5D30707D023681E62D4F8903043F0B0
:1037C0000403C4F8903043070AD5D30708D026680D
:1037D00004233362D4F8903043F00203C4F89030ED
:1037E00003070CD501F020033B4308D026680823CB
:1037F0003362D4F8903043F00803C4F890300305E6
:103800000BD54B0109D526684FF400633362D4F819
:10381000903043F02003C4F89030D4F89030002B5F
:103820003DD0800609D501F0200002F08051084308
:1038300003D0616F09B120468847D4F89000216811
:103840008968490602D410F0280F2AD0204601F0DA
:1038500073FB2068806840061ED52068083050E859
:10386000001F21F0400100E021E040E80012002AA2
:10387000F3D1D4F8800078B175498163D4F8800021
:10388000FEF70DF900280AD0D4F88000816B00E023
:103890002046BDE8F04108472046FFF754FFBDE849
:1038A000F0812046FFF74FFFC4F89050F7E7D4F8B7
:1038B0006CC02027BCF1010F7ED15FEAC06C7BD5C4
:1038C0005FEAC16C78D510201862206880684006D5
:1038D00045D5D4F88010086840680004000CDED09C
:1038E000B4F85C208242DAD9A4F85E000868006867
:1038F00080062CD4216851E8000F20F4807041E844
:103900000002002AF6D12068083050E8001F21F09C
:10391000010140E80012002AF5D12068083050E883
:10392000001F21F0400140E80012002AF5D1C4F840
:103930008C70E566206850E8001F21F0100140E817
:103940000012002AF6D1D4F88000FEF773F826673B
:10395000B4F85C00B4F85E10401A81B230E0B4F8FC
:103960005C00B4F85E10401A81B2B4F85E00002822
:1039700095D0002993D0226852E8000F20F490706F
:1039800042E80003002BF6D12F4BDB4320680830C0
:1039900050E8002F1A4040E8002CBCF1000FF5D190
:1039A000C4F88C70E5666567226852E8000F20F065
:1039B000100042E8000300E006E0002BF4D1266787
:1039C0002046FFF770FE6AE7C60209D5560207D502
:1039D0004FF4801018622046BDE8F041FFF7B2BEF8
:1039E00003060AD501F0800302F40002134304D059
:1039F000A16F00297FF44CAF51E7420611D54A066A
:103A00000FD52046026852E8001F21F0400142E82D
:103A10000013002BF6D1C0F88870856700F0FAF823
:103A20003DE7020206D54A0004D52046BDE8F04134
:103A3000FFF787BEC001C6D50029C4DA2046BDE81D
:103A4000F041FFF731BE000001000010200100042A
:103A5000894E000810B5040003D0D4F8880010B1D6
:103A600007E0012010BD002084F88400204600F00B
:103A700027F82420C4F888002068016821F001019B
:103A80000160A06A10B1204601F044F9204601F01F
:103A900095FA0128E6D02068416821F49041416000
:103AA0002068816821F02A0181602068016841F066
:103AB000010101602046BDE8104001F08FB900000F
:103AC00070B59CB00646142115A8FCF73DFD5421A5
:103AD0006846FCF739FD27493068884248D1012003
:103AE0000025CDE900056846FEF768FD08B1FDF741
:103AF000A4F82149086E40F480400866086E00F47E
:103B000080401A90C86C40F00100C864C86C15A9C8
:103B100000F001001A904FF4F05015900220CDE90A
:103B200016050720CDE918504FF09040FEF7F6F843
:103B3000134C12482060192060601020C4E902056F
:103B40008020C4E904052020C4E90650C001206299
:103B50002046FEF73DF808B1FDF76FF8F467002244
:103B600011462520A662FEF791FC2520FEF780FC79
:103B70001CB070BD00380140001002400800024037
:103B8000B076002070B50446D0F88800202801D017
:103B9000022070BD39B332B32165A4F85420A4F8D3
:103BA00056200021C4F890102120C4F88800E06F4E
:103BB000D8B1154BC362E36F14481863E36F144820
:103BC0005863E06F134681632068E56F00F12802B7
:103BD0002846216DFEF75CF838B11020C4F890003B
:103BE0002020C4F88800012070BD216840200862B0
:103BF0002068083050E8001F41F0800140E80012C2
:103C0000002AF5D1002070BDED4E00082F4F0008AE
:103C10009D4E000870477047FF210148FEF7F3B939
:103C2000BC69002006210148FEF7EDB9BC690020FF
:103C3000054910B50020087001460448FEF7E3F975
:103C4000BDE81040FCF75CBE1D000020BC690020F0
:103C5000064910B50020087001210548FEF7D3F988
:103C600001F042FBBDE81040FCF792BF1E000020AF
:103C7000BC69002002210148FEF7C5B9BC690020DB
:103C8000072930D2DFE801F00A10161C22280400B0
:103C90000068D0F8841341F0010122E00068D0F8F8
:103CA000841341F002011CE00068D0F8841341F055
:103CB000040116E00068D0F8841341F0080110E018
:103CC0000068D0F8841341F010010AE00068D0F8D1
:103CD000841341F0200104E00068D0F8841341F01F
:103CE0004001C0F88413704770B506460068D0F8EC
:103CF0008853D0F89043E90707D0E10705D00121A8
:103D0000C0F88C133046FEF778F9A80708D5A0074D
:103D100006D531680220C1F88C033046FEF76EF9F3
:103D2000680708D5600706D531680420C1F88C0300
:103D30003046FEF764F9280708D5200706D5316814
:103D40000820C1F88C033046FEF75AF9E80608D57A
:103D5000E00606D531681020C1F88C033046FEF726
:103D600050F9680608D5600606D531684020C1F8CC
:103D70008C033046FEF746F9A80608D5A00606D5FE
:103D800031682020C1F88C033046FEF70DFA70BD73
:103D900070B503681A68D3F8A0534C6922F020026A
:103DA0002646144324F0C002202E2BD08C69022C0E
:103DB00028D0032C2BD0042C2ED022F0E00200BF00
:103DC00022F40064CA69224322F480640A6A22430E
:103DD00022F0C0644A6A224322F000648A6A2243C5
:103DE000CC6A22F0404242EA840222F000544A6B3C
:103DF000096B224325F4803421431A600068C0F81F
:103E0000A01370BD22F0C00242F02002D8E722F0D9
:103E1000800242F04002D3E722F0400242F08002EA
:103E2000CEE72DE9F04704460068D0F88883D0F843
:103E300090734668C5685FEAC8314FF001090DD537
:103E4000F9030BD54FF48031C0F88C1384F8DD9062
:103E5000002084F8DC002046FEF79CF85FEA8830FA
:103E600009D5B80307D521684FF40030C1F88C0399
:103E70002046FEF787F8F00708D0E80706D021684B
:103E8000C1F8089006212046FEF77FF8B00708D554
:103E9000A80706D521680220886006212046FEF783
:103EA00075F8700708D5680706D521680420886072
:103EB00006212046FEF76BF8300708D5280706D5FF
:103EC00021680820886006212046FEF761F8F00688
:103ED00008D5E80606D5216810208860062120460E
:103EE000FEF760F9B00607D5A80605D521682020A1
:103EF00088602046FEF757F9700608D5680606D593
:103F000021684020886006212046FEF74AF9BDE876
:103F1000F0872DE9F041074688460068842202EBCD
:103F2000C81146588C2202EBC81145584FF0880240
:103F3000F30702EBC81407D0E90705D001210151AE
:103F400041463846FEF721F8B00708D5A80706D540
:103F500039680220085141463846FEF717F87007C5
:103F600008D5680706D53968042008514146384607
:103F7000FEF70DF8300708D5280706D53968082060
:103F8000085141463846FEF703F8F00608D5E80622
:103F900006D539681020085141463846FEF702F927
:103FA000700608D5680606D5396840200851414694
:103FB0003846FEF7F6F8300608D5280606D53968E3
:103FC0008020085141463846FDF7DDFFF00509D550
:103FD000E80507D539684FF48070085141463846E6
:103FE000FDF7D2FFB00509D5A80507D539684FF40C
:103FF0000070085141463846FEF7AFF8700509D504
:10400000680507D539684FF4806008514146384645
:10401000FEF7A2F8300509D5280507D539684FF411
:104020000060085141463846FEF799F8F00409D57A
:10403000E80407D539684FF48050085141463846A6
:10404000FEF78CF8B00409D5A80407D539684FF4F9
:104050000050085141463846FDF79BFF700409D5D2
:10406000680407D539684FF4804008514146384606
:10407000FDF7C2FFBDE8F0812DE9F04F8024036811
:1040800004EBC117DC5924F07044DC510568EC598D
:10409000E82303EBC1139E4655F803C0E42303EB6A
:1040A000C1139B4655F803A0D5F8A033566924F0F8
:1040B00020043443202E24D09669022E21D0032ED2
:1040C00024D0042E27D024F4D07400BF24F400663A
:1040D000D469344324F48066146A344324F0C066FF
:1040E000546A344324F00066946A344324F07046E2
:1040F000D46A3443566B24F40034B6F1005F0FD019
:1041000010E024F4C07444F02004DFE724F4807449
:1041100044F08004DAE724F0800444F48074D5E7A6
:1041200044F4003424F04008946B2CF03F0C2646F5
:1041300044EA080424F48028946D44EA0804DFF873
:10414000D08004EA0804D2F8508048EA040992F8C2
:104150003C40D2F8408004F03F0444EA0C0424F0D0
:10416000004448EA0408546C2AF4807C44EA0C04B5
:10417000D2F848C0BCF5606F02D0BCF5F05F01D149
:10418000402E03D124F4F0544CEA040424F4804675
:10419000D46C3443566D062927D2DFE801F00309B9
:1041A0000F151B21126B23F4003343EA42031CE07A
:1041B000126B23F4802343EA820316E0126B23F48C
:1041C000002343EAC20310E0126B23F4801343EA96
:1041D00002130AE0126B23F4001343EA421304E0D3
:1041E000126B23F4800343EA821345F807900568B5
:1041F00045F80E80056845F80B40D424026804EBAE
:10420000C11156500068C0F8A033BDE8F08F00001F
:10421000FFFF06FEFEE700EB8100006E00F0F840B5
:1042200070478068C0F3C00070478068C0F38000AA
:1042300070478068C0F380007047C06810F4406F1A
:1042400001D00020704701207047042303EAD153B6
:1042500010B518444369C1F3045107248C40A343AB
:104260008A401343436110BD00EB8100016E21F0D1
:10427000004111430166704730B58BB000240894AB
:104280000994202168460A94FCF75EF922484FF011
:10429000A041042501604FF44031C0E9011485615B
:1042A0000121C460C0E9044104774477022202621C
:1042B00080F82440C462046380F83810C46380F836
:1042C0004040FCF7EFFF08B172B6FEE708A91248BC
:1042D0000894FCF7B5FC08B172B6FEE70F480090F1
:1042E0000620CDE901047F200594CDE90305694648
:1042F0000948FCF755FD08B172B6FEE70848009082
:104300000C20019069460448FCF74AFD002801D0C2
:1043100072B6FEE70BB030BD7C6700200800900C41
:104320001000C01030B589B020216846FCF70CF9A8
:1043300025482449002401604FF44031C0E90114AC
:10434000042585610121C460C0E9044104774477F4
:104350000322026280F82440C462046380F83810AB
:10436000C46380F84040FCF79DFF08B172B6FEE7D9
:10437000164800900620CDE901047F200594CDE980
:10438000030569461048FCF70BFD08B172B6FEE75D
:104390000F4800900C20019069460B48FCF700FD87
:1043A00008B172B6FEE70B480090122001906946F2
:1043B0000548FCF7F5FC002801D072B6FEE709B00D
:1043C00030BD000000010050E8670020020030040A
:1043D000040060080040C03A30B58BB00024089457
:1043E0000994202168460A94FCF7AEF81D481C4940
:1043F000042501604FF44031C0E90114C460046138
:10440000C0E90545047744770121016280F8244022
:10441000C462046380F83810C46380F84040FCF73D
:1044200041FF08B172B6FEE708A90E480894FCF7F0
:1044300007FC08B172B6FEE70B4800900620CDE9F4
:1044400001047F200594CDE9030569460548FCF782
:10445000A7FC002801D072B6FEE70BB030BD00000B
:1044600000040050546800202000F01430B589B0DA
:1044700020216846FCF768F81948184900240160B3
:104480004FF44031C0E90114C46004250461C0E95F
:104490000545047744770121016280F82440C46215
:1044A000046380F83810C46380F84040FCF7FAFEDB
:1044B00008B172B6FEE70B4800900620CDE9010472
:1044C0007F200594CDE9030569460548FCF768FCA3
:1044D000002801D072B6FEE709B030BD00050050DB
:1044E000C06800200800900C30B589B020216846D3
:1044F000FCF72AF81948184900240160C901C0E9ED
:104500000114C46004250461C0E9054504774477BB
:104510000121016280F82440C462046380F83810ED
:10452000C46380F84040FCF7BDFE08B172B6FEE7F8
:104530000B4800900620CDE901047F200594CDE9C9
:10454000030569460548FCF72BFC002801D072B62C
:10455000FEE709B030BD0000000600502C690020C5
:1045600002003004214808B5816C41F004018164E7
:10457000816C01F004010091816C41F001018164C2
:10458000806C002200F00100009011460B20FDF726
:104590007DFF0B20FDF76CFF002211460C20FDF77C
:1045A00075FF0C20FDF764FF002211460D20FDF77A
:1045B0006DFF0D20FDF75CFF002211460E20FDF778
:1045C00065FF0E20FDF754FF002211460F20FDF776
:1045D0005DFF0F20FDF74CFF002211461020FDF774
:1045E00055FFBDE808401020FDF742BF0010024013
:1045F0002DE9F04F87B014216846FBF7A5FF4A4824
:10460000C16C41F00401C164C16C01F00401059169
:10461000C16C41F02001C164C16C01F02001059121
:10462000C16C41F00101C164C16C01F0010105914F
:10463000C16C41F00201C164C16C01F0020105913D
:10464000C16C41F00801C164C06CDFF8E0A000F06B
:1046500008000590002243F6FF715046FDF787FCE5
:1046600048F2F0074FF09049002239464846FDF7DE
:104670007EFCDFF8BCB04CF2FF6800224146584691
:10468000FDF775FC002204212A48FDF770FC4FF469
:104690000050009001250024CDE9015469465046A0
:1046A0000394FDF73BFB41F6FF700326CDE90005BF
:1046B000CDE9024669465046FDF730FB0097039668
:1046C000CDE9015469464846FDF728FBCDF8008046
:1046D0000396CDE9015469465846FDF71FFB0420B7
:1046E000CDE90005CDE9024669461248FDF716FB03
:1046F0001148416841F480314160416841F4003122
:104700004160416841F400214160601EC9F8080021
:104710000749083108600549083108600549083132
:10472000086007B0BDE8F08F0010024000080048A4
:1047300000040048000C00480000014010B5A4B07F
:104740000024189419941A94602168461B94FBF76E
:10475000FBFE1C211CA8FBF7F7FE5C485A490160D0
:104760002021C0E90114FDF759FC08B172B6FEE73B
:104770000C215648FDF70FFC08B172B6FEE70A217E
:104780005248FDF7EDFC08B172B6FEE76020CDE9B6
:1047900018040820CDE91A4018AA06214B48FDF755
:1047A00004FD08B172B6FEE7009401940120029462
:1047B000CDE9034008940594069407940D94099458
:1047C0000A940B940C946A46062140481794FDF70E
:1047D0006BFD08B172B6FEE740F6D5501890072081
:1047E0001A9018AA00213948FDF7DFFC08B172B60B
:1047F000FEE71C941CAA002134482294FDF79CFD7E
:1048000008B172B6FEE71020CDE90004C0050A9099
:104810008000CDE90D040F94109411941294149417
:1048200015946A46002129481694FDF73DFD08B10C
:1048300072B6FEE76A4601212448FDF735FD08B14E
:1048400072B6FEE76A4602212048FDF72DFD08B149
:1048500072B6FEE74FF6FD70189018AA01211B48AA
:10486000FDF7A3FC08B172B6FEE71CAA01211748A8
:10487000FDF762FD08B172B6FEE718AA02211348DF
:10488000FDF793FC08B172B6FEE71CAA02210F489F
:10489000FDF752FD08B172B6FEE74FF480310B48C8
:1048A000FDF7C0FC4FF400310848FDF7BBFC4FF4A6
:1048B00080210648FDF7B6FC4FF400210348FDF7C0
:1048C000B1FC24B010BD000000680140BC690020AC
:1048D00010B586B014216846FBF736FE2048002448
:1048E0001E490594C0E900147F218160FF21C0E9C1
:1048F00003144FF080414461C0E906410462FEF7B1
:1049000027FB08B172B6FEE718208DF8000056208C
:104910008DF801008DF8024001940394012269464C
:104920000F480494FEF7DEFB08B172B6FEE70320E1
:104930008DF8140002208DF8150026208DF8160041
:1049400025208DF81700012205A90548FEF77AFBFE
:10495000002801D072B6FEE706B010BD0028004066
:10496000B86A002010B588B0002417480594069452
:10497000039404940094019412490294C0E9001431
:104980008460C460046144618461FEF7D0FC08B1B6
:1049900072B6FEE74FF48050039003A90A48FEF771
:1049A00015FD08B172B6FEE7009401946946064809
:1049B0000294FEF75FFC002801D072B6FEE708B053
:1049C00010BD0000002C0140E06A0020174810B51F
:1049D000154901604FF4E1314160002181600C22F2
:1049E000C160C0E904129201C0E90621016241627E
:1049F0008162FFF72FF808B172B6FEE700210B487D
:104A0000FEF779FE08B172B6FEE700210748FEF70F
:104A10004CFE08B172B6FEE70448FEF725FE0028FA
:104A200001D072B6FEE710BD003801402C6B0020AB
:104A3000FEE7FEE770470022014602E00A39C9B2EC
:104A4000521C0A29FAD2100741EA10607047000090
:104A50002DE9F041044600680025C168490619D4D3
:104A6000C16841F08001C160FDF786FA06464FF447
:104A70007A78032708E000BFFDF77EFA801B4045E7
:104A800002D9032584F825702068C068400601D447
:104A9000032DF1D12846BDE8F08170B504460068C9
:104AA0000025C16821F08001C160206881694FF054
:104AB0000306890607D42046FEF77AFB98B184F8EE
:104AC000256003250FE0816921F0200181612046E6
:104AD000FEF76EFB10B184F825600325206881691C
:104AE00041F020018161284670BD7047FDF766BC2A
:104AF00000B593B038216846FBF726FD14210EA8B7
:104B0000FBF722FD0020FDF7F3FC0A2000904FF494
:104B10008070039040200490012005900220042121
:104B2000CDE908015521CDE90A1007900C900D90B0
:104B30006846FEF70BF808B172B6FEE70F200E903C
:104B400003200F90002010901190129004210EA8C5
:104B5000FDF7B4FE002801D072B6FEE713B000BD29
:104B60000248016841F470010160704788ED00E07F
:104B70000148FEF7A4BC0000E06A00202DE9F04FD8
:104B800002682E4B2E4E2F4FDFF8BCC02F4C304DFD
:104B90004FF0804B98420BD0584509D0B04207D017
:104BA000B84205D0604503D0A04201D0A84204D14C
:104BB00022F070084A6842EA0802DFF89880DFF8BD
:104BC0009890DFF898A0984211D058450FD0B04285
:104BD0000DD0B8420BD0604509D0A04207D0404567
:104BE00005D0484503D0504501D0A84203D122F456
:104BF0004076CA6832434E6922F080023243026036
:104C00008A68C2620A688262984209D0A04207D0CC
:104C1000404505D0484503D0504501D0A84201D1B8
:104C200009690163012141610169C90703D0016973
:104C300021F001010161BDE8F08F0000002C01406E
:104C40000004004000080040000C00400034014017
:104C50000050014000400140004401400048014034
:104C600010B5846842EA032224F47F440A432243B5
:104C7000826010BD8268034B1A400A4342F007016C
:104C8000816070478FFFCFFF10B5036A046A24F07C
:104C900001040462846924F0F00444EA021423F05D
:104CA0000A020A438461026210BD10B5036A046AF5
:104CB00024F010040462846923F0A00324F47044F7
:104CC00044EA023243EA01118261016210BD000030
:104CD00030B5416EB9B1026891689268C1F3426122
:104CE0000B4B520F9C5CE50003F10804A25CB5FB82
:104CF000F2F2A0F86A205A5C615CD200B2FBF1F1DA
:104D0000A0F8681030BD0121A0F86A10F8E7000093
:104D1000D49D010890F82810090706D501684A6853
:104D2000836B22F400421A434A6090F82810C907A6
:104D300006D001684A68C36A22F400321A434A6006
:104D400090F82810890706D501684A68036B22F499
:104D500080321A434A6090F82810490706D5016846
:104D60004A68436B22F480221A434A6090F8281064
:104D7000C90606D501688A68C36B22F480521A43BB
:104D80008A6090F82810890606D501688A68036C45
:104D900022F400521A438A6090F82810490611D56F
:104DA00001684A68436C22F480121A434A60416CDD
:104DB000B1F5801F06D101684A68836C22F4C002F5
:104DC0001A434A6090F82810090606D501684A6817
:104DD000C06C22F4002202434A6070472DE9F84378
:104DE00000260446C0F89060FDF7C6F880462068AB
:104DF00000684FF0200500076FF07E4713D543464B
:104E0000002229042046009700F024FA58B12168B6
:104E100051E8000F20F0800041E80002002AF6D19E
:104E2000C4F8885021E020680068400722D5434636
:104E300000224FF480012046009700F00BFAC8B121
:104E4000216851E8000F20F4907041E80002002A28
:104E5000F6D12068083050E8001F21F0010140E839
:104E60000012002AF5D1C4F88C5084F88460032025
:104E7000BDE8F883C4F88850C4F88C5044F86C6FCF
:104E8000666026760020F3E710B5806A0021A0F85E
:104E90005E10A0F85610FEF756FC10BD70B5846A7F
:104EA000D4F88800D4F88C50216889684FF0000647
:104EB000090606D5212804D1A4F85660204600F042
:104EC00065F820688068400606D5222D04D1A4F834
:104ED0005E60204600F030F8D4F8900040F01000FA
:104EE000C4F890002046FEF72EFC70BD10B50146B8
:104EF000806A09680968890616D40021A0F856104E
:104F00000168083151E8002F22F0800241E80023B7
:104F1000002BF5D1026852E8001F41F0400142E841
:104F20000013002BF6D110BDFEF774FE10BD10B5B6
:104F3000806AFEF770FE10BD10B5026852E8001FCF
:104F400021F4907142E80013002BF6D10E4B026859
:104F5000083252E8001F194042E80014002CF6D134
:104F6000C16E012908D1016851E8002F22F010021A
:104F700041E80023002BF6D12021C0F88C1000213D
:104F8000C166416710BD0000FEFFFFEF026852E8F6
:104F9000001F21F0C00142E80013002BF6D1016888
:104FA000083151E8002F22F4000241E80023002BD1
:104FB000F5D12021C0F88810704700002DE9F0419C
:104FC0000446016880682269E3691043626900252C
:104FD0001A431043DFF84CC20A68934B1A4002434D
:104FE0000A6020684168E26821F440511143416041
:104FF0002168A069614501D0226A10438A688B4B01
:105000001A4002438A602068C16A626A21F00F0177
:105010001143C1628649236886488B420DD1D0F87E
:10502000880010F0030006D0012867D0022854D071
:10503000032851D164E001204FE07F498B420BD11E
:10504000D0F8880010F00C0047D0042845D008287C
:1050500052D00C2840D153E078498B420BD1D0F884
:10506000880010F0300038D0102847D0202843D0D6
:10507000302831D144E072498B420BD1D0F88800FE
:1050800010F0C00029D0402838D0802834D0C02863
:1050900022D135E06B498B420ED1D0F8880010F454
:1050A00040701AD0B0F5807F28D0B0F5007F23D0B3
:1050B000B0F5407F10D123E063450DD1D0F88800D2
:1050C00010F4406009D0B0F5806F17D0B0F5006FD4
:1050D00012D0B0F5406F13D010205B4A5B4F002612
:1050E0004FF40041634539D160B102280DD0042846
:1050F0000DD0082831D10EE00220EEE70420ECE7C5
:105100000820EAE7FDF7C8FC03E0114603E0FDF7DD
:10511000E7FC01007BD0606A37F810206768B1FBBC
:10512000F2F007EB4703834269D8B0EB073F66D83C
:10513000002308461946FBF719F9090241EA1061F4
:1051400002027808101871413A460023FBF70EF965
:105150003F4AA0F54071914257D950E0E3694FF6BC
:10516000EF788B422BD1092849D2DFE800F00508FF
:105170000D48254848480E00FDF78EFC01E0FDF77C
:105180009DFC010001D142E01146606A37F8100031
:10519000B1FBF0F04100606801EB5001B1FBF0F1B0
:1051A000A1F1100040452AD84FF6F07201EA020042
:1051B000C1F34201084328E0FDF792FCE1E709282A
:1051C0001DD2DFE800F005080D1C1E1C1C1C0E0083
:1051D000FDF762FC01E0FDF771FC010001D116E072
:1051E0001146606A37F81000B1FBF0F1606801EB1E
:1051F0005001B1FBF0F0A0F11001414504D90125A7
:1052000005E0FDF76DFCE8E780B22168C860012089
:10521000A4F86A0024F8680F2846E6602661BDE815
:10522000F081000000800040F369FFCFFFF4FF1120
:105230000038014000100240004400400048004097
:10524000004C0040005000400024F400BC9D0108C8
:10525000FFFC0F002DE9F047994617460D4604461E
:105260004FF00008089E33E0701C31D0FCF784FE3C
:10527000A0EB0900B04218D8BEB120680168490708
:1052800026D5802D24D0402D22D0C169C9430907DD
:105290000DD4082505622046FFF74EFEC4F8905055
:1052A00084F884800120BDE8F0870320FBE7C06913
:1052B000C04300050CD421684FF40060086220460A
:1052C000FFF73AFE2020C4F8900084F88480ECE7D1
:1052D0002068C06935EA000004D00020B842C3D07D
:1052E0000020E0E70120F9E710B50A480A4C40F633
:1052F00006020068C4F8020821460848FCF726FBAD
:10530000C4F806082146BDE8104040F60A020448E9
:10531000FEF738BC0C000020C66C00209869002005
:105320002C6B00200148FEF70FBA00002C6B002008
:10533000FEE70907090E002804DB00F1E02080F8F1
:105340000014704700F00F0000F1E02080F8141DF9
:10535000704710B52DED028BB1EEC08A18EE100A21
:1053600020F00040C0F1FF40C00F0AD010EE100A3C
:1053700020F00040C0F1FF40C00F04BF0120FBF748
:1053800064F9B0EE480ABDEC028B10BDF0B5002305
:1053900018E000BF02EB430532F813406D88A40803
:1053A000AD0850F8246050F8257040F8247040F89B
:1053B000256000EB840400EB850566686F68676014
:1053C0009B1C6E608B42E5D3F0BD2DE9F041058852
:1053D000984617460C460646012A0CD1201D00218E
:1053E00007E090ED000AB1EE400A80ED000A0830B7
:1053F000491CA942F5D3B5F5807F1BD008DC102DE0
:1054000013D0202D16D0402D19D0802D1DD10CE0A9
:10541000B5F5007F13D0B5F5806F06D0B5F5006FF8
:1054200008D0B5F5805F10D109E02146304600F084
:10543000ABF80AE02146304600F06AF905E029465B
:1054400001232046726800F079FBB8F1000F04D008
:10545000B1892046B268FFF799FF012F19D100EEFC
:10546000105AB7EE001A0020F8EE400A81EE200A2A
:105470000DE0D4ED000A401C60EE800AC4ED000A85
:10548000D4ED010A60EEC00AC4ED010A0834A84256
:10549000EFD3BDE8F08100004FF480610180054941
:1054A00000228B8983818B68836049684160104644
:1054B000704700009C9D0108802101800449002262
:1054C0008B8983818B68836049684160104670478F
:1054D0006C9D010810210180044900228B89838181
:1054E0008B68836049684160104670473C9D0108A5
:1054F0004FF400610180054900228B8983818B680C
:10550000836049684160104670470000AC9D010807
:105510004FF480710180054900228B8983818B685B
:105520008360496841601046704700007C9D010817
:1055300020210180044900228B8983818B6883604C
:1055400049684160104670474C9D01084FF4007156
:105550000180054900228B8983818B6883604968BB
:1055600041601046704700008C9D01084021018079
:10557000044900228B8983818B688360496841607C
:10558000104670475C9D01082DE9F04105462DED60
:10559000028B8C4602886E6801EB820054088046BC
:1055A00001EB840200EB8403A7087CD091ED003A64
:1055B000D0ED002A91ED015A90ED014A33EE228A96
:1055C000D1ED027A91ED031A90ED022AD0ED033A63
:1055D00092ED007AD2ED016AD2ED021AD2ED034AC1
:1055E000D3ED000A93ED010AD3ED025A93ED036A5D
:1055F00081ED008A35EE048A33EE623A75EE442A74
:1056000081ED018A37EE828A31EE635A37EEC24A63
:1056100081ED028A31EE238A37EE201A30EEC72A56
:1056200081ED038A82ED001A36EE801A76EE643A36
:1056300082ED011A31EEA51A75EEE11A82ED021A19
:1056400034EE861A82ED031A30EE661A96ED000AE1
:10565000D6ED010A63EE004A62EEA05A62EE802A9D
:1056600023EE203A74EEA54A72EEC32AC0ED004A3A
:1056700022EE203AC0ED012A61EE002A61EE200AF6
:1056800022EE000A33EE621A30EE800A83ED001A31
:1056900083ED010A96ED020AD6ED030A24EE002AF4
:1056A00025EE201A00E023E065EE002A24EE203AE1
:1056B00032EE011A23EE802A21EE800A80ED021AD2
:1056C00032EEC31A1031103280ED031A21EEA01A07
:1056D00063EEA00A1030103631EE421A30EE800A26
:1056E00083ED021A83ED030A10337F1E7FF45EAF51
:1056F0002146022360466A6800F020FA6A68214663
:10570000BDEC028B4046BDE8F041022300F016BA22
:105710002DE9F34F2DED048B87B00B9800884FEAED
:10572000500801EB880000EB880303EB8804CDE907
:105730000043DDF82CC0221F02EB8807CDE90201EF
:105740004FEA5808DCF804A0CDF810804FF00408A8
:10575000CDF818804FF00608CDF81480D1ED000A7E
:1057600093ED000AD0ED013A94ED013A30EE802A33
:1057700070EEC01AD1ED010A93ED010A061F1D1F3C
:1057800070EE802A30EEC01A33EEA10AD4ED000A82
:1057900071EEE31A0AF1080B70EE435A90ED000A1D
:1057A00071EE831A0AF1100931EE404A72EE404A56
:1057B00030EE011A30EE020A34EE204A34EEE05A9E
:1057C00031EE601A30EE200A72EEE34A0AF1180A4E
:1057D00081ED000A90ED010AD4ED010A74EEC34A8E
:1057E00030EE220A30EE200A81ED010AC0ED005AA7
:1057F00080ED014A83ED005AC3ED014AC4ED001A61
:1058000084ED011ADDF810800830A8F10208083193
:1058100008334FEA580C0834D1ED000A93ED000A22
:105820005FEA0C0E70EE804A70EEC01AD1ED010AEC
:1058300093ED010A7ED090ED015A30EE802A30EED1
:10584000C01A35EE210AD4ED013AD0ED000A71EE0E
:10585000C51A70EE635A71EE602A94ED000A30EEBC
:10586000811A71EEA31A32EE804A74EEE02A70EECD
:10587000A40A31EE401A32EEC03A30EE800A72EEDF
:10588000452A81ED000A90ED010AD4ED010A72EE7D
:10589000E32A30EE020A30EE200A81ED010A56EDCD
:1058A000010A12ED010A15ED015A57ED017A70EE69
:1058B000808A30EEC02AD6ED000A92ED000A95EDFE
:1058C000007A30EE808A30EEC00AD7ED000A70EE22
:1058D000453A37EE609A73EEA76A78EEC53A37EE2E
:1058E000C55A39EE026A39EE422A73EEE74A35EEBE
:1058F000405A37EE080A78EE473A30EE200A73EE47
:10590000E03A86ED000A15ED010A57ED010A30EE86
:10591000280A30EE200A06ED010A9BED000ADBEDB5
:10592000010A0BF1080B25EE807A64EE207A24EE52
:10593000008A00E074E025EEA04A77EE275A08318D
:10594000083EC0ED005A38EE444A66EEA05A66EEB4
:10595000200A80ED014A26EE004A26EE800A083031
:10596000AEF1010C35EEC44A30EE800A85ED004AF6
:1059700005ED010AD9ED000A99ED010ADDF818805C
:1059800023EE204A62EE805A62EEA02A23EE003A0D
:1059900009EB880934EE254A083D72EEC32A83EDEF
:1059A000004A23EEE03AC3ED012A64EE802A64EE59
:1059B000A00A23EE800A083373EE622A30EE600AF2
:1059C000C2ED002A02ED010ADAED000A9AED010AA1
:1059D000DDF8148021EEA03A61EE002A61EE203A53
:1059E00021EE801A083A73EE221A0AEB880A33EE87
:1059F000C11AC4ED001A62EE201A84ED011A25EED8
:105A0000001A22EE000A65EE200A083431EE611A0F
:105A100030EE200A87ED001A07ED010A083FFBE689
:105A200030EE805A90ED011A70EEC05A94ED012AC2
:105A300031EE210AD0ED000A35EE414A31EEC11AAD
:105A400070EE422A94ED000A35EEE03A74EEE03A48
:105A500070EEA51A70EEA40A33EE003A73EEC03A67
:105A600071EEC01A30EE800A34EE424A31EE021A6C
:105A700081ED000A90ED010AD4ED010A30EE050A2D
:105A800030EE200A81ED010A9BEC020A62EE804AA8
:105A900023EE202A23EE000A62EEA00A34EE822AC8
:105AA00030EE600A80ED002A80ED010AD9ED000A8F
:105AB00099ED010A23EEA02A64EE002A64EE200A82
:105AC00023EE800A32EE222A30EEC00A83ED002A4D
:105AD00083ED010A04239AEC020A21EE002A61EE0A
