:020000040800F2
:10000000684B00208102000813460008A13E00084A
:1000100011460008FD0800086D4E000800000000B1
:10002000000000000000000000000000174600086B
:10003000590B00080000000015460008194600088A
:100040009B0200089B0200089B0200089B0200081C
:100050009B0200089B0200089B0200089B0200080C
:100060009B0200089B0200089B0200089D090008F3
:10007000A9090008B5090008C1090008CD09000850
:10008000D90900089B0200089B0200089B02000897
:100090009B0200089B0200089B0200089B020008CC
:1000A0009B020008994600089B0200089B0200087A
:1000B0009B0200089B0200089B0200089B020008AC
:1000C0009B0200089B0200089B0200089B0200089C
:1000D0009B020008614E00089B0200089B0200087A
:1000E0009B0200089B0200089B0200089B0200087C
:1000F0009B0200089B0200089B0200089B0200086C
:100100009B0200089B0200089B0200089B0200085B
:100110009B0200089B0200089B0200089B0200084B
:100120009B0200089B0200089B0200089B0200083B
:100130009B0200089B0200089B0200089B0200082B
:100140009B0200089B0200089B020008B1380008CF
:10015000BD380008DD380008013900089B0200089E
:100160009B020008A53800089B0200089B020008BB
:100170009B0200089B0200089B0200089B020008EB
:100180009B0200089B0200089B0200089B020008DB
:100190009B020008000000009B0200089B02000870
:1001A0009B0200089B0200089B0200089B020008BB
:1001B0009B0200089B0200089B0200089B020008AB
:1001C0009B0200089B0200089B0200089B0200089B
:1001D0009B0200089B02000800F002F800F040F8C3
:1001E0000AA090E8000C82448344AAF10107DA4592
:1001F00001D100F035F8AFF2090EBAE80F0013F0A4
:10020000010F18BFFB1A43F0010318479852000072
:10021000B8520000103A24BF78C878C1FAD8520703
:1002200024BF30C830C144BF04680C607047000070
:100230000023002400250026103A28BF78C1FBD8EF
:10024000520728BF30C148BF0B6070471FB505F08B
:1002500003F99DE8030000F0BDF91FBD10B510BD06
:1002600000F014FA1146FFF7F1FF04F09BFF00F0D5
:1002700032FA03B4FFF7F2FF03BC00F063FA0000A8
:100280000948804709480047FEE7FEE7FEE7FEE72A
:10029000FEE7FEE7FEE7FEE7FEE7FEE70448054966
:1002A000054A064B7047000089460008D90100083E
:1002B00068450020684B0020684700206847002000
:1002C00070B5064600F06AF9056806F10B0020F0EB
:1002D0000704B4429CBF002070BD2B466A68BAB1C7
:1002E0001068A04210D304F1080188423CBF506856
:1002F000586007D35168101941601168091B0160EB
:1003000058601460101D70BD13465268002AE7D172
:100310002146284600F04AF90028DED170BD70B5AC
:100320000446051F00F03AF90068002C14BF446829
:1003300070BD002C18BFAC423CBF20466468F8D3A7
:1003400001680A18AA4218BF456003D12A68054609
:100350001144016028684119A1421CBF6C6070BD46
:100360006168696021680844286070BD53EA020C26
:1003700000F069802DE9F04B4FF00006002B1FBF05
:10038000B3FA83F503FA05F424FA05F65E4012BFCA
:100390001643B2FA82F502FA05F4C5F120051EBF34
:1003A00022FA05FC44EA0C04203556EA044C4FEAD4
:1003B000144418BF641C4FF000084FF0000990422D
:1003C00071EB030C39D3002919BFB1FA81F701FA97
:1003D00007F6B0FA80F700FA07F6C7F120071EBF4C
:1003E00020FA07FC46EA0C062037B6FBF4FCA7EB24
:1003F0000507103F07F01F0BCBF120060CFA0BFB93
:100400002CFA06F644BFB3460026202FA4BF5E4652
:100410004FF0000B5BEA060C08BF4FF0010B19EB25
:100420000B09ABFB027C48EB0608C01B06FB02CCA9
:100430000BFB03CC71EB0C01C1E70B4602464146B6
:100440004846BDE8F08B13B54FF000004FF00001B7
:10045000AFF30080BDE81C407047032A40F23080B3
:1004600010F0030C00F0158011F8013BBCF1020FF5
:10047000624498BF11F801CB00F8013B38BF11F876
:10048000013BA2F1040298BF00F801CB38BF00F88D
:10049000013B11F0030300F02580083AC0F008800A
:1004A00051F8043B083A51F804CBA0E80810F5E7EE
:1004B000121D5CBF51F8043B40F8043BAFF30080D1
:1004C000D20724BF11F8013B11F801CB48BF11F846
:1004D000012B24BF00F8013B00F801CB48BF00F816
:1004E000012B704710B5203AC0F00B80B1E81850CE
:1004F000203AA0E81850B1E81850A0E81850BFF40E
:10050000F5AF5FEA027C24BFB1E81850A0E81850AC
:1005100044BF18C918C0BDE810405FEA827C24BF00
:1005200051F8043B40F8043B08BF7047D20728BF8E
:1005300031F8023B48BF11F8012B28BF20F8023BDD
:1005400048BF00F8012B70474FF0000200B513467A
:1005500094469646203922BFA0E80C50A0E80C50E3
:10056000B1F12001BFF4F7AF090728BFA0E80C5094
:1005700048BF0CC05DF804EB890028BF40F8042B8D
:1005800008BF704748BF20F8022B11F0804F18BFFA
:1005900000F8012B7047704770477047004870475C
:1005A00010450020704770477047704738B50446C3
:1005B0000A4600206946AFF30080002808BF38BD16
:1005C00002460099204600F03FF8012038BD012086
:1005D00000F054B8F8B5AFF30080054600200C4693
:1005E000102000BF0646A819A0420DD93246694620
:1005F0000020AFF30080070008BF00F03FF800982C
:10060000A04218BF0546C419FFF7C8FF056007469A
:10061000F01D20F007004619284600F00AF8B44201
:1006200008BFF8BDA21B31463868BDE8F84000F0AD
:100630000BB800210160C0E901107047102070471D
:100640000048704708450020034640688C46002853
:1006500018BF88423CBF03464068F8D31868184466
:10066000884207D00CF1030020F00700001D411A5A
:10067000521A0146081D0A60FFF751BE10B500F07E
:1006800039F8BDE8104000F02FB870477546FFF705
:10069000D7FFAE4605006946534620F00700854661
:1006A00018B020B5FFF7FAFDBDE820404FF0000676
:1006B0004FF000074FF000084FF0000B21F007014A
:1006C000AC46ACE8C009ACE8C009ACE8C009ACE88D
:1006D000C0098D46704710B50446AFF30080204630
:1006E000BDE81040FFF7C5BD002801D000F02AB8D2
:1006F0007047000010B5012805D0002103A000F0CC
:1007000027F8012010BD09A1F8E70000534947521E
:10071000544D454D3A204F7574206F6620686561D1
:1007200070206D656D6F7279000000003A20486599
:100730006170206D656D6F727920636F7272757074
:100740007465640001491820ABBEFEE72600020074
:1007500070B505460C460A2000E06D1C00F011F84B
:1007600035B128780028F8D102E0641C00F009F8BF
:1007700014B120780028F8D1BDE870400A20AFF30A
:10078000008008B569468DF800000320ABBE08BDA7
:1007900010B5846AE16D11F0500F06D0E16DC90605
:1007A00025D5204600F00DFD10BDE06D40F4007031
:1007B000E06520680168090716D503F084FB78B16D
:1007C0002068C068800400280ADBE06D20F4807097
:1007D000E065E06DC00403D4E06D40F00100E06529
:1007E000204600F0A3FC10BDC0688007EBE7616DF8
:1007F000496BBDE81040084710B5806AC16D41F0F3
:100800004001C165016E41F00401016600F0D9FCB0
:1008100010BD10B5806A00F0D3FC10BDF8B50446D9
:10082000002000902068816811F0010F4AD1816892
:10083000254A114237D18168D5432940491C81603E
:100840002068B0F1A04F02D02049884201D1204851
:1008500000E02048806800F0E07000020DD51E48DE
:100860001E490068B0FBF1F0401C00EB4000800026
:1008700000E0401E00900028FBD101F00DFB064671
:100880001BE0816811F0010F03D181682940491CE8
:10089000816001F001FB801B02280ED920680068EE
:1008A000C043C00709D0E06D40F01000E065206E45
:1008B00040F0010020660120F8BD20680168C943AE
:1008C000C907DED10020F8BD3F00008000010050C4
:1008D00000030050000700504C000020400D0300B2
:1008E00010B5044804F0EEFABDE810400249014892
:1008F00004F06CBD600000209E3E0020FEE700007A
:1009000030B5002308E000BF01EB830405682468CC
:100910004FEA34442C605B1CB3EB520FF4D3D20784
:1009200003D0026831F8231011800068006830BDE0
:1009300070B500230DE000BF01EB83042588A67885
:100940006DBA2D04E47845EA062525430468256040
:100950005B1CB3EB920FEFD394071BD002F00304A0
:10096000012C03D1066811F823503570022C05D1F3
:1009700001EB83040568248864BA2C80D243920773
:1009800008D101EB83020368118849BA1980917874
:10099000026811700068006870BD0000014801F035
:1009A0004AB80000A8440020014801F044B8000003
:1009B000C8420020014801F03EB800002843002052
:1009C000014801F038B8000088430020014801F0D8
:1009D00032B80000E8430020014801F02CB80000C4
:1009E000484400200D4902688A4201D20C4901E0C6
:1009F0000B492031D2B21423083AB2FBF3F2436C14
:100A000002F01F0223F0030319448164044980317A
:100A1000C164012191400165704700000804024053
:100A2000000802400179074A02EB81024265054A4B
:100A30004432491E826501F01F0201219140C165C7
:100A400070470000FC08024030B5D0E913456560EE
:100A5000446D14B1D0E91645656090F8444004F047
:100A60001F050124AC40056C6C60046863608368FA
:100A7000102B036803D099600068C26030BD9A6093
:100A80000068C16030BD000000B5074B002200BF08
:100A900002EBC20000EB400003EB800004F07CFBA3
:100AA000521C802AF4DB00BD6001002070B5244890
:100AB000002420210470234D32224FF6FF700E01D6
:100AC00001EBC10303EB430355F82330B3FBF2F30F
:100AD0009BB2834202D2B34200D91846491C302946
:100AE000EEDB502101EBC10303EB430355F8233048
:100AF000B3FBF2F39BB2834202D2B34200D9184651
:100B0000491C5F29EEDB104DB0F5606F06D26A809C
:100B1000252028700D480E4904F0B9F96888A0F521
:100B200080718F390AD1FF2028706C80BDE8704039
:100B30004FF4487206490748FFF78FBC70BD0000AC
:100B4000190000206001002012000020FC1000208D
:100B500060370020A43F0020704772B6FEE7000017
:100B60002DE9F04F044690F858009BB00F464FF027
:100B7000000B012812D0012084F858000026179697
:100B8000189620684FF0A048DFF81C91DFF81CA1F0
:100B9000474D404506D12846009508E002201BB08D
:100BA000BDE8F08F48450AD15046CDF800A003F0CB
:100BB00086F90090206803F082F940B109E0E06D09
:100BC00040F02000E06584F858600120E7E70098D5
:100BD00050B1E06D40F02000E0654FF0010B00BF28
:100BE00084F858605846DAE720684146884201D0C8
:100BF000A84201D12F4800E02F48D7F800C02F4B62
:100C000040F61F72BCF1000F2DD0D0F808C094F848
:100C100038802CF4604C4CEA483CD7F804804CEA0D
:100C2000080CC0F808C0D4F800C08C4501D0AC4511
:100C300004D18968AB6801F0010109E0D9F8081016
:100C4000DAF8085001F0010105F001059B6829431D
:100C500003F001031943C3D1BB68396819438368A2
:100C6000934319431DE0876827F46047876027682E
:100C70008F4201D0AF4204D18968AB6801F0010115
:100C800009E0D9F80810DAF8085001F0010105F080
:100C900001059B68294303F001031943A0D1816832
:100CA000914381609CE70000000400500005005063
:100CB00000010050000300500007005000060050E3
:100CC0002DE9F84F00270446009790F85800DFF808
:100CD0001C840D46B946012811D0012684F85860BD
:100CE000206803F0E8F860B1E06D40F02000E065B6
:100CF0005FF0010784F858903846BDE8F88F02206D
:100D0000FBE7D5E900210C23206803EA911318447E
:100D1000036B01F01F014FF01F0C0CFA01FCC2F332
:100D2000846223EA0C038A4013430363206803F0C0
:100D3000C2F88246206803F0BAF85AEA00003CD1B3
:100D4000AA6829682068B2F1004F37D003F0C3F8D1
:100D50002068416921F00041416120686969C268E9
:100D6000C2F3C102520091402A69042A31D000EB3B
:100D700082002B68026EDFF878C303F0F84302EAC2
:100D80000C020B431A4342F00041016622682869B5
:100D9000A96902EB8000026E22F080720A430266AB
:100DA000297F22682869012910D0002102EB8000E8
:100DB000026E22F000720A4302667DE0002203F018
:100DC0008AF82068416941F00041C5E74FF00071A1
:100DD000ECE7002103F065F8400320684FF00001C4
:100DE00072D003F05EF890FAA0F0B0FA80F12868B3
:100DF00042036ED090FAA0F0B0FA80F0814204D1A4
:100E000000221146206803F075F80121206803F0E4
:100E100048F8400320684FF001015DD003F041F82D
:100E200090FAA0F0B0FA80F12868420359D090FA05
:100E3000A0F0B0FA80F0814204D1002201212068A4
:100E400003F058F80221206803F02BF840032068D3
:100E50004FF0020148D003F024F890FAA0F0B0FA65
:100E600080F12868420344D090FAA0F0B0FA80F0F4
:100E7000814204D100220221206803F03BF80321C3
:100E8000206803F00EF8400320684FF0030133D0D0
:100E900003F007F890FAA0F0B0FA80F12868420356
:100EA0002FD090FAA0F0B0FA80F0814204D1002255
:100EB0000321206803F01EF82068816811F0010FFB
:100EC00022D0ACE000E004E002F0EBFFC0F384616C
:100ED0008DE7C0F3846091E702F0E3FFC0F3846123
:100EE000A2E7C0F38460A6E702F0DBFFC0F38461F1
:100EF000B7E7C0F38460BBE702F0D3FFC0F38461BF
:100F0000CCE7C0F38460D0E72A7B296850F8B03F73
:100F1000C1F3120C23EA0C0302F0180C754A22FAF2
:100F20000CF20A4013430360E968414577D1286811
:100F300041031CD090FAA0F1B1FA81F1491C01F0F3
:100F40001F0109294FEA403132D8002912D000BFD1
:100F500090FAA0F1B1FA81F101F1010101F01F0154
:100F600006FA01F609D100BFC0F3846109E0C0F3BD
:100F70008461E3E7C0F38461EEE790FAA0F1B1FA8F
:100F800081F101F1010101F01F0146EA816102D105
:100F9000C0F3846003E090FAA0F0B0FA80F000F1B2
:100FA000010000F01F0000EB400041EA005132E078
:100FB00000290ED090FAA0F1B1FA81F101F10101FE
:100FC00001F01F0106FA01F606D100BFC0F38461EB
:100FD00006E0C0F38461F1E790FAA0F1B1FA81F183
:100FE00001F1010101F01F0146EA816102D1C0F364
:100FF000846003E090FAA0F0B0FA80F000F1010004
:1010000000F01F003C4A00EB400002EB005041EAB8
:10101000000141F00071AA68206802F05CFF3748C7
:101020002B6803423FF466AE21684FF0A04C344871
:10103000344E354D614501D0A94201D1024600E050
:1010400032469268DFF8C48002F0E072434503D074
:10105000DFF8BC80434521D15FEA02281ED46145F8
:1010600006D02C4B99427FF445AEA94200D03046C1
:1010700042F40001826822F0E0720A43826026484E
:1010800026490068B0FBF1F0401C00EB40008000F6
:1010900000E0401E00900028FBD12BE6DFF88080A6
:1010A00043450FD15FEAC2180CD4A94202D11D4BAF
:1010B0009942F2D0614502D0A94200D0304642F0B8
:1010C00080710CE0DFF860804345E6D15302E4D440
:1010D000A942E2D0614500D0304642F480018268E6
:1010E00022F0E0720A43826004E6000000007F40C4
:1010F00000F0FF03FFFF0700000020FE0000088053
:10110000000300500007005000010050000021C300
:101110001000C090000600504C000020400D03005D
:10112000000052C700050050000084CB10B50368D2
:101130001E481D49B3F1A04F02780ED01C4CA342AB
:1011400014D100F10C031C880C805C88CC809B8837
:101150008B8042F00201017010BD144B08331C88D3
:101160008C815B884B8042F00101F4E7114CA34273
:1011700006D10E4B9B1C1B88CB8142F00401EAE791
:101180000D4CA34206D1094B1B1D1B880B8142F05D
:101190000801E0E7094A9342DED1044A921D128811
:1011A0004A810121417010BD500000200000002044
:1011B00000010050000400500005005000060050DF
:1011C00070477047F8B54FF0000504002E460095B3
:1011D00002D0E06D10B107E00120F8BD204600F01C
:1011E00009F9266684F8586020688168C1F3407167
:1011F00019B18168734A1140816020688168C1F328
:10120000007189B98168704A114041F08051816054
:101210006E486F490068B0FBF1F04000801C00E0B0
:10122000401E00900028FBD120688168C1F3007146
:1012300041B9E16D41F01001E165216E41F001011C
:101240002166012502F037FEE16DC90600D430B1F8
:10125000E06D40F01000E06501252846F8BDE06D26
:1012600020F4807040F00200E0652068816811F091
:10127000010F27D14FF0A043564A984201D0904227
:1012800004D19968966801F001010AE05249896821
:10129000524E01F00101B66806F001063143504E8E
:1012A000B66806F0010631430CD1984201D0904255
:1012B00001D14C4800E04C486168826822F47C12FD
:1012C0000A438260E168E06B627F0843A16841EAFB
:1012D0004231084394F8241040EA0140012904D126
:1012E000218D424A02EB41410843E16A29B101F4F0
:1012F0007871226B014342EA01002268D1683C4BBD
:1013000019400143D16020680169626B21F040619E
:1013100011430161206802F0CAFD70BB207F94F880
:1013200038102268800340EA4100D16844F2020389
:1013300099430143D16020690028206801690AD0DF
:1013400041F480310161206850F8C01F22696FF3B9
:101350000D01114307E021F480310161206850F84C
:10136000C01F6FF30D01016094F8400001280CD0FC
:101370002068016921F0010101616069012820688C
:10138000016B21F00F0111D013E0D4E911010843E2
:10139000D4E913121143084321680A6940F2FC732F
:1013A0009A43104340F001000861E6E7226A521EAA
:1013B00011430163E06D20F0020040F00100E065A0
:1013C0004BE70000C0FFFF5FC0FFFF7F4C00002025
:1013D000400D0300000100500004005000050050C3
:1013E0000006005000030050000700500000FEFF00
:1013F0000740F0FF2DE9F04F9BB00746142115A8D8
:10140000FFF7A2F854216846FFF79EF84FF4004119
:10141000386800258A03A84EA84C4FF003084FF007
:10142000800A4FF480794FF4806BB0F1A04F10D058
:10143000A34B98427DD168461192009101F04EF87D
:1014400008B1FFF78AFB3068401C306001283BD0B0
:1014500042E068461192009101F040F808B1FFF7B0
:101460007CFB3068401C3060012807D1E06C40F400
:101470000050E064E06C00F400501A90E06C40F022
:101480000100E064E06C179500F001001A900C2058
:10149000CDE9150815A94FF0904000F0CFFB8A4C1C
:1014A000884820600520C4E901052020C4F8149074
:1014B000C4E906B04FF4405020622046F1E07C655C
:1014C000A7621BB0BDE8F08FE06C40F40050E06410
:1014D000E06C00F400501A90E06C40F00100E06411
:1014E000E06C00F001001A90E06C40F00200E06453
:1014F000E06CCDF8548000F00200CDE916851A901A
:10150000444615A94FF0904000F098FB15A94FF400
:10151000006081E831006D4800F090FB69486C4C38
:10152000143020602420C4E901052020C4F8149060
:1015300000E006E0C4E906B04FF4405020622046C7
:10154000AFE0644B9901CA03984236D168461292C3
:10155000009100F0C3FF08B1FFF7FFFA7068401C6C
:101560007060012807D1E06C40F48040E064E06CDA
:1015700000F480401A90E06C40F00200E064E06CFF
:10158000179500F002001A904FF40050CDE91508AD
:1015900015A94E4800F052FB4A484F4C28302060B5
:1015A0002520C4E901052020C4F81490C4E906B040
:1015B0004FF440502062204673E0484B984236D1A9
:1015C00068461292009100F089FF08B1FFF7C5FA52
:1015D0007068401C7060012807D1E06C40F48040C6
:1015E000E064E06C00F480401A90E06C40F002008F
:1015F000E064E06C179500F002001A904FF4805000
:10160000CDE9150815A9314800F018FB2D48344CD8
:101610003C3020602620C4E901052020C4F8149045
:10162000C4E906B04FF440502062204639E02D4B0B
:1016300098427FF446AF68461292009100F04EFF48
:1016400008B1FFF78AFA7068401C7060012807D162
:10165000E06C40F48040E064E06C00F480401A905C
:10166000E06C40F00100E064E06CCDF8549000F0D4
:101670000100CDE916851A904E4615A94FF090400D
:1016800000F0DCFA0F48184C503020602720C4E9E5
:10169000010520206661C4E906B04FF44050206285
:1016A0002046C4E9035A00F023FA00283FF407AFAC
:1016B000FFF753FA03E700001C000020001002406F
:1016C000000100501C000240C842002000040048F5
:1016D00028430020000400508843002000050050EB
:1016E000E843002000060050484400202DE9F04760
:1016F000044600684FF0A0483D4F91468A46404559
:1017000001D0B84201D13B4900E03B49896801F072
:101710001F0502F0D0FB002868D194F8580001287A
:1017200064D0012084F8580034492068884201D1EF
:10173000012000E00020401E28424FF0000605D0A6
:10174000052D03D0092D01D0012003E02046FFF72D
:1017500065F818B184F85860BDE8F087E06D40F690
:101760000161884340F48070E0652068B84201D18F
:10177000414605E02249884201D1224900E0014664
:10178000814200D01DB9E06D20F48010E065E06D6D
:10179000C00404D5206E20F00600206600E0266616
:1017A000616D1948C862616D18480863616D184819
:1017B000486321681C20086084F8586020684168EC
:1017C00041F0100141602068C16841F00101C16031
:1017D00021684B4652464031606D00F0E9F92168BE
:1017E0008A680C4B1A40121D8A60B5E70220B3E7E5
:1017F0000001005000030050000700500006005098
:10180000000500500004005091070008130800086C
:10181000F9070008C0FFFF7FF0B504460020CB07A2
:1018200011D01E235FF0010603F01F0706FA07F52B
:101830000D4201D15B1EF7D27AB1082A0BD0102AD3
:1018400006D0182A01D00120F0BD072BFBD204E0FE
:10185000082BF8D201E0102BF5D2236859612168DA
:101860008B6823F0180313438B60F0BD70B50446FA
:1018700000200223637723689D6845F001059D6081
:10188000236A012B0ED0022B10D0032B11D104E0C0
:10189000256851F820302B60401C9042F8D3206816
:1018A000006806E02046FFF743F802E02046FFF715
:1018B00027F80121617770BD10B5040010D0607F5A
:1018C00020B900202077204600F030F80220607711
:1018D000207938B1D4E902122046FFF79DFF48B1C4
:1018E000012010BD2168104848612068816821F0FE
:1018F000180181606079A0B12069216808612068C1
:101900008168626921F0600111438160206881680B
:10191000A26921F0800111438160012060770020DD
:1019200010BD4FF0FF30E8E7B71DC10408B50068EF
:101930000649884208D10648816C41F4805181648F
:10194000806C00F48050009008BD00000030024020
:101950000010024010B590F8253000210122022B22
:1019600003D00421C163012122E003681C6824F034
:101970000E041C60836C1C6824F480741C60036873
:101980001C6824F001041C6090F84430046C03F0DF
:101990001F0302FA03F36360D0E913345C60436D04
:1019A00033B11C6824F480741C60D0E916345C6088
:1019B00080F82520002280F82420084610BD70B54C
:1019C00090F82520002401212346022A07D0042272
:1019D000C26380F8251080F82430012429E00268D1
:1019E000156825F00E0515600268156825F00105DB
:1019F0001560826C156825F48075156090F8442098
:101A0000056C02F01F0201FA02F26A60D0E91325A8
:101A10005560426D32B1156825F480751560D0E9C6
:101A20001625556080F8251080F82430816B01B1AF
:101A30008847204670BDF0B4016C0C6801680D68E1
:101A400090F8442002F01F06042202FA06F3234213
:101A500011D06B070FD50B689B0603D40B6823F0DE
:101A600004030B6090F8441001F01F018A40016CE0
:101A70004A60016B1DE0022303FA06F727424FF08C
:101A8000000C4FF0010218D0AF0716D50C68A40661
:101A900005D40C6824F00A040C6080F8252090F826
:101AA000441001F01F018B40016C4B6080F824C092
:101AB000C16A00291AD0F0BC08470823B34023426A
:101AC00014D02B0712D50B6823F00E030B6090F88F
:101AD0004410036C01F01F0102FA01F15960C26366
:101AE00080F8252080F824C0416BE2E7F0BC704705
:101AF00070B504000CD02B4A21681420914209D201
:101B0000294A0A44B2FBF0F08000606427480AE0EA
:101B1000012070BD234A52420A44B2FBF0F080001B
:101B20006064204808382064022084F825000A6890
:101B300047F6F0708243D4E902031843D4E9043530
:101B40002B431843A3691843E3691843236A1843D6
:101B5000104308602046FEF745FFA0680025B0F559
:101B6000804F00D16560A16C20790860D4E9130131
:101B700041606068401E032808D82046FEF752FFE7
:101B8000606D0560D4E91601416002E06565A565F8
:101B9000E565E563012084F8250084F824500020E1
:101BA00070BD000008040240F8FFFDBF00000240C5
:101BB00070B5044690F82400002501280CD00120BF
:101BC00084F8240094F825600020012E06D084F8C3
:101BD00024000225284670BD022070BD022684F82C
:101BE0002560E0632068066826F00106066020464E
:101BF000FEF72AFF206B00282068016802D041F020
:101C00000E0106E021F0040101602068016841F046
:101C10000A010160A06C0168C90303D5016841F4A1
:101C200080710160606D18B1016841F480710160DC
:101C30002068016841F001010160CBE72DE9F04F18
:101C4000DFF82092002301260324A9F1040B85B0BC
:101C50000F2709F1040AABF1040EFAE006FA03F5C6
:101C60002A407CD091F804C00CF0030CBCF1010FA9
:101C700002D0BCF1020F26D1D0F808C0CDF800C0C8
:101C80004FEA430C04FA0CF8CDF810C0DDF800C0A0
:101C90002CEA080CCDF800C0D1F80C80DDF810C09B
:101CA00008FA0CF8DDF800C048EA0C08C0F8088013
:101CB000D0F804C02CEA050C0D79C5F300159D4041
:101CC00045EA0C0545600D79ED43AD070ED0C568BA
:101CD0004FEA430804FA08FC25EA0C05D1F808C0CD
:101CE0000CFA08FC4CEA050CC0F80CC00D7905F0A4
:101CF0000305022D16D1DD0800EB850CCDF808C0D8
:101D0000DCF820805D074FEAD56C07FA0CF528EA6D
:101D100005080D6905FA0CF5DDF808C045EA080567
:101D2000CCF8205005684FEA430CCDF808C004FAFF
:101D30000CFC25EA0C0591F804C00CF00308DDF852
:101D400008C008FA0CF848EA0508C0F800804D6899
:101D500015F4403F7CD0444DD5F860C000E077E0FA
:101D60004CF0010CC5F860C02D6E23F0030C05F09B
:101D7000010500953D4D65440295AD684FEA837CB1
:101D80004FEA1C7807FA08FC25EA0C05B0F1904FE1
:101D900006D0DFF8DCC0604505D14FF0010C20E033
:101DA0004FF0000C1DE0DFF8CCC0604502D14FF0D1
:101DB000020C16E0DFF8C0C0604502D14FF0030C02
:101DC0000FE0DFF8B8C0604502D14FF0040C08E026
:101DD000DFF8ACC0604502D14FF0050C01E04FF0D8
:101DE000060C0CFA08FC4CEA050C029DC5F808C06C
:101DF000D9F80050CC46D1F8048095435FEAC82852
:101E000000D51543CCF80050DAF80050D446D1F88C
:101E1000048095435FEA882800D51543CCF800502C
:101E2000DBF80050DC46D1F8048095435FEA88383F
:101E300000D51543CCF80050DEF80050F446D1F838
:101E4000048095435FEAC83800D51543CCF80050AC
:101E50005B1C0A6832FA03F57FF400AF05B0BDE8F9
:101E6000F08F000008040140001002400000014013
:101E70000004004800080048000C0048001000481A
:101E8000001400480069084000D0012070470AB1E2
:101E90008161704781627047014880687047000027
:101EA00024000020704770477047704770477047A4
:101EB00070477047704710B590F8DC20012A21D098
:101EC000012280F8DC20022380F8DD304B1C1BD07F
:101ED0000368D3F8CC4344F00204C3F8CC4303684E
:101EE000D3F8CC4324F00C040C43C3F8CC43016872
:101EF000D1F8CC3343F00103C1F8CC3380F8DD20B6
:101F0000002010BD022010BD0168D1F8CC3323F0B1
:101F10000203C1F8CC33EAE7704770477047704757
:101F2000704770477047FF2903D0062903D001F09E
:101F300036BE01F01FBD01F0BABD000038B5040087
:101F400056D0022084F8DD000025C4F8E050C4F823
:101F5000E450C4F8E850C4F8EC50C4F8F050C4F8A9
:101F6000F450C4F8F850207AC0071BD021492068EB
:101F7000884208D12048016E41F080610166006E00
:101F800000F0806000902168086820F44042208AB8
:101F900000F44040104320F44052A08A00F4405026
:101FA00010430860204600F029F8207A800708D501
:101FB0002168086820F44072A08900F44070104342
:101FC0000860012084F8DD0084F8DC505FF0000137
:101FD000C1EBC10004EB8000491C8561C56105624D
:101FE00045628562C9B205630629F1D9002038BD72
:101FF000012038BD006801400010024008B50068AB
:102000001B49884232D11B48016E41F08061016654
:10201000006E002200F0806000900521432000F057
:10202000C5F9432000F0B4F900220521442000F056
:10203000BDF9442000F0ACF900221146452000F023
:10204000B5F9452000F0A4F900221146462000F021
:10205000ADF9462000F09CF900220521492000F04E
:10206000A5F9BDE80840492000F092B908BD00007C
:102070000068014000100240704770477047704789
:1020800070B50D460446FFF707FF064607E0681CDB
:1020900005D0FFF701FF801BA8420DD865B120686D
:1020A000D0F88803C043C003F1D4012084F8DD00D8
:1020B000002084F8DC0070BD072084F8DD000320D8
:1020C00070BD704770477047704770B590F8DD304D
:1020D000022B23D0022380F8DD30062920D0802374
:1020E000046803EBC115635923F007069368334373
:1020F00023F01806D368334363519425046805EB35
:10210000C115136863519824036804EBC111526828
:102110005A50012180F8DD10002070BD022070BDF2
:102120000368196821F007049168214321F018041D
:10213000D1682143196003681168596151680268C8
:102140009161E6E7F0B590F8DC20012A38D001244F
:1021500080F8DC40022280F8DD200268D2F890335B
:1021600045682B43C2F89033CA0305D50268D3688B
:10217000D0F8C8502B43D3600022DFF848C08C252C
:102180005CF822300B420CD0066805EBC213F758FE
:10219000C2EBC20E00EB8E0EDEF820E047EA0E071F
:1021A000F750521CD2B2062AEAD3026813680B43D6
:1021B000136080F8DD40002180F8DC100846F0BD97
:1021C0000220F0BD300000202DE9F041044690F8D7
:1021D000DD0015460E46022826D094F8DC000128C2
:1021E00021D0012784F8DC70022084F8DD00062E5F
:1021F0001CD0204601F086FDC6EBC60004EB800033
:102200002968016269684162A9688162E968C162FE
:10221000296901633146204601F078FB062E15D06E
:10222000E86A40B112E00220BDE8F0811146204684
:1022300001F0F4FBE0E78021206801EBC611425871
:10224000EB6D22F4007242EA4322425084F8DD70C2
:10225000002084F8DC00E7E72DE9F041044690F81F
:10226000DD00022824D094F8DC0001281FD00125CD
:1022700084F8DC50022084F8DD00EC20266800EBB6
:10228000C113F058176820F0100040EA071020F43E
:1022900080175068384320F48037D068384320F4E2
:1022A0000037906838439769012F03D00CE0022073
:1022B000BDE8F08120F004071069384320F00207E0
:1022C0005069384340F00100F050204601F01EFBF9
:1022D00084F8DD50002084F8DC00E9E702488168DA
:1022E00042681144816070472400002010B500242A
:1022F000032000F07BF80F2000F008F808B101245B
:1023000001E000F025F8204610BD000070B50E4E2B
:1023100005460024706898B14FF47A71B1FBF0F073
:102320000A490968B1FBF0F000F0D0FD40B9102D6A
:1023300006D200222946501E00F038F8356000E031
:102340000124204670BD0000240000204C00002025
:102350000E4808B5016E41F001010166016E01F001
:1023600001010091816D41F080518165806D00F027
:1023700080500090002000F09FFD00F07BFD0020C9
:1023800000F090FDBDE8084000F0A0B80010024049
:10239000002809DB00F01F02012191404009800064
:1023A00000F1E020C0F8001170470000F0B40E4BBF
:1023B0001B680C46C3F30223C3F10705042D00D9A3
:1023C0000425191D072901D2002300E0DB1E012688
:1023D00006FA05F1491E214099409E40761E16409E
:1023E0003143F0BC02F043BD0CED00E0064900F0C3
:1023F000070208684FF6FF03184040EA0220034A2C
:1024000010430860704700000CED00E00000FA0582
:102410002B492C4B0A6832214A432B4940B1B0F575
:10242000007F086829D020F4C06040F480602CE070
:102430000868C0F34120022804D051F8800F20F42E
:10244000807022E0D1F8800020F48070C1F8800014
:10245000086820F4C06040F400700860B2FBF3F03C
:10246000401C00E0401E4A69520501D50028F9D100
:10247000486940050AD503207047C0F3412002286F
:1024800006D051F8800F40F480700860002070473B
:10249000D1F8800040F48070C1F88000086820F412
:1024A000C06040F400700860B2FBF3F0401C00E034
:1024B000401E4A695205DBD50028F9D1D8E7000053
:1024C0004C00002040420F0000700040024881682C
:1024D00041F4804181607047007000402DE9F8436D
:1024E000044600680026BB4D00035ED5A86D00279A
:1024F000C00008D4A86D40F08050A865A86D0127E1
:1025000000F080500090DFF8D092D9F8001041F42C
:102510008071C9F80010FFF7BFFC804606E000BFDD
:10252000FFF7BAFCA0EB080002282BD8D9F800006E
:10253000C005F5D5D5F8900010F4407014D0216D89
:10254000814211D0D5F89000D5F8901020F4407059
:1025500041F48031C5F89010D5F8901021F4803105
:10256000C5F89010C5F89000C00711D0FFF794FC93
:10257000804641F2883907E0FFF78EFCA0EB0801A6
:10258000494501D903260BE0D5F890008007F3D523
:10259000D5F89000216D20F440700843C5F89000F4
:1025A0001FB1A86D20F08050A8652078C00707D023
:1025B000D5F88800616820F003000843C5F888005A
:1025C0002078800707D5D5F88800A16820F00C0096
:1025D0000843C5F888002078400707D5D5F888005B
:1025E000E16820F030000843C5F888002078000733
:1025F00007D5D5F88800216920F0C0000843C5F848
:1026000088002078C00607D5D5F88800616920F4D5
:1026100040700843C5F888002078800607D5D5F8B3
:102620008800A16920F440600843C5F8880020783C
:10263000400607D5D5F88800E16920F440500843EA
:10264000C5F888002078000607D5D5F88800216AEB
:1026500020F440400843C5F888002088C00507D50D
:10266000D5F88800616A20F440300843C5F8880036
:102670002068800307D5D5F89C00A16A20F00300EC
:102680000843C5F89C002088800507D5D5F8880048
:10269000E16A20F440200843C5F8880020884005FE
:1026A0000FD5D5F88800216B20F440100843C5F8F9
:1026B0008800206BB0F5801F03D1E86840F48010DB
:1026C000E860208800050FD5D5F88800616B20F4FC
:1026D00040000843C5F88800606BB0F5800F03D157
:1026E000E86840F48010E8602088C0040FD5D5F871
:1026F0008800A16B20F040700843C5F88800A06BEB
:10270000B0F1807F03D1E86840F48010E860208851
:102710004FF0006180040ED5D5F88800E26B20F000
:1027200040601043C5F88800E06B884203D1E86838
:1027300040F48010E860208840040ED5D5F8880069
:10274000226C20F040601043C5F88800206C88425D
:1027500003D1E86840F48010E860208800040FD5B9
:10276000D5F88800616C20F040500843C5F8880017
:10277000606CB0F1805F03D1E86840F48030E860BD
:102780002068C0030FD5D5F88800A16C20F0404028
:102790000843C5F88800A06CB0F1804F03D1E86809
:1027A00040F48030E860206840030FD5D5F89C00E5
:1027B000E16C20F440100843C5F89C00E06CB0F5D3
:1027C000001F03D1E86840F48010E8603046BDE89F
:1027D000F883000000100240007000402DE9F0472F
:1027E0000E4605004FF0000725D0DFF8AC81D8F881
:1027F000000000F00F00B0420CD2D8F8001021F019
:102800000F013143C8F80010D8F8000000F00F00A5
:10281000B04210D12968614CC80741F2883A5AD0B9
:102820006868DFF87C91032808D0022820682DD042
:10283000400500282CDB0120BDE8F08720688001DE
:10284000F9D5E06800F00302E068C0F30310401C13
:10285000032A19D0534A00BFB2FBF0F0E268C2F37A
:1028600006225043E268C2F34162521C5200B0FBA0
:10287000F2F0484517D9A06810F0F00F0CD0880787
:1028800011D5A86840B10EE0474AE5E78003D0E7DC
:1028900000F0B6F8484506D9A06820F0F00040F0F6
:1028A0008000A0608027A068696820F003000843CA
:1028B000A060FFF7F1FA814606E000BFFFF7ECFAEF
:1028C000A0EB090151453AD8A068696800F00C00F6
:1028D000B0EB810FF2D12868810714D5400703D5EA
:1028E000A06840F4E060A0602878000705D5A068E3
:1028F00020F4605040F4E060A060A068A96820F077
:10290000F000084304E0802F03D1A06820F0F0001D
:10291000A060D8F80010404601F00F01B14216D96E
:10292000016821F00F0131430160FFF7B5FA074656
:1029300007E000BFFFF7B0FAC11B514501D90320E2
:102940007AE7D8F8000000F00F00B042F2D1287802
:10295000400705D5A068E96820F4E0600843A0605E
:102960002878000706D5A068296920F4605040EA5D
:10297000C100A06000F044F8A1680C4AC1F3031143
:10298000515C01F01F01C84009490860094800680E
:10299000BDE8F047FFF7BABC00200240001002403B
:1029A00000B4C4040024F400006CDC028A54000863
:1029B0004C00002024000020054806490068896872
:1029C000054AC1F30221515C01F01F01C840704764
:1029D0004C000020001002409A54000805480649A7
:1029E00000688968054AC1F3C221515C01F01F01EA
:1029F000C84070474C000020001002409A54000864
:102A0000184910B58868C0F381021748012A0BD015
:102A10008A68164BC2F38102022A06D08A68C2F382
:102A20008102032A03D0002010BD184610BDCA68D9
:102A300002F00304CA68C2F30312521C032C02D032
:102A4000B0FBF2F001E0B3FBF2F0CA68C968C2F370
:102A500006225043C1F34161491C4900B0FBF1F02B
:102A600010BD0000001002400024F400006CDC02E5
:102A70002DE9F84304007AD02078F84DC00747D0FC
:102A8000A868E96800F00C0001F003010C2802D0EE
:102A9000082817D001E0032914D06068B0F5803F02
:102AA00017D0B0F5A02F286817D020F48030286008
:102AB000286820F4802028606068E0B1FFF7ECF916
:102AC000064614E02868800322D560680028D2D02A
:102AD0001EE0286840F48030EDE740F48020286054
:102AE000F7E700BFFFF7D8F9801B642870D8286883
:102AF0008003F7D50CE0FFF7CFF9064605E000BFED
:102B0000FFF7CAF9801B6428F0D828688003F7D43F
:102B1000207880074CD5A868E96800F00C0001F027
:102B200003010C2802D004280DD001E002290AD0AC
:102B3000E068002828682BD040F480702860FFF7F8
:102B4000ABF9064619E02868400502D5E068002880
:102B500091D06868217C20F0FE4040EA0160686006
:102B6000BF480068FFF7D2FB002800D120E072E1E7
:102B7000FFF792F9801B0228B8D828684005F7D5DE
:102B80006868217C20F0FE4040EA016068600FE048
:102B900020F480702860FFF77FF9064605E000BF4B
:102BA000FFF77AF9801B0228A0D828684005F7D4DF
:102BB0002078000729D560690028D5F8940013D043
:102BC00040F00100C5F89400FFF766F9064606E0FC
:102BD00090E000BFFFF760F9801B022886D8D5F887
:102BE00094008007F6D510E020F00100C5F89400AD
:102BF000FFF752F9064604E0FFF74EF9801B022862
:102C000078D8D5F894008007F6D42078400761D5AD
:102C1000A86D0026C00008D4A86D40F08050A865BB
:102C2000A86D012600F0805000908E480168C9050B
:102C300011D40168804641F480710160FFF72CF9DE
:102C4000074604E0FFF728F9C01B022852D8D8F83D
:102C50000000C005F6D5A068012815D00528D5F8D4
:102C6000900016D020F00100C5F89000D5F8900033
:102C700020F00400C5F89000A06841F28838B8B18F
:102C8000FFF70AF907460EE0D5F8900040F0010082
:102C9000F0E740F00400C5F89000F5E7FFF7FCF816
:102CA000C11B414526D8D5F890008007F6D50CE029
:102CB000FFF7F2F8074604E0FFF7EEF8C11B4145C5
:102CC00018D8D5F890008007F6D41EB1A86D20F072
:102CD0008050A8652078800629D5A0690028D5F8FD
:102CE000980013D040F00100C5F89800FFF7D4F821
:102CF000064606E075E000BFFFF7CEF8801B02280D
:102D00006FD8D5F898008007F6D510E020F00100C4
:102D1000C5F89800FFF7C0F8064604E0FFF7BCF8D6
:102D2000801B02285DD8D5F898008007F6D4E069AA
:102D3000F0B3A968C1F3810103295DD00228286896
:102D400020F08070286003D0FFF7A6F804464BE01F
:102D5000FFF7A2F8064604E0FFF79EF8801B022862
:102D60003FD828688001F7D4F4E908016FF00F021A
:102D700002EB01110843218A5204490802EB415138
:102D8000A26841EA02210843217D4FF07E424908B2
:102D900002EB41610843217B40EAC160E968324AA5
:102DA00011400843E860286840F08070286000E027
:102DB0005EE0E86840F08070E860FFF76DF8044678
:102DC00005E000BFFFF768F8001B022809D8286853
:102DD0008001F7D54CE000BFFFF75EF8001B02282A
:102DE00002D90320BDE8F88328688001F4D4E8689C
:102DF0001E490840E8603BE00128F3D0E868226AF9
:102E000000F00301914226D1616A00F0F00209014D
:102E1000103991421FD1A26A00F4FE41B1EB022F9A
:102E200019D194F82C2000F07841B1EBC26F12D187
:102E3000218E00F4C00249084905A1F50011914214
:102E400009D194F8341000F0C06049084906A1F196
:102E5000007181420CD00120C4E700000010024044
:102E600024000020007000400C809F01FCFFEEFE5B
:102E70000020B7E770B50A4D286B40F001002863C9
:102E8000FFF70AF8044606E0FFF706F8001B0A28D9
:102E900001D9032070BD286B0007F5D5002070BD57
:102EA0000000014003490A6B22F0020202430A6358
:102EB000704700000000014003490A6B22F0300215
:102EC00002430A63704700000000014010B5401E35
:102ED000B0F1807F01D3012010BD4FF0E02460618C
:102EE0000F21601701F0C3FF0020A06107202061BF
:102EF000002010BD7047704770477047704770479B
:102F0000F0B590F83C20012A43D0012580F83C50D0
:102F1000022280F83D2003685A689C681E4E1F4FAD
:102F2000DFF87CC0B34203D0BB4201D0634504D17B
:102F300022F4700E4A6842EA0E02DFF868E002EA04
:102F40000E02D1F800E04EEA020EC3F804E0026877
:102F5000B24212D0B2F1804F0FD0134B9A420CD034
:102F6000124B9A4209D0124B9A4206D0BA4204D070
:102F7000104B9A4201D0624504D1896824F0800345
:102F80001943916080F83D50002180F83C100846BC
:102F9000F0BD0220F0BD0000002C014000340140D3
:102FA000005001408FFFFFFD00040040000800407A
:102FB000000C004000400140704710B5040003D0F1
:102FC00094F83D0010B107E0012010BD002084F806
:102FD0003C00204600F022F8022084F83D00211D2C
:102FE000206801F05FFB012084F8480084F83E006F
:102FF00084F83F0084F8400084F8410084F84200DF
:1030000084F8430084F8440084F8450084F84600BE
:1030100084F8470084F83D00002010BD08B5006822
:103020000B49884212D10B48016E41F400610166E0
:10303000006E002200F40060009005211920FFF7C7
:10304000B5F9BDE808401920FFF7A2B908BD000096
:10305000002C01400010024070B5044690F83C007E
:10306000002501281CD0012684F83C60022084F849
:103070003D0022689068334B184020F47F409060F8
:103080000868B0F5005F2ED016DC402849D009DC76
:10309000D0B1102818D0202816D0302849D113E0FC
:1030A000022070BD50282AD0602830D070280FD060
:1030B000B0F5805F3DD13DE010F00F0F39D1011127
:1030C000A1F58031072934D822680146104625E051
:1030D000CB68D1E90121206801F056FB20688168A6
:1030E00041F0770109E0CB68D1E90121206801F0C6
:1030F0004BFB2068816841F4804181601AE0CA6816
:103100004968206801F054FB5021206806E0CA6835
:103110004968206801F05DFB6021206801F03EFBFA
:1031200008E0CA684968206801F042FB4021206835
:10313000F4E7012584F83D60002084F83C0028462F
:1031400070BD000088FFCEFF70472DE9F0410446B6
:103150000068C66805694FF00007A90713D5B107D5
:1031600011D5F91E01610120207720688069800750
:10317000204602D0FFF7E8FF04E000F0B7F8204651
:1031800000F0B5F82777680716D5700714D52168C1
:103190006FF004000861022020772068806910F435
:1031A000407F204602D0FFF7CFFF04E000F09EF8FA
:1031B000204600F09CF82777280715D5300713D54F
:1031C00021686FF008000861042020772068C0693A
:1031D0008007204602D0FFF7B7FF04E000F086F832
:1031E000204600F084F82777E80616D5F00614D5B7
:1031F00021686FF010000861082020772068C069FE
:1032000010F4407F204602D0FFF79EFF04E000F05C
:103210006DF8204600F06BF82777E80708D0F00734
:1032200006D021686FF001000861204600F060F8C8
:10323000280601D4A80408D5300606D521686FF405
:10324000025008612046FFF756FEE80508D5300613
:1032500006D521686FF4807008612046FFF74AFEAA
:10326000680608D5700606D521686FF04000086131
:10327000204600F03EF8A80608D5B00606D521681D
:103280006FF0200008612046FFF736FEE80208D5FF
:10329000F00206D521686FF4801008612046FFF720
:1032A0002DFEA80208D5B00206D521686FF40010E3
:1032B00008612046FFF721FE680208D5700206D596
:1032C00021686FF4800008612046FFF718FE28028D
:1032D0000AD5300208D521686FF400000861204645
:1032E000BDE8F041FFF768BEBDE8F0817047704768
:1032F0007047704790F88410012918D0012180F898
:1033000084102421C0F8881001680A680B6823F033
:1033100001030B6022F0005100224266036819602D
:103320002021C0F8881080F88420104670470220C1
:1033300070477047704770B5044690F884000128C4
:103340001DD0012084F884002420C4F8880020685F
:103350000568026822F0010202602068826822F09B
:1033600060620A438260204601F046FA20680560E8
:103370002020C4F88800002084F8840070BD02205A
:1033800070BD70B5044690F8840001281DD001205E
:1033900084F884002420C4F8880020680568026846
:1033A00022F0010202602068826822F060420A4333
:1033B0008260204601F020FA206805602020C4F8D1
:1033C0008800002084F8840070BD022070BD704722
:1033D000704770472DE9F04103680446D8691968C1
:1033E0009A6840F60F0528424FF000054FF002069C
:1033F0000AD187067ED501F0200702F0805C57EAEB
:103400000C0777D0616F3AE1B24FDFF8CCC21740BA
:1034100001EA0C0C57EA0C0C6CD05FEAC07C0CD0B3
:103420005FEAC15C09D54FF0010CC3F820C0D4F8A5
:10343000903043F00103C4F89030830709D5D307D7
:1034400007D023681E62D4F8903043F00403C4F818
:10345000903043070AD5D30708D026680423336287
:10346000D4F8903043F00203C4F8903003070CD531
:1034700001F020033B4308D0266808233362D4F8C8
:10348000903043F00803C4F8903003050BD54B018E
:1034900009D526684FF400633362D4F8903043F0C6
:1034A0002003C4F89030D4F89030002B3DD0800633
:1034B00009D501F0200002F08051084303D0616F6C
:1034C00009B120468847D4F89000216889684906E8
:1034D00002D410F0280F2AD0204601F0C1FA20684B
:1034E000806840061ED52068083050E8001F21F093
:1034F000400100E021E040E80012002AF3D1D4F8B6
:10350000800078B175498163D4F88000FEF757FADE
:1035100000280AD0D4F88000816B00E02046BDE886
:10352000F04108472046FFF754FFBDE8F0812046F0
:10353000FFF74FFFC4F89050F7E7D4F86CC020278E
:10354000BCF1010F7ED15FEAC06C7BD55FEAC16C34
:1035500078D51020186220688068400645D5D4F8D8
:103560008010086840680004000CDED0B4F85C20CD
:103570008242DAD9A4F85E000868006880062CD47C
:10358000216851E8000F20F4807041E80002002A11
:10359000F6D12068083050E8001F21F0010140E812
:1035A0000012002AF5D12068083050E8001F21F0F1
:1035B000400140E80012002AF5D1C4F88C70E5669D
:1035C000206850E8001F21F0100140E80012002A96
:1035D000F6D1D4F88000FEF7BDF92667B4F85C0098
:1035E000B4F85E10401A81B230E0B4F85C00B4F870
:1035F0005E10401A81B2B4F85E00002895D0002910
:1036000093D0226852E8000F20F4907042E8000343
:10361000002BF6D12F4BDB432068083050E8002FF9
:103620001A4040E8002CBCF1000FF5D1C4F88C70B2
:10363000E5666567226852E8000F20F0100042E856
:10364000000300E006E0002BF4D126672046FFF7D8
:1036500070FE6AE7C60209D5560207D54FF48010FE
:1036600018622046BDE8F041FFF7B2BE03060AD556
:1036700001F0800302F40002134304D0A16F00297B
:103680007FF44CAF51E7420611D54A060FD52046CC
:10369000026852E8001F21F0400142E80013002BAD
:1036A000F6D1C0F88870856700F0FAF83DE70202AD
:1036B00006D54A0004D52046BDE8F041FFF787BE95
:1036C000C001C6D50029C4DA2046BDE8F041FFF7A5
:1036D00031BE00000100001020010004B1490008C3
:1036E00010B5040003D0D4F8880010B107E0012021
:1036F00010BD002084F88400204600F027F8242024
:10370000C4F888002068016821F001010160A06A06
:1037100010B1204601F092F8204601F0E3F90128AB
:10372000E6D02068416821F49041416020688168BA
:1037300021F02A0181602068016841F001010160E7
:103740002046BDE8104001F0DDB8000070B59CB027
:103750000646142115A8FCF7F7FE54216846FCF72D
:10376000F3FE27493068884248D101200025CDE981
:1037700000056846FEF7B2FE08B1FDF7EEF92149F3
:10378000086E40F480400866086E00F480401A908D
:10379000C86C40F00100C864C86C15A900F00100B5
:1037A0001A904FF4F05015900220CDE9160507202D
:1037B000CDE918504FF09040FEF740FA134C1248F4
:1037C0002060192060601020C4E902058020C4E94F
:1037D00004052020C4E90650C00120622046FEF7FF
:1037E00087F908B1FDF7B9F9F467002211462520E1
:1037F000A662FEF7DBFD2520FEF7CAFD1CB070BDFA
:10380000003801400010024008000240A844002097
:1038100070B50446D0F88800202801D0022070BD81
:1038200039B332B32165A4F85420A4F856200021FE
:10383000C4F890102120C4F88800E06FD8B1154B6F
:10384000C362E36F14481863E36F14485863E06F72
:10385000134681632068E56F00F128022846216D38
:10386000FEF7A6F938B11020C4F890002020C4F863
:103870008800012070BD216840200862206808305F
:1038800050E8001F41F0800140E80012002AF5D105
:10389000002070BD154A0008574A0008C5490008B5
:1038A00070477047FF210148FEF73DBBC03C002038
:1038B00006210148FEF737BBC03C0020054910B582
:1038C0000020087001460448FEF72DFBBDE81040BB
:1038D000FDF706B817000020C03C0020064910B5CF
:1038E0000020087001210548FEF71DFB01F090FA49
:1038F000BDE81040FDF7DAB818000020C03C0020F9
:1039000002210148FEF70FBBC03C0020072930D23E
:10391000DFE801F00A10161C222804000068D0F825
:10392000841341F0010122E00068D0F8841341F0D3
:1039300002011CE00068D0F8841341F0040116E095
:103940000068D0F8841341F0080110E00068D0F856
:10395000841341F010010AE00068D0F8841341F0AC
:10396000200104E00068D0F8841341F04001C0F861
:103970008413704770B506460068D0F88853D0F8B5
:103980009043E90707D0E10705D00121C0F88C1367
:103990003046FEF7C2FAA80708D5A00706D5316859
:1039A0000220C1F88C033046FEF7B8FA680708D544
:1039B000600706D531680420C1F88C033046FEF755
:1039C000AEFA280708D5200706D531680820C1F8C7
:1039D0008C033046FEF7A4FAE80608D5E00606D5C3
:1039E00031681020C1F88C033046FEF79AFA680659
:1039F00008D5600606D531684020C1F88C033046F2
:103A0000FEF790FAA80608D5A00606D53168202052
:103A1000C1F88C033046FEF757FB70BD70B50368E4
:103A20001A68D3F8A0534C6922F0200226461443AA
:103A300024F0C002202E2BD08C69022C28D0032C1D
:103A40002BD0042C2ED022F0E00200BF22F4006420
:103A5000CA69224322F480640A6A224322F0C064C5
:103A60004A6A224322F000648A6A2243CC6A22F026
:103A7000404242EA840222F000544A6B096B22431E
:103A800025F4803421431A600068C0F8A01370BD8B
:103A900022F0C00242F02002D8E722F0800242F079
:103AA0004002D3E722F0400242F08002CEE72DE947
:103AB000F04704460068D0F88883D0F890734668D1
:103AC000C5685FEAC8314FF001090DD5F9030BD580
:103AD0004FF48031C0F88C1384F8DD90002084F816
:103AE000DC002046FEF7E6F95FEA883009D5B80326
:103AF00007D521684FF40030C1F88C032046FEF74B
:103B0000D1F9F00708D0E80706D02168C1F808907D
:103B100006212046FEF7C9F9B00708D5A80706D543
:103B200021680220886006212046FEF7BFF9700751
:103B300008D5680706D5216804208860062120463C
:103B4000FEF7B5F9300708D5280706D52168082003
:103B5000886006212046FEF7ABF9F00608D5E80696
:103B600006D521681020886006212046FEF7AAFAB3
:103B7000B00607D5A80605D5216820208860204614
:103B8000FEF7A1FA700608D5680606D52168402020
:103B9000886006212046FEF794FABDE8F0872DE9FB
:103BA000F041074688460068842202EBC811465857
:103BB0008C2202EBC81145584FF08802F30702EB44
:103BC000C81407D0E90705D0012101514146384604
:103BD000FEF76BF9B00708D5A80706D539680220AB
:103BE000085141463846FEF761F9700708D5680765
:103BF00006D539680420085141463846FEF757F982
:103C0000300708D5280706D53968082008514146ED
:103C10003846FEF74DF9F00608D5E80606D53968AE
:103C20001020085141463846FEF74CFA700608D578
:103C3000680606D539684020085141463846FEF7E7
:103C400040FA300608D5280606D539688020085184
:103C500041463846FEF727F9F00509D5E80507D5AE
:103C600039684FF48070085141463846FEF71CF918
:103C7000B00509D5A80507D539684FF4007008517B
:103C800041463846FEF7F9F9700509D5680507D5AC
:103C900039684FF48060085141463846FEF7ECF928
:103CA000300509D5280507D539684FF4006008515B
:103CB00041463846FEF7E3F9F00409D5E80407D594
:103CC00039684FF48050085141463846FEF7D6F91E
:103CD000B00409D5A80407D539684FF4005008513D
:103CE00041463846FEF7E5F8700409D5680407D563
:103CF00039684FF48040085141463846FEF70CF9C8
:103D0000BDE8F0812DE9F04F8024036804EBC11772
:103D1000DC5924F07044DC510568EC59E82303EBCE
:103D2000C1139E4655F803C0E42303EBC1139B4621
:103D300055F803A0D5F8A033566924F02004344385
:103D4000202E24D09669022E21D0032E24D0042EBA
:103D500027D024F4D07400BF24F40066D46934431F
:103D600024F48066146A344324F0C066546A3443F1
:103D700024F00066946A344324F07046D46A3443D5
:103D8000566B24F40034B6F1005F0FD010E024F439
:103D9000C07444F02004DFE724F4807444F080040D
:103DA000DAE724F0800444F48074D5E744F4003466
:103DB00024F04008946B2CF03F0C264644EA08049B
:103DC00024F48028946D44EA0804DFF8D08004EAE3
:103DD0000804D2F8508048EA040992F83C40D2F82E
:103DE000408004F03F0444EA0C0424F0004448EA14
:103DF0000408546C2AF4807C44EA0C04D2F848C0CD
:103E0000BCF5606F02D0BCF5F05F01D1402E03D14C
:103E100024F4F0544CEA040424F48046D46C344373
:103E2000566D062927D2DFE801F003090F151B2183
:103E3000126B23F4003343EA42031CE0126B23F4B9
:103E4000802343EA820316E0126B23F4002343EA43
:103E5000C20310E0126B23F4801343EA02130AE05A
:103E6000126B23F4001343EA421304E0126B23F4B1
:103E7000800343EA821345F80790056845F80E80F1
:103E8000056845F80B40D424026804EBC111565074
:103E90000068C0F8A033BDE8F08F0000FFFF06FE09
:103EA000FEE700EB8100006E00F0F840704780688C
:103EB000C0F3C00070478068C0F38000704780681E
:103EC000C0F380007047C06810F4406F01D000203C
:103ED000704701207047042303EAD15310B51844FA
:103EE0004369C1F3045107248C40A3438A40134320
:103EF000436110BD00EB8100016E21F000411143D0
:103F00000166704730B58BB00024089409942021D5
:103F100068460A94FCF718FB22484FF0A04104259C
:103F200001604FF44031C0E9011485610121C46092
:103F3000C0E90441047744770222026280F82440F9
:103F4000C462046380F83810C46380F84040FDF711
:103F500039F908B172B6FEE708A912480894FCF7CF
:103F6000FFFD08B172B6FEE70F4800900620CDE9CC
:103F700001047F200594CDE9030569460948FCF753
:103F80009FFE08B172B6FEE7084800900C20019031
:103F900069460448FCF794FE002801D072B6FEE79B
:103FA0000BB030BD803A00200800900C1000C0100B
:103FB00030B589B020216846FCF7C6FA2548244967
:103FC000002401604FF44031C0E9011404258561EB
:103FD0000121C460C0E904410477447703220262EE
:103FE00080F82440C462046380F83810C46380F809
:103FF0004040FDF7E7F808B172B6FEE716480090BA
:104000000620CDE901047F200594CDE9030569462A
:104010001048FCF755FE08B172B6FEE70F48009055
:104020000C20019069460B48FCF74AFE08B172B6B5
:10403000FEE70B4800901220019069460548FCF706
:104040003FFE002801D072B6FEE709B030BD000087
:1040500000010050EC3A0020020030040400600827
:104060000040C03A30B58BB0002408940994202158
:1040700068460A94FCF768FA1D481C49042501604B
:104080004FF44031C0E90114C4600461C0E9054542
:10409000047744770121016280F82440C4620463FC
:1040A00080F83810C46380F84040FDF78BF808B101
:1040B00072B6FEE708A90E480894FCF751FD08B156
:1040C00072B6FEE70B4800900620CDE901047F2080
:1040D0000594CDE9030569460548FCF7F1FD002884
:1040E00001D072B6FEE70BB030BD000000040050F6
:1040F000583B00202000F01430B589B020216846DC
:10410000FCF722FA19481849002401604FF44031A5
:10411000C0E90114C46004250461C0E905450477C1
:1041200044770121016280F82440C462046380F86E
:104130003810C46380F84040FDF744F808B172B607
:10414000FEE70B4800900620CDE901047F2005948E
:10415000CDE9030569460548FCF7B2FD002801D00A
:1041600072B6FEE709B030BD00050050C43B002028
:104170000800900C30B589B020216846FCF7E4F9BE
:104180001948184900240160C901C0E90114C4603C
:1041900004250461C0E905450477447701210162E3
:1041A00080F82440C462046380F83810C46380F847
:1041B0004040FDF707F808B172B6FEE70B480090E3
:1041C0000620CDE901047F200594CDE90305694669
:1041D0000548FCF775FD002801D072B6FEE709B06E
:1041E00030BD000000060050303C002002003004CA
:1041F000214808B5816C41F004018164816C01F0B3
:1042000004010091816C41F001018164806C002205
:1042100000F00100009011460B20FEF7C7F80B20BC
:10422000FEF7B6F8002211460C20FEF7BFF80C206E
:10423000FEF7AEF8002211460D20FEF7B7F80D206C
:10424000FEF7A6F8002211460E20FEF7AFF80E206A
:10425000FEF79EF8002211460F20FEF7A7F80F2068
:10426000FEF796F8002211461020FEF79FF8BDE8F1
:1042700008401020FEF78CB8001002402DE9F04FE6
:1042800087B014216846FCF75FF94448C16C41F0DF
:104290000401C164C16C01F004010591C16C41F0DD
:1042A0002001C164C16C01F020010591C16C41F095
:1042B0000101C164C16C01F001010591C16C41F0C3
:1042C0000201C164C16C01F002010591C16C41F0B1
:1042D0000801C164C06CDFF8C89000F008000590C8
:1042E000002243F6FF714846FDF7D1FD48F2F00782
:1042F0004FF0904A002239465046FDF7C8FDDFF8DE
:10430000A4B04CF2FF68002241465846FDF7BFFDBD
:10431000002204212448FDF7BAFD4FF4005000901C
:1043200001250024CDE90154694648460394FDF770
:1043300085FC41F6FF700326CDE90005CDE9024674
:1043400069464846FDF77AFC00970396CDE901548B
:1043500069465046FDF772FCCDF800800396CDE922
:10436000015469465846FDF769FC0420CDE9000573
:10437000CDE9024669460C48FDF760FC0B484168F0
:1043800041F480314160416841F40031416041684D
:1043900041F40021416007B0BDE8F08F00100240F9
:1043A0000008004800040048000C004800000140DC
:1043B00010B5A4B00024189419941A94602168468A
:1043C0001B94FCF7C1F81C211CA8FCF7BDF85C4845
:1043D0005A4901602021C0E90114FDF7AFFD08B181
:1043E00072B6FEE70C215648FDF765FD08B172B6BE
:1043F000FEE70A215248FDF743FE08B172B6FEE718
:104400006020CDE918040820CDE91A4018AA062139
:104410004B48FDF75AFE08B172B6FEE700940194CE
:1044200001200294CDE90340089405940694079472
:104430000D9409940A940B940C946A460621404802
:104440001794FDF7C1FE08B172B6FEE74FF4AA500B
:10445000189018AA00213A48FDF737FE08B172B645
:10446000FEE71C941CAA002135482294FDF7F4FEB7
:1044700008B172B6FEE71020CDE90004C0050A902D
:104480008000CDE90D040F941094119412941494AB
:1044900015946A4600212A481694FDF795FE08B146
:1044A00072B6FEE76A4601212548FDF78DFE08B188
:1044B00072B6FEE76A4602212148FDF785FE08B183
:1044C00072B6FEE74FF6FD70189007201A9018AAF2
:1044D00001211B48FDF7F9FD08B172B6FEE71CAAE1
:1044E00001211748FDF7B8FE08B172B6FEE718AA19
:1044F00002211348FDF7E9FD08B172B6FEE71CAAD8
:1045000002210F48FDF7A8FE08B172B6FEE74FF48E
:1045100080310B48FDF716FE4FF400310848FDF7D7
:1045200011FE4FF480210648FDF70CFE4FF40021E8
:104530000348FDF707FE24B010BD000000680140ED
:10454000C03C002010B588B000241748059406949C
:10455000039404940094019412490294C0E9001455
:104560008460C460046144618461FEF726FD08B183
:1045700072B6FEE74FF48050039003A90A48FEF795
:104580006BFD08B172B6FEE70094019469460648D7
:104590000294FEF7B5FC002801D072B6FEE708B021
:1045A00010BD0000002C0140BC3D0020174810B594
:1045B000154901604FF4E1314160002181600C2216
:1045C000C160C0E904129201C0E9062101624162A2
:1045D0008162FFF785F808B172B6FEE700210B484B
:1045E000FEF7CFFE08B172B6FEE700210748FEF7DE
:1045F000A2FE08B172B6FEE70448FEF77BFE002873
:1046000001D072B6FEE710BD00380140083E002020
:10461000FEE7FEE770477047FDF760BE10B594B047
:1046200038216846FBF790FF14210EA8FBF78CFF9A
:104630000020FDF7EDFE01200090000403240C2172
:104640000190CDE9084102205521CDE90A100790DB
:104650000C900D906846FEF70BFA08B172B6FEE7B3
:104660000F20CDE90E040020109011904FF48060CF
:10467000129004210EA8FEF7B1F8002801D072B6FE
:10468000FEE714B010BD00000248016841F470015B
:104690000160704788ED00E00148FEF756BD00005C
:1046A000BC3D00202DE9F04F02682E4B2E4E2F4FBF
:1046B000DFF8BCC02F4C304D4FF0804B98420BD0F0
:1046C000584509D0B04207D0B84205D0604503D064
:1046D000A04201D0A84204D122F070084A6842EA00
:1046E0000802DFF89880DFF89890DFF898A09842E9
:1046F00011D058450FD0B0420DD0B8420BD0604514
:1047000009D0A04207D0404505D0484503D05045C8
:1047100001D0A84203D122F44076CA6832434E69E0
:1047200022F08002324302608A68C2620A688262B2
:10473000984209D0A04207D0404505D0484503D053
:10474000504501D0A84201D10969016301214161AD
:104750000169C90703D0016921F001010161BDE8C8
:10476000F08F0000002C01400004004000080040D1
:10477000000C004000340140005001400040014066
:10478000004401400048014010B5846842EA032219
:1047900024F47F440A432243826010BD8268034BA5
:1047A0001A400A4342F00701816070478FFFCFFF34
:1047B00010B5036A046A24F001040462846924F0D9
:1047C000F00444EA021423F00A020A4384610262FC
:1047D00010BD10B5036A046A24F0100404628469F1
:1047E00023F0A00324F4704444EA023243EA0111A6
:1047F0008261016210BD000030B5416EB9B102683E
:1048000091689268C1F342610B4B520F9C5CE500CA
:1048100003F10804A25CB5FBF2F2A0F86A205A5C2E
:10482000615CD200B2FBF1F1A0F8681030BD01214B
:10483000A0F86A10F8E700007A54000890F82810F1
:10484000090706D501684A68836B22F400421A43BF
:104850004A6090F82810C90706D001684A68C36A00
:1048600022F400321A434A6090F82810890706D5CE
:1048700001684A68036B22F480321A434A6090F858
:104880002810490706D501684A68436B22F4802244
:104890001A434A6090F82810C90606D501688A684C
:1048A000C36B22F480521A438A6090F8281089065C
:1048B00006D501688A68036C22F400521A438A60A4
:1048C00090F82810490611D501684A68436C22F413
:1048D00080121A434A60416CB1F5801F06D101680D
:1048E0004A68836C22F4C0021A434A6090F8281088
:1048F000090606D501684A68C06C22F4002202430A
:104900004A6070472DE9F84300260446C0F89060DD
:10491000FDF7C2FA8046206800684FF020050007C6
:104920006FF07E4713D543460022290420460097A6
:1049300000F024FA58B1216851E8000F20F08000FF
:1049400041E80002002AF6D1C4F8885021E020682E
:104950000068400722D5434600224FF480012046DC
:10496000009700F00BFAC8B1216851E8000F20F45D
:10497000907041E80002002AF6D12068083050E823
:10498000001F21F0010140E80012002AF5D1C4F80F
:104990008C5084F884600320BDE8F883C4F8885004
:1049A000C4F88C5044F86C6F666026760020F3E7FC
:1049B00010B5806A0021A0F85E10A0F85610FEF72E
:1049C00008FD10BD70B5846AD4F88800D4F88C5006
:1049D000216889684FF00006090606D5212804D110
:1049E000A4F85660204600F065F82068806840060C
:1049F00006D5222D04D1A4F85E60204600F030F8E0
:104A0000D4F8900040F01000C4F890002046FEF763
:104A1000E0FC70BD10B50146806A09680968890626
:104A200016D40021A0F856100168083151E8002F73
:104A300022F0800241E80023002BF5D1026852E801
:104A4000001F41F0400142E80013002BF6D110BDD9
:104A5000FEF726FF10BD10B5806AFEF722FF10BDDD
:104A600010B5026852E8001F21F4907142E800136B
:104A7000002BF6D10E4B0268083252E8001F194095
:104A800042E80014002CF6D1C16E012908D101685A
:104A900051E8002F22F0100241E80023002BF6D14C
:104AA0002021C0F88C100021C166416710BD0000B4
:104AB000FEFFFFEF026852E8001F21F0C00142E84C
:104AC0000013002BF6D10168083151E8002F22F4C1
:104AD000000241E80023002BF5D12021C0F8881006
:104AE000704700002DE9F0410446016880682269A2
:104AF000E3691043626900251A431043DFF84CC292
:104B00000A68934B1A4002430A6020684168E268D1
:104B100021F44051114341602168A069614501D0F1
:104B2000226A10438A688B4B1A4002438A602068CD
:104B3000C16A626A21F00F011143C162864923688C
:104B400086488B420DD1D0F8880010F0030006D0C3
:104B5000012867D0022854D0032851D164E00120F5
:104B60004FE07F498B420BD1D0F8880010F00C0049
:104B700047D0042845D0082852D00C2840D153E013
:104B800078498B420BD1D0F8880010F0300038D033
:104B9000102847D0202843D0302831D144E0724932
:104BA0008B420BD1D0F8880010F0C00029D04028EB
:104BB00038D0802834D0C02822D135E06B498B42D0
:104BC0000ED1D0F8880010F440701AD0B0F5807F74
:104BD00028D0B0F5007F23D0B0F5407F10D123E07E
:104BE00063450DD1D0F8880010F4406009D0B0F5CD
:104BF000806F17D0B0F5006F12D0B0F5406F13D0B2
:104C000010205B4A5B4F00264FF40041634539D1C9
:104C100060B102280DD004280DD0082831D10EE053
:104C20000220EEE70420ECE70820EAE7FDF7C4FEE7
:104C300003E0114603E0FDF7E3FE01007BD0606A6C
:104C400037F810206768B1FBF2F007EB47038342A7
:104C500069D8B0EB073F66D8002308461946FBF732
:104C600085FB090241EA10610202780810187141BF
:104C70003A460023FBF77AFB3F4AA0F54071914288
:104C800057D950E0E3694FF6EF788B422BD10928D2
:104C900049D2DFE800F005080D48254848480E00D5
:104CA000FDF78AFE01E0FDF799FE010001D142E027
:104CB0001146606A37F81000B1FBF0F041006068FF
:104CC00001EB5001B1FBF0F1A1F1100040452AD8F1
:104CD0004FF6F07201EA0200C1F34201084328E0F6
:104CE000FDF78EFEE1E709281DD2DFE800F0050898
:104CF0000D1C1E1C1C1C0E00FDF75EFE01E0FDF7E6
:104D00006DFE010001D116E01146606A37F810000F
:104D1000B1FBF0F1606801EB5001B1FBF0F0A0F1E4
:104D20001001414504D9012505E0FDF769FEE8E7DA
:104D300080B22168C8600120A4F86A0024F8680FD6
:104D40002846E6602661BDE8F08100000080004052
:104D5000F369FFCFFFF4FF1100380140001002405B
:104D60000044004000480040004C0040005000401B
:104D70000024F40062540008FFFC0F002DE9F04706
:104D8000994617460D4604464FF00008089E33E04A
:104D9000701C31D0FDF780F8A0EB0900B04218D8A4
:104DA000BEB120680168490726D5802D24D0402D4A
:104DB00022D0C169C94309070DD4082505622046E0
:104DC000FFF74EFEC4F8905084F884800120BDE8BF
:104DD000F0870320FBE7C069C04300050CD42168BD
:104DE0004FF4006008622046FFF73AFE2020C4F826
:104DF000900084F88480ECE72068C06935EA000000
:104E000004D00020B842C3D00020E0E70120F9E739
:104E100010B54FF481720E490E48FCF727FD0C497E
:104E20004FF48372C1F802010B48FEF7F1FC40F227
:104E300022320A490748FCF719FD084940F2263298
:104E4000C1F82203BDE810400348FEF7E1BC0000B2
:104E50009C3E00209C3C0020083E0020A23F0020F9
:104E60000148FEF7B7BA0000083E0020FEE7090738
:104E7000090E002804DB00F1E02080F800147047E0
:104E800000F00F0000F1E02080F8141D704770B5AD
:104E9000044690F868000D46C0F132014A0004EB68
:104EA00040012846091DFBF7D8FA94F86800420033
:104EB000C0F1320005EB4000211DBDE87040FBF75A
:104EC000CCBA00002DE9F05FDFF818B1DFF81881E7
:104ED00006462DED028B002500242946204600F0D1
:104EE000B7F9641CE4B2082CF7D300208BF800005B
:104EF0005C468BF801000746384600F08DF8A84262
:104F0000FAD17F1CFFB2082FF6D3364902220831AE
:104F10003648FCF7EBFB334903220C313448FCF7ED
:104F2000E5FB30490122891C3248FCF7DFFB2D49A3
:104F30000122091D3048FCF7D9FB2A490122891DAD
:104F40002E48FCF7D3FB607821780F2901D0002888
:104F5000FBD0DFF8B4909FED2A8ADFED2A8ADFF8D4
:104F6000ACA0002405EB041738F8141007EBC700B9
:104F700000EE101A36F8171000EB4002B8EE400AA7
:104F800000EE901A09EB820020EE080AF8EE600AA3
:104F900000EEA80ABCEEC00A10EE101A26F8171090
:104FA00038F8141000F040FA9AF8000087420BD14C
:104FB00017490888B0F5C77F06D8164B38F8142073
:104FC00023F81020401C0880641CE4B2082CC9D3CC
:104FD0006D1CEDB2102DFFF47FAFBDEC028BBDE870
:104FE000F09F00000000002050000020803A0020C8
:104FF000EC3A0020583B0020C43B0020303C00200D
:10500000CDCCCC3D6666663F6001002012000020DA
:1050100014000020603700202DE9F0475B4D5C4E06
:105020004FF090474FF400484FF480694FF4007AF6
:1050300008286CD2DFE800F004172B3E526D8296F0
:1050400004212846FCF71EFF044308212846FCF7EC
:1050500019FF44EA400401212846FCF713FF44EA03
:105060008004022138E080213846FCF70BFF04431E
:1050700040213846FCF706FF44EA40042021384628
:10508000FCF700FF44EA8004102138463AE0402152
:105090003046FCF7F7FE044380213046FCF7F2FE71
:1050A00044EA400410213046FCF7ECFE44EA800458
:1050B000202126E001213046FCF7E4FE04430221D2
:1050C0003046FCF7DFFE44EA400410212846FCF796
:1050D000D9FE44EA80042021284613E08021284696
:1050E000FCF7D0FE044340212846FCF7CBFE44EAFF
:1050F000400441463046FCF7C5FE44EA80044FF4C4
:1051000080413046FCF7BEFE44EAC000C0B2BDE8B4
:10511000F08704211F48FCF7B5FE04430821304600
:10512000FCF7B0FE44EA40044FF480512846FCF7F7
:10513000A9FE44EA80044FF40061CDE74FF400512A
:105140002846FCF79FFE044304213046FCF79AFEF4
:1051500044EA400449463046FCF794FE44EA8004A1
:105160005146CEE741463846FCF78CFE044349469B
:105170002846FCF787FE44EA40044FF48071284635
:10518000FCF780FE44EA80045146A5E70008004889
:1051900000040048000C00480021016080F86810FD
:1051A00070470000FDF7A2F81B49DD20EE220870D1
:1051B0009920487001F5837101250A7048701748DD
:1051C000002405704570857015480470FBF75CFC81
:1051D000FFF724FAFFF752F8FFF70AF8FEF792FEFE
:1051E000FEF7E6FEFEF73EFFFEF786FFFEF7C2FF84
:1051F0000D480C4901600471447144610562846189
:10520000FCF75AFB08B172B6FEE7FFF7CFF9FFF7DC
:10521000CFF8FFF797F9FEE79C3E0020170000202B
:1052200016000020003002409C3C002010B50446CF
:105230000420FBF745F804F001010170C4F34001BC
:105240004170C4F380018170C4F3C001C17010BD0E
:105250002DE9F04707460846FFF7E8FF0446584D9A
:10526000584E4FF090404FF400494FF480684FF48F
:10527000007A082F2CD2DFE807F00416304254677A
:105280007B8F227804212846FCF701FE62780821F2
:105290002846FCF7FCFDA27801212846FCF7F7FD23
:1052A000E278022189E0227880218046FCF7EFFD38
:1052B000627840214046FCF7EAFDA2782021404672
:1052C000FCF7E5FDE27810214FEA0800FCF7DFFD6E
:1052D0002046BDE8F047FBF722B82278402130464F
:1052E000FCF7D5FD627880213046FCF7D0FDA2782E
:1052F00010213046FCF7CBFDE27820214AE02278ED
:1053000001213046FCF7C3FD627802213046FCF7EC
:10531000BEFDA27810212846FCF7B9FDE2782021D5
:105320004BE0227880212846FCF7B1FD62784021CD
:105330002846FCF7ACFDA27849463046FCF7A7FDAD
:10534000E2784FF4804125E0227804211E48FCF7E2
:105350009EFD627808213046FCF799FDA2784FF453
:1053600080512846FCF793FDE2784FF4006124E079
:1053700022784FF400512846FCF789FD6278042119
:105380003046FCF784FDA27841463046FCF77FFDAD
:10539000E2785146304699E722784946FCF777FD96
:1053A000627841462846FCF772FDA2784FF480717E
:1053B0002846FCF76CFDE2785146284686E7000057
:1053C0000008004800040048000C004870B50D4675
:1053D00006460024204600F00CF806EB441105EBCD
:1053E00040102022FBF739F8641CE4B2082CF1D3FA
:1053F00070BD082815D2DFE800F00406080A0C0E7C
:1054000010120720704706207047012070470520C2
:105410007047042070470220704700207047032027
:1054200070474FF0FF30704710B590F86820036860
:1054300000EB420294881B1B0360918002681144B8
:10544000016090F868103222491CB1FBF2F302FBB4
:10545000131180F8681010BD4FF04070E1EE100A93
:105460007047010002000400060008000A000C005A
:10547000100020004000800000010101010307012D
:1054800000000804020408010101000000000000FF
:1054900000000102030406070809000000000102E1
:1054A00003040000C4540008000000205000000065
:1054B000140200081455000850000020184B00008A
:1054C00030020008000000000000000000000000A2
:1054D000000000000000FF000000000000000000CD
:1054E00000000000000000001000000001000000AB
:1054F000000000000000020000000400000008009E
:10550000000010000000200000004000000001002A
:045510000024F4007F
:04000005080001D915
:00000001FF
